:020000040000fa
:080000000001040000000000f3
:020000040000fa
:100008003a090000a8080000bc080000ce0800005b
:10001800e00800003a0900003a0900003a09000027
:100028003a090000de0700003a0900005802000003
:100038003a0900003a0900003a0900003a090000ac
:100048003a0900003a0900003a0900009a01000044
:100058003a0900003a0900003a0900003a0900008c
:100068003a0900003a0900003a0900003a0900007c
:100078003a0900008a020000ce0200003a09000096
:100088003a0900003a0900003a0900003a0900005c
:100098003a0900003a0900003a0900003a0900004c
:1000a8003a0900003a0900003a0900003a0900003c
:1000b8003a0900003a0900003a0900001403000058
:1000c8003a0900003a0900003a0900003a0900001c
:1000d8003a0900003a0900003a0900003a0900000c
:1000e8003a0900003a0900003a0900003a090000fc
:0800f8003a0900003a0900007a
:020000040000fa
:100108003a090000f208000004090000160900007e
:10011800280900003a0900003a0900003a090000dd
:100128003a090000de0700003a0900005802000002
:100138003a0900003a0900003a0900003a090000ab
:100148003a0900003a0900003a0900009a01000043
:100158003a0900003a0900003a0900003a0900008b
:100168003a0900003a0900003a0900003a0900007b
:100178003a0900008a020000ce0200003a09000095
:100188003a0900003a0900003a0900003a0900005b
:100198003a0900003a0900003a0900003a0900004b
:1001a8003a0900003a0900003a0900003a0900003b
:1001b8003a0900003a0900003a0900001403000057
:1001c8003a0900003a0900003a0900003a0900001b
:1001d8003a0900003a0900003a0900003a0900000b
:1001e8003a0900003a0900003a0900003a090000fb
:0801f8003a0900003a09000079
:020000040000fa
:100200000f9620006ebc20000e0188000000000048
:10021000000020000000e000020032000001200089
:10022000200288000c000700003621000100200099
:1002300011000700000020000000e0000200320072
:1002400000000200000000000c140200000000008a
:100250000040da000000fe004440a90040032000f6
:100260000000e0000300320000002000a001880030
:100270004440a8000000060091018800800078003a
:100280000000eb0015003700e280400032a0b4000f
:100290009101ba00e280400032a0b4009102ba009d
:1002a000e280400032a0b4000002eb00472bde00e9
:1002b000f507b200602ce10004003a000059eb00a1
:1002c0008301e900fdff3e00040037006128e100e2
:1002d000010032000082eb00040007001101ba00a7
:1002e0000200e000e8ff3a00000006003159ba00c1
:1002f0008301e9000c0032002159ba008301e900b2
:10030000080032000400e00003003a00e2804000f0
:1003100032a0b400f5ff370011d9ba008301e9001b
:10032000faff3a008100e800e180400032a0b4000a
:10033000000006003600f800809fbe00829fbe00cd
:10034000849fbe00869fbe003400f800000020009d
:10035000a00188000200fa008560a90044498000dd
:10036000e00f52000a003200444980000402e90014
:10037000444988005443800054428800644380000c
:10038000644288007443800074428800060037008d
:100390002414800054428800341480006442880091
:1003a00044148000744288008442800084027800f3
:1003b00004148000048242000402d10084428800b8
:1003c000c4428000050020004600200007002000f5
:1003d000860f5200878f5a0026003e0004600100fd
:1003e0000400370023003700200037001f003700cb
:1003f000030037000002eb00a40e88002400370041
:10040000a41680004822de006702620024428800b1
:100410002442800084024200c490200004824200f2
:1004200014027800344288001e0fe8003442800035
:10043000e10f420003003a001e027800e30f520071
:10044000efff34003542800044428000848f520028
:10045000060032003442800004007800a702070042
:100460000002eb00a408880086a0a900870007000e
:1004700007003700c4428000e40f5200030036003a
:100480000002eb00c44288000100370000000000b9
:100490000080fa003400f9004f03be004f02be0096
:1004a0004f01be004f00be003600f90000400600bc
:1004b000849fbe00861f78003400f80004002000ee
:1004c000a40188000000fa008460a9009542800021
:1004d0005648800014c0b300868f520001003100de
:1004e0000042eb008502e80095428800e04f520090
:1004f000030032008c60a9000002eb00c4428800b7
:100500000080fa003400f9004f0378004f02be006b
:10051000004006003600f800809fbe00829fbe00ab
:10052000849fbe00869fbe003400f80000002000bb
:10053000a00188000000fa000002eb00a408880077
:1005400086a0a900c4428000e30f52000b003a00cd
:10055000344280000402e8003442880034428000c3
:10056000e50f5200020034000002eb003442880024
:100570003442800004007800600207000080fa0026
:100580003400f9004f03be004f02be004f01be0011
:100590004f00be003600f900004006003600f800ab
:1005a000809fbe00829fbe00849fbe00869fbe00cb
:1005b0003400f80000002000a00188000000fa00cc
:1005c00021e1a9000002eb00c40888000002eb0052
:1005d000a408880086a0a90086c0a9008ec0a90032
:1005e0000002eb0094428800c4428000e30f5200f6
:1005f00005003a0084438000344288003442800081
:10060000040078003d0207000080fa003400f90081
:100610004f03be004f02be004f01be004f00be00a0
:100620003600f90000400600841f78003400f8000e
:1006300004002000a40188000000fa0088e0a9005e
:10064000e44280000402e800e4428800e4428000c2
:10065000f30f5200030036000002eb00e442880072
:100660009e68a800c4428000e20f520003003a00d6
:10067000e442800069024200e44288000080fa00ff
:100680003400f9004f027800004006000600fa002e
:1006900064458000e50f52000d003e00e48120001b
:1006a000f449880013002000c2862000c184200085
:1006b00080942000ef08070013002000e28620004d
:1006c000e184200040952000ea080700020037007e
:1006d00004802000f449880013002000a286200036
:1006e000a1842000c0932000e2080700854280001a
:1006f00024002000110009008402d80000027800c4
:1007000084027800744580000482420024438800fb
:100710005543800024438000048252006123b900c5
:1007200004438000154380000602420087824a008d
:10073000044388001543880004438000154380006b
:10074000432bdd004d22de0004027300cdaade0043
:10075000040278007445880064458000e50f52006b
:1007600004003e00a4428000840db00014079800ed
:1007700003003700a4428000640cb0001407980006
:10078000644580000500200096002000070020003e
:10079000860f5200878f5a00bb013e0004600100a3
:1007a00009003700340037005f0037008a00370047
:1007b000c9003700f40037001e013700240137005c
:1007c0005d013700630137005543800024438000fa
:1007d000848f5200b0013d00644580000508800010
:1007e000040342002487200004024300050a780025
:1007f0000002eb0004088800ce0107000002780028
:10080000040f78001e0290009e027800848f520030
:10081000020031001e009000000f78001e029000c0
:100820001e021200e408880034002000844388007f
:1008300021e1a8008ec0a800b44280006f036200ce
:100840001e0278006622b900840278000603430085
:10085000e487200004024300050a7800b4428000c7
:100860000402e800b4428800644580000402e80005
:10087000644588009f013700754380002443800051
:10088000848f520086013400644580000508800092
:10089000040342002487200004024300050a780074
:1008a0000002eb0004088800a201070000027800a3
:1008b000040f78001e0290009e027800848f520080
:1008c000020031009e009000010f78001e0290008f
:1008d0001e021200e40888004400200084438800bf
:1008e00021e1a8008ec0a800b44280006f0362001e
:1008f0001e0278006622b9008402780006034300d5
:10090000e487200004024300050a7800b442800016
:100910000402e800b4428800644580000402e80054
:1009200064458800730137006543800024438000dc
:10093000848f52005c013d00644580000508800002
:10094000040342002487200004024300050a7800c3
:100950000002eb000408880076010700000278001e
:10096000040f78001e0290009e027800848f5200cf
:10097000020031001e029000040f78001e02900059
:100980001e021200e40888005400200084438800fe
:1009900021e1a8008ec0a800b44280006f0362006d
:1009a0001e0278006622b900840278000603430024
:1009b000e487200004024300050a7800b442800066
:1009c0000402e800b4428800644580000402e800a4
:1009d0006445880047013700554380002443800068
:1009e000848f520032013400644580000508800085
:1009f000040342002487200004024300050a780013
:100a00000002eb00040888004a0107000002780099
:100a1000040f78001e0290009e027800848f52001e
:100a2000020031001e039000060f78001e029000a5
:100a30001e021200e40888000002eb0084438800d4
:100a400021e1a8008ec0a800b44280006f036200bc
:100a50001e0278006622b900840278000603430073
:100a6000e487200004024300050a7800b4428000b5
:100a70000402e800b4428800644580000402e800f3
:100a800064458800f444800062026200e00f520076
:100a90000901320064002000644588000002eb0078
:100aa000a40888001e02780004024200d4088800ce
:100ab00086a0a9008ea0a8009e48a800a1e2a900d7
:100ac000b4002000541588008440200014158800cc
:100ad000a1e2a8000701370075438000244380008d
:100ae000848f5200f6003d006445800005088000b8
:100af000040342002487200004024300050a780012
:100b00000002eb00040888000a01070000027800d8
:100b1000040f78001e0290009e027800848f52001d
:100b2000020031001e009000000f78001e029000ad
:100b30001e021200e408880014002000844388008c
:100b400021e1a8008ec0a800b44280006f036200bb
:100b50001e0278006622b900840278000603430072
:100b6000e487200004024300050a7800b4428000b4
:100b70000402e800b4428800644580000402e800f2
:100b800064458800db003700654380002443800013
:100b9000848f5200cc00340064458000050880003a
:100ba000040342002487200004024300050a780061
:100bb0000002eb0004088800de0007000002780055
:100bc000040f78001e0290009e027800848f52006d
:100bd000020031009e009000010f78001e0290007c
:100be0001e021200e40888002400200084438800cc
:100bf00021e1a8008ec0a800b44280006f0362000b
:100c00001e0278006622b9008402780006034300c1
:100c1000e487200004024300050a7800b442800003
:100c20000402e800b44288000002eb00644588003a
:100c3000b000370034428000e20f5200a4003a00b6
:100c4000644580000402e80064458800a90037007c
:100c50005543800024438000848f52009e003d0055
:100c6000b44280006f026200050880000403420065
:100c7000e487200004024300050a78000002eb002c
:100c800004088800b44280006f02620084024200bf
:100c9000e48720000482420094027800b44280007d
:100ca0000402e9006f02620004034200e4872000ae
:100cb00004024300140278000482420024079800d2
:100cc000ae02900064002000110009008482d80068
:100cd00000027800d40888002e029000c222de00b4
:100ce0001e029000848f5200030031000002eb00ce
:100cf000d4088800050037002e029000c222de00d2
:100d00001e02900004825200d4088800b442800081
:100d10000402e800b44288004400200084438800b4
:100d200021e1a8008ec0a800644580000402e8000c
:100d3000644588006f00370034428000e50f5200a0
:100d400067003a00644580000402e80064458800ba
:100d5000680037005543800024438000848f520090
:100d600061003400b44280006f0262000508800018
:100d700004034200e487200004024300050a7800cf
:100d80000002eb0004088800b44280006f02620099
:100d900084024200e487200004824200940278002a
:100da000b44280000402e9006f02620004034200c2
:100db000e487200004024300140278000482420009
:100dc00024079800ae029000640020001100090082
:100dd0008482d80000027800d40888002e02900097
:100de000c222de001e029000848f520003003100f8
:100df0000002eb00e4088800050037002e02900096
:100e0000c222de001e02900004825200e408880024
:100e1000b44280000402e800b442880014002000bc
:100e20008443880021e1a8008ec0a800640020004f
:100e300064458800f444800062026200e00f5200c2
:100e40002b003a0044002000644588000002eb00bb
:100e500084438800d40880008402d1001e029000e0
:100e600004825200e40888008ea0a900a1e2a90033
:100e7000b403200054158800044120001415880094
:100e8000a1e2a8001b0037000002eb0064458800c7
:100e900000000000170037000000000015003700b8
:100ea00000000000130037000000000011003700b0
:100eb000000000000f003700000000000d003700a8
:100ec000000000000b0037000000000009003700a0
:100ed0000000000007003700000000000500370098
:100ee0000000000003003700000000000100370090
:100ef000000000000080fa00000006000200fa0076
:100f0000000f78001e02780084024200c491200085
:100f10000482420014027800a40e88001e027800a9
:100f20004442880064468000444988000080fa00fa
:100f3000000006000600fa006022b80014079800be
:100f4000250798000002eb00040f78000d00370021
:100f50001e0278008402420024872000048242009e
:100f600014027800050020001e039000ae039000dc
:100f70000602420087824a0014079800250798005d
:100f80001e0fe8001e027800e50f5200f0ff360049
:100f90001e029000ae029000c60020001100090061
:100fa00046aad80000027800040f78001e027800dc
:100fb000040078000080fa00000006003600f80007
:100fc000809fbe00829fbe00849fbe00869fbe00a1
:100fd0003400f80000002000a00188000000fa00a2
:100fe0008420a9000002eb0034088800a4168000c9
:100ff00061026200e00f52004d003200040a8000de
:101000006123b800c44780000500200004b8b9007f
:101010000000780006a9b9008200780001004000b5
:1010200006037800040278000432b800050040008e
:101030008002780002802d00030020000400be0022
:10104000280107000002be00040278001445880051
:101050001545800034882000848f520012003e0025
:101060004488200014458800244580000402e800dc
:101070002445880024458000fd0f52002c003600d6
:10108000c4428000e30f520029003a000002eb0046
:10109000c44288009e08a9000002eb00d4428800e8
:1010a000d1a2a90022003700154580003488200015
:1010b000848f52001300360015458000b48a20004a
:1010c000848f52000f003e00344580000402e80087
:1010d0003445880034458000fd0f5200060036007c
:1010e000c4428000e00f520003003a00d1a2a800e1
:1010f00014002000c44288000002eb002445880050
:101100000b00370015458000c4478000848f5200d3
:1011100003003600c44780001445880004003700ef
:101120000002eb00244588000002eb0034458800f3
:101130000080fa003400f9004f03be004f02be00e9
:101140004f01be004f00be003600f900004006000f
:101150003400f800881f780008002000a8018800eb
:101160004f0478000000fa008020a9000080fa00f7
:101170003400f90000400600841f78003400f800b5
:1011800004002000a40188000000fa000002eb0027
:10119000a40e88008060a900ffff3700841f78003c
:1011a0003400f80004002000a40188000000fa00c8
:1011b0000002eb00a40e88008040a900ffff37006a
:1011c000841f78003400f80004002000a401880087
:1011d0000000fa000002eb00a40e88008080a90045
:1011e000ffff3700841f78003400f800040020005f
:1011f000a40188000000fa000002eb00a40e8800a1
:101200008020a900ffff3700841f78003400f80019
:1012100004002000a40188000000fa000002eb0096
:10122000a40e88008060a900ffff3700841f7800ab
:101230003400f80004002000a40188000000fa0037
:101240000002eb00a40e88008040a900ffff3700d9
:10125000841f78003400f80004002000a4018800f6
:101260000000fa000002eb00a40e88008080a900b4
:10127000ffff37000040da000000fe001e00fc0007
:10128000881f78008a1f78004400f800080f2000ab
:10129000280288000004900010059000a000900033
:1012a00030019000c00190000300ca000280ca0013
:1012b0000030cb001a00cd004604c3000100ca0074
:1012c0004604c0001e04c0000605c0000100cd0099
:1012d00021009800050d7800eaba970005257800ee
:1012e0004400f9004f0578004f0478000000060024
:1012f0000e00fc00801f7800200090000008eb002a
:101300004f007800801f7800100090000018eb005c
:101310000018eb000008eb004f007800000006000a
:101320001500fc004400f800020f20002202880093
:10133000910078003000ca003080ca000000cb0065
:101340002080ca000000cb003100cd004000ca0060
:101350000000cb000000cb000010cb003100cd001e
:101360001180cc004400f9000000060003f0a20048
:10137000889fbe008a9fbe008c1f7800c9000700ae
:10138000d00033006450e1004f0032006420e100df
:101390005200320003826c0007003b000905d000b8
:1013a0000306d000820f54000c065d0002003900d5
:1013b000020032008901780003067800858255001a
:1013c00004003d000003fd008103fd008502ea00ea
:1013d0008b854200840f720002003b006000100009
:1013e000e08018006011b8000005eb007a28e100e9
:1013f0000a00390006007800c75ddd00f707b2007b
:10140000878075002d003700828171000a01780005
:10141000610560008180d1000080d3008502e90071
:10142000f9ff3b00060440008784480002003b00af
:1014300060041400e0841c000988a3000700320047
:101440008a81710082817100610164008904d10088
:101450000884d3008b05e800170037000978a30043
:1014600013003a000b00e000130034008b05e90084
:101470000804440089844c000a4474000978a300dd
:101480000d003a000b00e000070034008b05e90076
:101490000804440089844c0001003a000b0020003d
:1014a0000978a300f7ff32000001eb0002003700cb
:1014b000828171000a0178003f0007000cf0a7004c
:1014c00001f0a000880037006420e10002003a002b
:1014d000838f6c00880033000801be000200be004c
:1014e00081003700839f68000100e00002003d009a
:1014f00060001000e08018000300e00002003d00e2
:1015000060011100e08119007e0007004f00e0003b
:1015100002003b0060001000e080180000000600a0
:1015200014002000870037000001be0048000700bb
:101530000470a70003f0a1006509b1001600320095
:101540000d0035006828e10006003500f0ff2f008f
:10155000f1ff27000300e00013003b00010028001a
:101560000000050000004000818048008502e9007d
:10157000fcff3a0008003700f88f420002003c00f0
:101580008000eb00000005008100d1000080d30046
:101590008502e800fcff3a000300e00002003b0087
:1015a00060001000e0801800000006004f89de0097
:1015b000820178007e0037008100200061805500a4
:1015c0000b003d000b00200061fe2f000100e10038
:1015d0001d00340082817100610164008904d10022
:1015e0000884d3000000e800faff3a0071002000f0
:1015f0006100640003007000020060000900320016
:1016000061044400e0844c000988a5000500320014
:101610008b05e8006808e10002003a008904d10067
:101620000884d300f20f20000258e10005003d00bd
:10163000c75ddd00f907b2008980750008007800f9
:10164000000006000bf827008b0078000000050062
:10165000c70ade00f107b200f50fb2000800320041
:10166000e1cf4200020032000170a000240005001a
:10167000810f7000010032000408050044000500dd
:10168000810f700002003a00140005008502e90095
:101690000000400081c04800fcff3b000170a0003a
:1016a000240005000004be00e9ff07000003be009f
:1016b0000405be000200be00e5ff0700844f750070
:1016c000000006000200be006450e1000500360084
:1016d0006420e100020036000968a30001003a001e
:1016e0000800be000160a0004f0678004f05be0054
:1016f0004f04be0000000600f0ff2f00f1ff27009e
:10170000f9ff37006022b800060220000000d00078
:101710008180d2000482d2008582d2000000a00025
:101720000202520083825a0003003100020242008a
:1017300083824a000000a1000603e900f3ff3a009b
:1017400000000600889fbe008a9fbe00841f7800ac
:10175000d4ff07004f00780011003300f0ff2f0086
:10176000838f6c0006003b00040565000a00a7009b
:101770000800370009f0a60010002000080037001c
:10178000820f5400838f5c0003003900100020009a
:1017900001003e000000200009f0a7000000ea0060
:1017a0004f05be004f04be000000e0000000060030
:1017b000881f7800030478000300e00007003d0064
:1017c00060001000e080180060011900e08119003d
:1017d00002003b0001f02d00030037000400070069
:1017e00008f0a70001f0a0004f04780000000600f8
:1017f000889fbe008a9fbe000082700004027100b4
:1018000004827100260032000004be000200be0007
:101810006011b8006b092000950220000182cf0002
:101820000a0039000541b1000082cf0007003900ed
:101830000541b1000982cf00040039000541b10023
:101840000882cf00010039000541b1000542520075
:10185000120032000a003b008281710061016400c5
:101860008100d1000080d3008984d3000884d30094
:101870008b05e8000442e800f7ff3a000700370054
:101880000804440089844c0000004800818048001e
:101890008b05e9000442e900f9ff3a0046ff070022
:0c18a0004f05be004f04be000000060013
:020000040000fa
:1018ac00000000006400000000000000e8030000dd
:1018bc00f4010000641900000a000000f4010000ab
:1018cc00f40100008813000000000000ffff00007e
:1018dc00000000001400000000000000007d00006b
:1018ec0000000000ffff0000000000001e000000d0
:1018fc0002000000140000006400000084030000db
:08190c000000000014000000bf
:020000040000fa
:101914000200fa00c562840034478000848f5200bc
:1019240002003100c462840034478800c562840028
:1019340044478000848f520002003100c462840056
:1019440044478800c562840074478000848f520035
:1019540002003100c462840074478800c5628400b8
:1019640084478000848f520002003100c4628400e6
:1019740084478800c562840024488000848f520014
:1019840002003100c462840024488800e5628400b7
:1019940054478000848f520002003100e4628400c6
:1019a40054478800e562840064478000848f5200b5
:1019b40002003100e462840064478800f562840018
:1019c40094478000848f520002003600f462840041
:1019d400944788000563840094478000848f5200f4
:1019e4000200310004638400944788001563840076
:1019f400a4478000848f52000200360014638400e0
:101a0400a447880025638400a4478000848f520083
:101a14000200310024638400a447880035638400f5
:101a2400b4478000848f520002003600346384007f
:101a3400b447880045638400b4478000848f520013
:101a44000200310044638400b4478800a563840025
:101a5400e4478000848f520002003100a4638400b4
:101a6400e4478800a5638400f4478000848f520013
:101a740002003100a4638400f4478800a563840055
:101a840004488000848f520002003100a463840063
:101a94000448880065638400c4478000848f520032
:101aa4000200310064638400c447880085638400b5
:101ab400d4478000848f5200020031008463840084
:101ac400d4478800c563840014488000848f520082
:101ad40002003100c463840014488800e563840074
:101ae40024478000848f520002003100e4638400a4
:101af40024478800f563840034488000848f5200b2
:101b040002003600f46384003448880005648400cd
:101b140034488000848f5200020031000464840041
:101b2400344888001564840044488000848f52003f
:101b3400020036001464840044488800256484004c
:101b440044488000848f52000200310024648400e1
:101b5400444888003564840054488000848f5200cf
:101b640002003600346484005448880045648400cc
:101b740054488000848f5200020031004464840081
:101b8400544888003447800005002000265c20006b
:101b940006abb900060378006020b9008003780022
:101ba4000703430084027800245c2000042ab80060
:101bb400050343008602780042062000030020004b
:101bc4000400be00cefe07000002be00040278003e
:101bd400844588004447800005002000265c2000de
:101be40006abb900060378006020b90080037800d2
:101bf4000703430084027800245c2000042ab80010
:101c040005034300860278004206200003002000fa
:101c14000400be00bafe07000002be000402780001
:101c240094458800544780006a22b9000402780071
:101c3400a4458800644780006a22b9000402780041
:101c4400b44588007447800005002000265c20000d
:101c540006abb900060378006020b9008003780061
:101c64000703430084027800245c2000042ab8009f
:101c7400050343008602780042062000030020008a
:101c84000400be009efe07000002be0004027800ad
:101c9400c44588008447800005002000265c20009d
:101ca40006abb900060378006020b9008003780011
:101cb4000703430084027800245c2000042ab8004f
:101cc400050343008602780042062000030020003a
:101cd4000400be008afe07000002be000402780071
:101ce400d4458800944780006a22b9000402780031
:101cf400e4458800344880006123b800a44780008c
:101d04000500200004b8b9000000780006a9b90055
:101d14008200780001004000060378000402780085
:101d24000432b80005004000800278000401be00bf
:101d340000d420003100200071fe07000002be0024
:101d440004027800f4458800344880006123b80018
:101d5400b44780000500200004b8b90000007800f2
:101d640006a9b9008200780001004000060378004b
:101d7400040278000432b8000500400080027800b4
:101d84000401be0000d42000310020005cfe0700e6
:101d94000002be000402780004468800f545800075
:101da40004468000848f5200030031000446800002
:101db4000482e800f4458800e5458000f64580008b
:101dc4000446800004025300110009008482d800f4
:101dd400000278000402e80024468800d54580000b
:101de400c4458000848f520003003100c445800044
:101df4000482e800d4458800e5458000d64580008b
:101e0400c445800004025300110009008482d800f4
:101e1400000278000402e800144688003448800078
:101e24006123b800433add00cd32de008502720042
:101e34004332dd000401be0000002000c14b23003a
:101e44002ffe07000002be00344688004546880085
:101e5400c44780004a22de000402e8005446880099
:101e6400d447800064468800144880007446880083
:101e74002447800084468800c44780009446880034
:101e8400e4478000a4468800f4478000b4468800f4
:101e940004488000c4468800c4832000d4468800d7
:101ea40064bd2000e4468800a18d2000408d200000
:101eb4001afd07000002eb00040f7800070037004a
:101ec4001e0278008402420064bd200004824200a5
:101ed4008002eb00050a78001e0fe8001e0278005d
:101ee400e20f5200f6ff3e00c4428000e10f5200b0
:101ef40015003a00244880000500200076eb2700f6
:101f040006abb900060378006020b90080037800ae
:101f1400070343008402780074eb2700042ab80006
:101f240005034300860278004206200003002000d7
:101f34000400be00f2fd07000002be0004027800a7
:101f4400f4468800020037000002eb00f4468800e3
:101f54000002eb00040f78001e00370034488000b4
:101f64006123b800a44780000500200004b8b9002c
:101f74000000780006a9b900820078000100400042
:101f840006037800040278000432b800050040001b
:101f940080027800432bdd00cd23de00870373002d
:101fa4004323dd000601be0000002000c14b2300d6
:101fb400d3fd07000002be00840278001e027800f0
:101fc40004034200e487200004024300050a780069
:101fd4001e0fe8001e027800ef0f5200dfff3600ec
:101fe4000080fa00000006000200fa009e68a900c2
:101ff400ca01a800c4428000050020004600200059
:1020040007002000860f5200878f5a009f013e0070
:102014000460010004003700f900370002013700b2
:102024000c0037006a003700d1a2a9000002eb00bf
:10203400b40e88000002eb00c40e88000002eb001e
:10204400d40e88006022b8003443880045438800d9
:102054009701370036438000474380007446800070
:10206400050020000403530085835b008446800040
:102074000500200004b8b9000000780006a9b900e2
:102084008200780001004000060378000402780012
:102094000432b8000500400080027800863e20002b
:1020a4001100090046aad8000002780054498800ab
:1020b40054498000fe0f520002003600e401200063
:1020c4005449880054498000e00f520003003a004c
:1020d4000002eb00a44288001f0037007446800011
:1020e4006123b8003443800045438000840f5300cb
:1020f400858f5b0015003100d1a2a80054498000ef
:102104006123b800744980008549800004b8b9008f
:102114000000780006a9b9008200780001004000a0
:1021240006037800040278000432b8000500400079
:1021340080027800861620001100090046aad80003
:1021440000027800a442880003003700d1a2a9004d
:102154000002eb00a44288004448800025032000cc
:102164008482420064498000848f5200030031005d
:10217400944980000402e80094498800444880009f
:10218400e5fc2f008482420064498000848f520061
:1021940003003600944980000402e9009449880051
:1021a40094498000f40f5200030034009e28a800d4
:1021b4000002eb009449880094498000f40f420027
:1021c40003003d009e28a9000002eb00944988000a
:1021d4006022b80074498800854988000002eb0039
:1021e400040f78000d0037001e02780084024200bc
:1021f400e487200004824200140278006123b800be
:1022040074498000854980000602420087824a00a2
:1022140074498800854988001e0fe8001e02780072
:10222400ef0f5200f0ff36007449800085498000aa
:102234004d2bdd004322de0004027300c32ade00be
:102244007449880085498800744980008549800064
:102254000403780004002000150e2000110009007a
:1022640046aad800000278004322de0064498800b0
:102274003248800064498000050020008607200061
:1022840006abb900060378006020b900800378002b
:10229400070343008402780084072000042ab8005e
:1022a40005034300860278001100090042aad80001
:1022b400000278000500200034438800454388006c
:1022c400f54480000402200004826200e00f520002
:1022d4002d003200144580001447880034438000e8
:1022e400454380000402780004478800a08d200044
:1022f400e1fb0700f4468000e00f520002003d00bd
:102304000002eb00f4468800f546800074eb2700d9
:10231400848f520005003400245c2000b40e880031
:1023240074eb2700f446880012003700f44680005e
:10233400cfa2de00265c200006abb90006037800bd
:102344006020b9008003780007034300840278000a
:10235400245c2000042ab8000503430086027800a8
:1023640076eb27001100090046aad8000002780085
:10237400b40e8800b40e8000c40e8800b40e800031
:10238400d40e8800ca003700f544800004042000fd
:1023940004826200e00f5200c20032001442800046
:1023a40005002000265c200006abb9000603780077
:1023b4006020b9008003780007034300840278009a
:1023c400245c2000042ab800050343008602780038
:1023d400f23f2000030020000400be00c8fc0700f8
:1023e4000002be0004027800b40e8800b40e80001f
:1023f400c40e8800b40e8000d40e8800ac003700f0
:1024040043fd0700844280000482d10024438800f5
:1024140024002000c44288000002eb009449880094
:102424009e28a900a2003700d442800005002000a5
:102434003600200007002000860f5200878f5a00c4
:102444008e003e0004600100030037001d003700c9
:10245400370037004200370084458000b40e8800fe
:10246400b40e8000c40e8800b40e8000d40e880020
:10247400a44580000402e900a4458800a445800026
:10248400e00f52000e003a00344280000402e800db
:102494003442880034428000e50f520002003400c8
:1024a4000002eb00344288003442800004007800cb
:1024b40091fa0700d44280000402e800d442880064
:1024c4007100370094458000b40e8800b40e80007b
:1024d400c40e8800b40e8000d40e8800b445800079
:1024e4000402e900b4458800b4458000e00f5200be
:1024f4000e003a00344280000402e80034428800ae
:1025040034428000e50f5200020034000002eb0068
:1025140034428800344280000400780076fa0700d0
:10252400d44280000402e800d442880056003700f8
:102534000002eb00a4498800c4458000b449880027
:10254400f4458000c4498800f4458000d4498800db
:10255400d44280000402e800d44288004a003700d4
:10256400a5498000e645800014c0b300868f520060
:10257400010031000042eb008502e800a549880013
:10258400e04f5200090032000002eb00d442880000
:1025940034002000c442880021e1a9008ec0a900b3
:1025a4008460a9008c60a80033003700a54980002e
:1025b40014468000110009008482d80001027800ca
:1025c400e00f520003003a00b44980000402e8001e
:1025d400b4498800b4498000b40e8800b40e800069
:1025e400c40e8800b40e8000d40e8800a549800073
:1025f40024468000110009008482d800010278007a
:10260400e00f520006003a00c44980000402e900c9
:10261400c4498800d44980000402e900d4498800f0
:10262400c549800014c0b300e08f5200010034009b
:102634000042eb008502e900c5498800e04f5200e2
:102644000d003200d4498000c4498800344280001f
:102654000402e8003442880034428000e50f52004e
:10266400020034000002eb0034428800344280004f
:102674000400780020fa0700030037000002eb0092
:10268400d44288000000000009003700c4428000e2
:10269400e40f5200050036000002eb00c44288003b
:1026a40003003700000000000100370000000000b4
:0c26b400ca01a9000080fa000000060026
:020000040000fa
:1026c0003c090000240000000200000002001e007f
:1026d0000800ff00dc0be2000b00000002001e00ff
:1026e0000800ff00e80bee000b00000002001e00d7
:1026f0000800ff00f40bfa000b00000000080000c7
:102700003c000000020000004b02960004de550071
:102710004b02f600e03d02007a041e00663d020016
:10272000f9ce54000e540e007a280000000000007c
:10273000440589000a253e004405c800ec840500d4
:10274000080b4a004f840500d3d581001581150080
:10275000b41c000000000000dc0b0000240000009e
:1027600000000000420800006e00000000000000b1
:102770000c0900001e00000002000000ffff020024
:102780000004000003000000000100000500ff003d
:10279000ff000600001200001800090000210000e0
:1027a000240300002a0900001200000000000000bd
:1027b000b008000036000000000000003c080000e7
:1027c0000600000000000000d60b0000060000001c
:1027d00000000000e60800002600000002000000e3
:1027e000160016000090010090012f000034000038
:1027f000e803960000340800401f040000401f005a
:102800000807f8002a10270034000e0000fa000024
:082810000a00000000000000b6
:020000040000fa
:102818000400fa009ec8a8009ea8a8001400200082
:10282800941688000002eb00641688000002eb0092
:10283800841688000002eb00b41688000082eb00c2
:10284800f4168800053a800004f22300048262002e
:10285800043a88000002eb001407980019003700ba
:10286800d1a2a9000002eb00040f78000400370091
:1028780000002400b1002000fb0007001e0fe80044
:102888001e027800e20f5200f9ff3400d1a2a8001e
:102898000002eb00040f7800040037000000240059
:1028a800b1002000f00007001e0fe8001e027800ab
:1028b800e20f5200f9ff34001e0290000402e80003
:1028c800140798001e029000e40f5200e4ff340041
:1028d800d1a2a900040128002408880004012000ce
:1028e800f40888000002eb00a408880086a0a9006c
:1028f8008ea0a9001fe1a800040120000409880097
:102908000002eb00c408880086c0a9008ec0a90098
:102918008f000700bf000700a6000700c093200033
:102928008300070080942000810007004095200064
:102938007f0007000002eb00c44288000100370056
:1029480000000000f444800068026200e00f5200ba
:10295800fbff3200a3fd0700faff37000400fa006e
:10296800881f780004002800641088000002eb002b
:102978007410880004002000050e2400048fbe0097
:102988001e00be00e6fa07000002be00040278003e
:10299800cfa2de000400be0002fb07000002be005a
:1029a8000401be001e00be006efa07000002be0051
:1029b80018c0b3000200200003f023000400be008a
:1029c800d5fa070000027800e00f52000100350038
:1029d8000044eb00e04f5400060032001e00be0029
:1029e800cffa07000002be0004027800a410880095
:1029f800060037001e00be00c9fa07000002be002c
:102a0800040278000402e800a41088000f42a8001d
:102a18004f0478000080fa00000006000200fa0067
:102a2800000f78000b0037000000000075108000d0
:102a38000420200004826200e00f5200fbff3a00ed
:102a48001e027800144278000402fb0084108800fb
:102a58001e0fe8001e02780014427800e04f520072
:102a6800f1ff3a000080fa0000000600881f780095
:102a7800891f78008a1f78008b1f78004400f800af
:102a88003400f8002005900008f02f000a40e1000b
:102a980003003200480f2000aa0188000100370017
:102aa800080f20002802880000029000d00490003f
:102ab8008301e9000380080015000000100490005d
:102ac8003103780030059000c0059000b802780006
:102ad8009a00ca00048008000a0000005210c400ce
:102ae8009b80ca008707cd005290c4005290c50051
:102af800ba87cd005390c4008607cd009a00ca005b
:102b08005290c500bb87cd000600ca000900c80066
:102b18003200cd003400f9004400f900cf057800f8
:102b28004f057800cf0478004f04780000000600b5
:102b3800b000900040019000000090000080080064
:102b4800010000008018eb000019eb0000000600ef
:102b58000000fa000002eb00a40e8800142e2000ea
:102b6800240e880074772000440e8800d4012000c9
:102b7800640e88000002eb00840e88000002eb005f
:102b8800b40e88000002eb00c40e88000002eb00bf
:102b9800d40e88000002eb00340e880004002800e0
:102ba800040e880088e0a90090e0a8000080fa00e0
:102bb800000006000000fa0042e1a800140a8000a4
:102bc8000450a1000460a100140a88008420a90010
:102bd8008c20a800140a80000400a0000410a100a2
:102be8000420a100140a88000082eb006408880011
:102bf8000002eb0084088800840880000440a000dc
:102c08000450a1008408880011e1a8000080fa009f
:102c1800000006000000fa00a842a900a802a900c6
:102c2800a862a900a882a900a8a2a900440e2000b1
:102c380004158800044120001415880094c0200061
:102c480024158800b4032000541588000002eb0006
:102c5800341588008560a9008d60a800a1e2a8004d
:082c68000080fa0000000600e4
:020000040000fa
:102c7000f03fb1000180b10006003500ee0309000d
:102c800000000000403fb1000180b100fbff3d00ab
:102c90001000b000203fb0000200350000800900a5
:082ca000000000000000060026
:020000040000fa
:0200000401f009
:04000000e6bf000057
:020000040000fa
:0200000401f009
:04000400ff7f00007a
:020000040000fa
:0200000401f009
:04000800ff7f000076
:020000040000fa
:0200000401f009
:04001400ffff0000ea
:020000040000fa
:0200000401f009
:04001800ffff0000e6
:00000001FF
