:020000040000fa
:080000000001040000000000f3
:020000040000fa
:10000800d4080000500800006408000074080000cc
:1000180084080000d4080000d4080000d4080000b8
:10002800d40800009a070000d40800004c02000021
:10003800d4080000d4080000d4080000d408000048
:10004800d4080000d4080000d40800009a01000079
:10005800d4080000d4080000d4080000d408000028
:10006800d4080000d4080000d4080000d408000018
:10007800d40800007c020000ba020000d408000086
:10008800d4080000d4080000d4080000d4080000f8
:10009800d4080000d4080000d4080000d4080000e8
:1000a800d4080000d4080000d4080000d4080000d8
:1000b800d4080000d4080000d4080000f8020000aa
:1000c800d4080000d4080000d4080000d4080000b8
:1000d800d4080000d4080000d4080000d4080000a8
:1000e800d4080000d4080000d4080000d408000098
:0800f800d4080000d408000048
:020000040000fa
:10010800d408000094080000a4080000b408000007
:10011800c4080000d4080000d4080000d408000077
:10012800d40800009a070000d40800004c02000020
:10013800d4080000d4080000d4080000d408000047
:10014800d4080000d4080000d40800009a01000078
:10015800d4080000d4080000d4080000d408000027
:10016800d4080000d4080000d4080000d408000017
:10017800d40800007c020000ba020000d408000085
:10018800d4080000d4080000d4080000d4080000f7
:10019800d4080000d4080000d4080000d4080000e7
:1001a800d4080000d4080000d4080000d4080000d7
:1001b800d4080000d4080000d4080000f8020000a9
:1001c800d4080000d4080000d4080000d4080000b7
:1001d800d4080000d4080000d4080000d4080000a7
:1001e800d4080000d4080000d4080000d408000097
:0801f800d4080000d408000047
:020000040000fa
:100200002f9620006ebc20000e0188000000000028
:10021000000020000000e000020032000001200089
:10022000200288000c000700202b21000100200084
:1002300011000700000020000000e0000200320072
:100240000000020000000000641302000000000033
:100250000040da000000fe004440a90040032000f6
:100260000000e0000300320000002000a001880030
:100270004440a8000000060091018800800078003a
:100280000000eb0015003700e280400032a0b4000f
:100290009101ba00e280400032a0b4009102ba009d
:1002a000e280400032a0b4000002eb00472bde00e9
:1002b000f507b200602ce10004003a000059eb00a1
:1002c0008301e900fdff3e00040037006128e100e2
:1002d000010032000082eb00040007001101ba00a7
:1002e0000200e000e8ff3a00000006003159ba00c1
:1002f0008301e9000c0032002159ba008301e900b2
:10030000080032000400e00003003a00e2804000f0
:1003100032a0b400f5ff370011d9ba008301e9001b
:10032000faff3a008100e800e180400032a0b4000a
:10033000000006003600f800809fbe00829fbe00cd
:10034000849fbe00869fbe003400f800000020009d
:10035000a00188000200fa008560a90040498000e1
:100360000000e0000a003200404980000000e9007f
:10037000404988005043800050428800604380001c
:100380006042880070438000704288000600370099
:1003900020148000504288003014800060428800a1
:1003a0004014800070428800804280008000780005
:1003b00000148000008040000000d10080428800ce
:1003c000c0428000e30f500005003e00e20f5000e5
:1003d000210031000000e00004003200200037005e
:1003e000e40f5000030032001d003700d421ef005d
:1003f00021003700a01680004800de006700600082
:10040000204288002042800080004000c0902000f0
:100410000080400010007800304288001e0fe80085
:1004200030428000e10f400003003a001e007800d7
:10043000e30f5000efff3400314280004042800063
:10044000808f500004003200304280008702070095
:100450001421ef0086a0a9007d00070006003700e8
:10046000c0428000e40f5000020036005828ef0020
:1004700001003700000000000080fa003400f9009d
:100480004f03be004f02be004f01be004f00be0032
:100490003600f90000400600809fbe00821f7800f1
:1004a0003400f80000002000a00188000000fa00dd
:1004b0008460a900914280005248800010c0b300bf
:1004c000828f5000010031000040eb008100e80005
:1004d000914288000004e000020032008c60a90014
:1004e0005828ef000080fa003400f9004f0178002e
:1004f0004f00be00004006003600f800809fbe009e
:10050000829fbe00849fbe00869fbe003400f8001c
:1005100000002000a00188000000fa001421ef0074
:1005200086a0a900c0428000e30f500009003a00f5
:10053000304280000000e8003042880030428000f5
:10054000e50f5000010034004628ef0030428000e3
:10055000460207000080fa003400f9004f03be0095
:100560004f02be004f01be004f00be003600f90032
:10057000004006003600f800809fbe00829fbe004b
:10058000849fbe00869fbe003400f800000020005b
:10059000a00188000000fa0021e1a9001821ef0065
:1005a0001421ef0086a0a90086c0a9008ec0a90072
:1005b0005228ef00c0428000e30f500004003a00d0
:1005c00080438000304288003042800027020700cc
:1005d0000080fa003400f9004f03be004f02be0055
:1005e0004f01be004f00be003600f900004006007b
:1005f000801f78003400f80000002000a00188006f
:100600000000fa0088e0a900e04280000000e80055
:10061000e0428800e0428000f30f50000200360004
:100620005c28ef009e68a800c0428000e20f5000e6
:1006300003003a00e042800069004000e042880088
:100640000080fa003400f9004f00780000400600f6
:100650000600fa0060458000e50f50000d003e00e6
:10066000e0812000004a880013002000c28620009c
:10067000c1842000a09420009b08070013002000e4
:10068000e2862000e18420006095200096080700a3
:100690000200370000802000004a8800130020007c
:1006a000a2862000a1842000e09320008e0807008d
:1006b0008142800020002000000178001100090024
:1006c0008200d800800078007045800000804000e3
:1006d0002043880051438000204380000080500068
:1006e0006101b90000438000114380000200400016
:1006f0008380480000438800114388000043800045
:10070000114380004309dd004d00de000000710050
:10071000cd88de00000078007045880060458000cc
:10072000e50f500004003e00a0428000e017b0003a
:100730001007980003003700a0428000c016b000e8
:1007400010079800604580008000eb0092002000b8
:1007500003002000820f5000838f5800a7013e0045
:100760000060010009003700320037005b003700ed
:1007700084003700bf003700e80037000f01370062
:10078000150137004c0137005201370051438000fa
:1007900020438000808f50009b013d006045800019
:1007a0000108800000014000208720000000410077
:1007b000010878000021ef00ba010700000f78005f
:1007c0001e0090009e007800808f500002003100d3
:1007d0009e009000010f78001e0090001e00100087
:1007e000e0088800300020008043880021e1a80054
:1007f0008ec0a800b04280006f0160001e0078002b
:100800006600b9008000780002014100e087200006
:100810000000410001087800b04280000000e800bc
:10082000b0428800604580000000e8006045880014
:100830008c0137007143800020438000808f50007e
:100840007301340060458000010880000001400011
:100850002087200000004100010878000021ef00ff
:1008600090010700000f78001e0090009e007800a5
:10087000808f5000020031001e019000020f7800ae
:100880001e0090001e001000e008880040002000bc
:100890008043880021e1a8008ec0a800b0428000fb
:1008a0006f0160001e0078006600b90080007800cb
:1008b00002014100e08720000000410001087800ab
:1008c000b04280000000e800b0428800604580002f
:1008d0000000e80060458800620137006143800045
:1008e00020438000808f50004b013d006045800018
:1008f0000108800000014000208720000000410026
:10090000010878000021ef0066010700000f780061
:100910001e0090009e007800808f50000200310081
:100920009e009000010f78001e0090001e00100035
:10093000e0088800500020008043880021e1a800e2
:100940008ec0a800b04280006f0160001e007800d9
:100950006600b9008000780002014100e0872000b5
:100960000000410001087800b04280000000e8006b
:10097000b0428800604580000000e80060458800c3
:10098000380137005143800020438000808f5000a1
:100990002301340060458000010880000001400010
:1009a0002087200000004100010878000021ef00ae
:1009b0003c010700000f78001e0090009e007800a8
:1009c000808f5000020031001e019000020f78005d
:1009d0001e0090001e001000e00888007028ef0044
:1009e00021e1a8008ec0a800b04280006f01600025
:1009f0001e0078006600b900800078000201410006
:100a0000e08720000000410001087800b04280002b
:100a10000000e800b0428800604580000000e80067
:100a200060458800f0448000620060000000e00043
:100a3000fd00320060002000604588001421ef00b6
:100a40001e00780000004000d008880086a0a900a1
:100a50008ea0a8009e48a800a1e2a900b000200036
:100a6000501588008040200010158800a1e2a800e1
:100a7000fc0037007143800020438000808f5000cd
:100a8000eb003d006045800001088000000140004f
:100a90002087200000004100010878000021ef00bd
:100aa00000010700000f78001e0090009e007800f3
:100ab000808f5000020031009e009000010f7800ee
:100ac0001e0090001e001000e008880010002000aa
:100ad0008043880021e1a8008ec0a800b0428000b9
:100ae0006f0160001e0078006600b9008000780089
:100af00002014100e0872000000041000108780069
:100b0000b04280000000e800b042880060458000ec
:100b10000000e80060458800d20037006143800093
:100b200020438000808f5000c30034006045800067
:100b300001088000000140002087200000004100e3
:100b4000010878000021ef00d6000700000f7800b0
:100b50001e0090009e007800808f5000020031003f
:100b60001e019000020f78001e0090001e00100071
:100b7000e0088800200020008043880021e1a800d0
:100b80008ec0a800b04280006f0160001e00780097
:100b90006600b9008000780002014100e087200073
:100ba0000000410001087800b04280000000e80029
:100bb000b0428800ac28ef00aa0037003042800025
:100bc000e20f50009e003a00604580000000e800ff
:100bd00060458800a3003700514380002043800017
:100be000808f500098003d00b04280006f00600090
:100bf0000108800000014000e08720000000410063
:100c0000010878000021ef00b04280006f00600012
:100c100080004000e08720000080400090007800c5
:100c2000b04280000000e9006f0060000001400059
:100c3000e0872000000041001000780000804000a4
:100c400020079800ae0090006000200000017800ae
:100c5000110009008280d800d00888002e00900082
:100c6000c200de001e009000808f500002003100a4
:100c70001a21ef00050037002e009000c200de00b0
:100c80001e00900000805000d0088800b042800014
:100c90000000e800b0428800400020008043880047
:100ca00021e1a8008ec0a800604580000000e80097
:100cb000604588006b00370030428000e50f50002f
:100cc00063003a00604580000000e800604588004d
:100cd000640037005143800020438000808f500023
:100ce0005d003400b04280006f00600001088000a9
:100cf00000014000e087200000004100010878006a
:100d00000021ef00b04280006f00600080004000d2
:100d1000e08720000080400090007800b042800012
:100d20000000e9006f00600000014000e087200043
:100d3000000041001000780000804000200798006b
:100d4000ae00900060002000000178001100090052
:100d50008280d800d00888002e009000c200de00fb
:100d60001e009000808f5000020031001c21ef0017
:100d7000050037002e009000c200de001e0090002b
:100d800000805000e0088800b04280000000e800c9
:100d9000b0428800100020008043880021e1a800b4
:100da0008ec0a8006000200060458800f0448000ec
:100db000620060000000e00029003a0040002000ce
:100dc000604588007028ef00d00880008000d100c6
:100dd0001e00900000805000e00888008ea0a9004e
:100de000a1e2a900b00320005015880000412000b6
:100df00010158800a1e2a8001a003700ac28ef0007
:100e00000000000017003700000000001500370048
:100e10000000000013003700000000001100370040
:100e2000000000000f003700000000000d00370038
:100e3000000000000b003700000000000900370030
:100e40000000000007003700000000000500370028
:100e50000000000003003700000000000100370020
:100e6000000000000080fa00000006000200fa0006
:100e7000000f78001e00780080004000c091200024
:100e80000080400010007800a00e88001e0078004e
:100e90004042880060468000404988000080fa0097
:100ea000000006000a00fa006000b8001007980071
:100eb000210798000000eb00000f78000d003700bc
:100ec0001e00780080004000208720000080400045
:100ed000100078008000eb001e019000ae01900031
:100ee0000200400083804800100798002107980006
:100ef0001e0fe8001e007800e50f5000f0ff3600de
:100f00001e019000ae019000320798004307980040
:100f1000c20020003e029000ce02900011000900a5
:100f200042aad800000f78001e0078000080fa0066
:100f3000000006003600f800809fbe00829fbe00c1
:100f4000849fbe00869fbe003400f8000000200091
:100f5000a00188000000fa008420a9000621ef000b
:100f6000a0168000610060000000e0004400320034
:100f7000000a80006101b800c04780008000eb00db
:100f8000009ab90004027800028bb900860278004a
:100f9000050242000010b8000102420084007800ff
:100fa00002802d00030020001b01070000007800d4
:100fb000104588001145800030882000808f500047
:100fc00010003e0040882000104588002045800029
:100fd0000000e8002045880020458000fd0f5000fb
:100fe00027003600c0428000e30f500024003a0082
:100ff0005828ef009e08a9005a28ef00d1a2a900a6
:101000001f0037001145800030882000808f50007d
:101010001200360011458000b08a2000808f5000f9
:101020000e003e00304580000000e800304588009a
:1010300030458000fd0f500006003600c0428000a1
:101040000000e00003003a00d1a2a8001000200038
:10105000c0428800a428ef00090037001145800035
:10106000c0478000808f500003003600c0478000da
:101070001045880002003700a428ef00a628ef00e2
:101080000080fa003400f9004f03be004f02be009a
:101090004f01be004f00be003600f90000400600c0
:1010a0003400f800881f780008002000a80188009c
:1010b0004f0478000000fa008020a9000080fa00a8
:1010c0003400f900004006003400f800881f780062
:1010d00008002000a80188004f0478000000fa00f2
:1010e0008060a900ffff37003400f800881f7800f7
:1010f00008002000a80188004f0478000000fa00d2
:101100008040a900ffff37003400f800881f7800f6
:1011100008002000a80188004f0478000000fa00b1
:101120008080a900ffff37003400f800881f780096
:1011300008002000a80188004f0478000000fa0091
:101140008020a900ffff37003400f800881f7800d6
:1011500008002000a80188004f0478000000fa0071
:101160008060a900ffff37003400f800881f780076
:1011700008002000a80188004f0478000000fa0051
:101180008040a900ffff37003400f800881f780076
:1011900008002000a80188004f0478000000fa0031
:1011a0008080a900ffff37000040da000000fe0049
:1011b0001e00fc00881f78008a1f78004400f80099
:1011c000080f2000280288000004900010059000fd
:1011d000a000900030019000c00190000300ca0000
:1011e0000280ca000030cb001a00cd004604c300c4
:1011f0000100ca004604c0001e04c0000605c0006d
:101200000100cd0021009800050d7800eaba970092
:10121000052578004400f9004f0578004f04780058
:10122000000006000e00fc00801f780020009000e7
:101230000008eb004f007800801f7800100090003d
:101240000018eb000018eb000008eb004f007800de
:10125000000006001500fc004400f800020f20000a
:1012600022028800910078003000ca003080ca0055
:101270000000cb002080ca000000cb003100cd0070
:101280004000ca000000cb000000cb000010cb00e3
:101290003100cd001180cc004400f90000000600b0
:1012a00003f0a200889fbe008a9fbe008c1f7800ba
:1012b000c9000700d00033006450e1004f00320045
:1012c0006420e1005200320003826c0007003b0002
:1012d0000905d0000306d000820f54000c065d0003
:1012e000020039000200320089017800030678000c
:1012f0008582550004003d000003fd008103fd00d0
:101300008502ea008b854200840f720002003b00d8
:1013100060001000e08018006011b8000005eb00cc
:101320007a28e1000a00390006007800c75ddd0078
:10133000f707b200878075002d00370082817100a9
:101340000a017800610560008180d1000080d3002f
:101350008502e900f9ff3b0006044000878448004d
:1013600002003b0060041400e0841c000988a30014
:10137000070032008a81710082817100610164007e
:101380008904d1000884d3008b05e80017003700da
:101390000978a30013003a000b00e00013003400aa
:1013a0008b05e9000804440089844c000a44740059
:1013b0000978a3000d003a000b00e000070034009c
:1013c0008b05e9000804440089844c0001003a00c0
:1013d0000b0020000978a300f7ff32000001eb00aa
:1013e00002003700828171000a0178003f00070087
:1013f0000cf0a70001f0a000880037006420e10095
:1014000002003a00838f6c00880033000801be00a0
:101410000200be0081003700839f68000100e000e9
:1014200002003d0060001000e08018000300e000b2
:1014300002003d0060011100e08119007e000700fc
:101440004f00e00002003b0060001000e080180048
:101450000000060014002000870037000001be00d5
:10146000480007000470a70003f0a1006509b1005f
:10147000160032000d0035006828e1000600350036
:10148000f0ff2f00f1ff27000300e00013003b00f6
:101490000100280000000500000040008180480095
:1014a0008502e900fcff3a0008003700f88f42008f
:1014b00002003c008000eb00000005008100d1002c
:1014c0000080d3008502e800fcff3a000300e00042
:1014d00002003b0060001000e080180000000600e1
:1014e0004f89de00820178007e00370081002000f5
:1014f000618055000b003d000b00200061fe2f00b5
:101500000100e1001d00340082817100610164006e
:101510008904d1000884d3000000e800faff3a00f3
:101520007100200061006400030070000200600090
:101530000900320061044400e0844c000988a500e1
:10154000050032008b05e8006808e10002003a005f
:101550008904d1000884d300f20f20000258e10072
:1015600005003d00c75ddd00f907b2008980750008
:1015700008007800000006000bf827008b007800b8
:1015800000000500c70ade00f107b200f50fb20047
:1015900008003200e1cf4200020032000170a000da
:1015a00024000500810f70000100320004080500ce
:1015b00044000500810f700002003a00140005008d
:1015c0008502e9000000400081c04800fcff3b00ac
:1015d0000170a000240005000004be00e9ff070020
:1015e0000003be000405be000200be00e5ff0700c8
:1015f000844f7500000006000200be006450e10048
:10160000050036006420e100020036000968a300ee
:1016100001003a000800be000160a0004f067800fb
:101620004f05be004f04be0000000600f0ff2f0073
:10163000f1ff2700f9ff37006022b8000602200002
:101640000000d0008180d2000482d2008582d200c6
:101650000000a0000202520083825a000300310001
:101660000202420083824a000000a1000603e90052
:10167000f3ff3a0000000600889fbe008a9fbe006c
:10168000841f7800d4ff07004f007800110033005a
:10169000f0ff2f00838f6c0006003b0004056500ff
:1016a0000a00a7000800370009f0a600100020007b
:1016b00008003700820f5400838f5c00030039005c
:1016c0001000200001003e000000200009f0a700eb
:1016d0000000ea004f05be004f04be000000e0001d
:1016e00000000600881f7800030478000300e00073
:1016f00007003d0060001000e08018006001190044
:10170000e081190002003b0001f02d0003003700ca
:101710000400070008f0a70001f0a0004f047800c3
:1017200000000600889fbe008a9fbe0000827000f5
:101730000402710004827100260032000004be0021
:101740000200be006011b8006b0920009502200065
:101750000182cf000a0039000541b1000082cf00ac
:10176000070039000541b1000982cf0004003900ab
:101770000541b1000882cf00010039000541b100e8
:1017800005425200120032000a003b0082817100c3
:10179000610164008100d1000080d3008984d300fe
:1017a0000884d3008b05e8000442e800f7ff3a0004
:1017b000070037000804440089844c0000004800fa
:1017c000818048008b05e9000442e900f9ff3a00f6
:1017d00046ff07004f05be004f04be000000060094
:020000040000fa
:1017e000000000006400000000000000e8030000aa
:1017f000f4010000641900000a000000f401000078
:10180000f40100008813000000000000ffff00004a
:10181000000000001400000000000000007d000037
:1018200000000000ffff0000000000001e0000009c
:1018300002000000140000006400000084030000a7
:0818400000000000140000008c
:020000040000fa
:101848000600fa009e68a900ca01a800c0428000ec
:10185800e20f50000b013200e20f500005003e007d
:101868000000e00008003200e10f5000fc003200e8
:1018780094013700e30f50000a003200e40f5000d3
:10188800670032008f013700d1a2a900d621ef00ee
:10189800d821ef00da21ef006628ef006828ef0072
:1018a8009001370032438000434380007046800037
:1018b8008000eb00000151008181590080468000c2
:1018c8008000eb00009ab90004027800028bb9008e
:1018d80086027800050242000013b8001607980037
:1018e80027079800ae0390000702420024079800db
:1018f800823e20001e029000ae02900011000900f6
:1019080042aad8005049880050498000fe0f500074
:1019180002003600e001200050498800504980004c
:101928000000e00002003a005428ef0020003700d1
:10193800704680006101b800304380004143800058
:10194800800f5100818f590017003100d1a2a800e3
:10195800504980006101b8007049800081498000c9
:10196800009ab90004027800028bb9008602780058
:10197800050242000013b8001607980027079800d0
:10198800ae03900007024200240798008216200048
:101998001e029000ae0290001100090042aad80071
:1019a800a042880002003700d1a2a9005428ef0005
:1019b800404880002103200080804000604980006a
:1019c800808f500003003100904980000000e8003b
:1019d8009049880040488000e1fc2f00808040004a
:1019e80060498000808f50000300360090498000d5
:1019f8000000e9009049880090498000f40f5000e9
:101a0800020034009e28a8003229ef009049800087
:101a1800f40f400002003d009e28a9003229ef0083
:101a28002e29ef003029ef000000eb00000f7800ae
:101a38000d0037001e00780080004000e08720007d
:101a480000804000100078006101b80070498000f3
:101a58008149800002004000838048007049880066
:101a6800814988001e0fe8001e007800ef0f500023
:101a7800f0ff36007049800081498000cd0add0002
:101a88004300de0000807200c308de007049880051
:101a980081498800704980008149800000017800f0
:101aa80006442d00171c20001607980027079800e9
:101ab8001e029000ae0290001100090042aad80050
:101ac8004300de0060498800364880006049800095
:101ad8008000eb00820720000289b900020178002b
:101ae8006002b900840178000301410083072000e7
:101af8000302b8001407980025079800ae0290006a
:101b080005014100220798001e019000ae019000d7
:101b1800110009004699d8008000eb003043880086
:101b280041438800f14480000002200000806000ea
:101b38000000e0002f0032001045800010478800a8
:101b4800304380004143800000007800004788004f
:101b5800a08d200094fd0700f04680000000e00002
:101b680001003d00de28ef00f146800070eb270001
:101b7800808f50000500340040b82000b00e880067
:101b880070eb2700f046880015003700f04680000b
:101b9800cf80de0042b820000289b9000201780037
:101ba8006002b900840178000301410043b82000b5
:101bb8000302b8001407980025079800ae029000a9
:101bc800050141002207980072eb27001e029000d1
:101bd800ae0290001100090042aad800b00e880099
:101be800b00e8000c00e8800b00e8000d00e8800b5
:101bf800bc003700f1448000000420000080600031
:101c08000000e000b4003200104280008000eb00c9
:101c180042b820000289b900020178006002b900c8
:101c2800840178000301410043b820000300b80094
:101c38000101410082007800f23f200003002000eb
:101c48007bfe070000007800b00e8800b00e800010
:101c5800c00e8800b00e8000d00e8800a1003700aa
:101c6800a3000700804280000080d1002043880044
:101c780020002000c04288003229ef009e28a900d9
:101c880098003700d0428000e10f50002000320059
:101c9800e10f500005003900e20f50003500320016
:101ca800e30f50003e00320083003700804580007b
:101cb800b00e8800b00e8000c00e8800b00e800004
:101cc800d00e8800a04580000000e900a0458800eb
:101cd800a04580000000e0000c003a00304280007f
:101ce8000000e8003042880030428000e50f5000d4
:101cf800010034004628ef003042800059fc0700fc
:101d0800d04280000000e800d04288006c00370014
:101d180090458000b00e8800b00e8000c00e88008c
:101d2800b00e8000d00e8800b04580000000e900a9
:101d3800b0458800b04580000000e0000c003a0083
:101d4800304280000000e8003042880030428000c5
:101d5800e50f5000010034004628ef0030428000b3
:101d680040fc0700d04280000000e800d042880014
:101d7800530037003429ef00c0458000b04988007f
:101d8800f0458000c0498800f0458000d0498800af
:101d9800d04280000000e800d042880048003700a8
:101da800a1498000e245800010c0b300828f500036
:101db800010031000040eb008100e800a1498800e3
:101dc8000004e000080032005a28ef00300020002c
:101dd800c042880021e1a9008ec0a9008460a90042
:101de8008c60a80033003700a149800010468000ad
:101df80080027800110009008580d8008000fd006d
:101e08000000e00003003a00b04980000000e8004c
:101e1800b0498800b0498000b00e8800b00e80003c
:101e2800c00e8800b00e8000d00e8800a149800046
:101e38002046800000037800110009008680d80041
:101e48008000fd000000e00006003a00c049800064
:101e58000000e900c0498800d04980000000e9007e
:101e6800d0498800c149800010c0b3000100e000db
:101e7800010034000040eb008100e900c1498800fe
:101e88000004e0000b003200d0498000c0498800ff
:101e9800304280000000e800304288003042800074
:101ea800e50f5000010034004628ef003042800062
:101eb800ecfb0700020037005a28ef000000000082
:101ec80008003700c0428000e40f500004003600cc
:101ed8005828ef0003003700000000000100370019
:101ee80000000000ca01a9000080fa0000000600f6
:101ef8000200fa00915f840030478000808f500014
:101f080002003100905f840030478800915f8400b0
:101f180040478000808f500002003100905f8400ad
:101f280040478800915f840070478000808f500090
:101f380002003100905f840070478800915f840040
:101f480080478000808f500002003100905f84003d
:101f580080478800915f840020488000808f50006f
:101f680002003100905f840020488800b15f84003f
:101f780050478000808f500002003100b05f84001d
:101f880050478800b15f840060478000808f500010
:101f980002003100b05f840060478800c15f8400a0
:101fa80090478000808f500002003600c05f840098
:101fb80090478800d15f840090478000808f500050
:101fc80002003100d05f840090478800e15f840000
:101fd800a0478000808f500002003600e05f840038
:101fe800a0478800f15f8400a0478000808f5000e0
:101ff80002003100f05f8400a0478800016084007f
:10200800b0478000808f50000200360000608400d6
:10201800b047880011608400b0478000808f50006e
:102028000200310010608400b047880071608400ad
:10203800e0478000808f500002003100706084000b
:10204800e047880071608400f0478000808f50006e
:102058000200310070608400f047880071608400dd
:1020680000488000808f50000200310070608400ba
:102078000048880031608400c0478000808f50008d
:102088000200310030608400c0478800516084003d
:10209800d0478000808f50000200310050608400db
:1020a800d04788009160840010488000808f5000dd
:1020b800020031009060840010488800b1608400fc
:1020c80020478000808f500002003100b0608400fb
:1020d80020478800c160840030488000808f50000d
:1020e80002003600c060840030488800d160840057
:1020f80030488000808f500002003100d06084009a
:1021080030488800e160840040488000808f50009b
:1021180002003600e060840040488800f1608400d6
:1021280040488000808f500002003100f060840039
:10213800404888000161840050488000808f50002a
:102148000200360000618400504888001161840054
:1021580050488000808f50000200310010618400d8
:1021680050488800304780008000eb0042b82000cb
:102178000289b900020178006002b9008401780080
:102188000301410043b820000300b80001014100e9
:1021980082007800420620000300200024fd07008a
:1021a8000000780080458800404780008000eb00f0
:1021b80042b820000289b900020178006002b90023
:1021c800840178000301410043b820000300b800ef
:1021d800010141008200780042062000030020002f
:1021e80013fd0700000078009045880050478000e4
:1021f8006a00b90000007800a045880060478000a8
:102208006a00b90000007800b04588007047800077
:102218008000eb0042b820000289b9000201780072
:102228006002b900840178000301410043b820002e
:102238000300b80001014100820078004206200036
:1022480003002000fafc070000007800c045880061
:10225800804780008000eb0042b820000289b90066
:10226800020178006002b90084017800030141008e
:1022780043b820000300b800010141008200780043
:102288004206200003002000e9fc07000000780057
:10229800d0458800904780006a00b90000007800a7
:1022a800e0458800304880006101b800a047800000
:1022b8008000eb00009ab90004027800028bb90094
:1022c80086027800050242000010b80001024200b0
:1022d800840078000001be0000d4200031002000f6
:1022e800d3fc070000007800f045880030488000e3
:1022f8006101b800b04780008000eb00009ab90087
:1023080004027800028bb9008602780005024200b8
:102318000010b80001024200840078000001be00ed
:1023280000d4200031002000c1fc07000000780024
:1023380000468800f145800000468000808f5000ec
:1023480003003100004680000080e800f045880066
:10235800e1458000f2458000004680000000510001
:1023680000017800110009008280d8000000e80010
:1023780020468800d1458000c0458000808f5000ed
:1023880003003100c04580000080e800d045880087
:10239800e1458000d2458000c04580000000510022
:1023a80000017800110009008280d8000000e800d0
:1023b80010468800304880006101b8004318dd00ed
:1023c800cd10de00810070004310dd000001be006a
:1023d80000f02b00d196260095fc070030468800b7
:1023e80041468800c04780004a00de000000e8003f
:1023f80050468800d047800060468800104880001a
:10240800704688002047800080468800c0478000ca
:1024180090468800e0478000a0468800f04780008a
:10242800b046880000488000c0468800c08320006d
:10243800d046880060bd2000e0468800a18d2000bd
:10244800408d200081fb07000000eb00000f7800a2
:10245800070037001e0078008000400060bd2000a3
:10246800008040008000eb00010878001e0fe800a3
:102478001e007800e20f5000f6ff3e00c0428000c8
:10248800e10f500012003a00204880008000eb0065
:1024980072eb27000289b900020178006002b900d6
:1024a800840178000301410073eb27000300b800a2
:1024b800010141008200780042062000030020004c
:1024c8005bfc070000007800f04688000100370038
:1024d800de28ef000000eb00000f78001a0037003c
:1024e800304880006101b800a04780008000eb0000
:1024f800009ab90004027800028bb90086027800bd
:10250800050242000010b800010242008400780071
:102518004309dd00cd01de00830171004301dd00c8
:1025280000f02b00d196260041fc070080007800bf
:102538001e00780000014000e087200000004100f4
:10254800010878001e0fe8001e007800ef0f500009
:0c255800e3ff36000080fa0000000600df
:020000040000fa
:102564003e090000240000000200000002001e00da
:102574000800ff00dc0be2000b00000002001e005c
:102584000800ff00e80bee000b00000002001e0034
:102594000800ff00f40bfa000b0000000008000024
:1025a4003c000000020000004b02960004de5500cf
:1025b4004b02f600e03d02007a041e00663d020074
:1025c400f9ce54000e540e007a28000000000000da
:1025d400440589000a253e004405c800ec84050032
:1025e400080b4a004f840500d3d5810015811500de
:1025f400b41c000000000000dc0b000024000000fc
:1026040000000000420800006e000000000000000e
:102614000c0900001e00000002000000ffff020081
:102624000004000003000000000100000500ff009a
:10263400ff0006000012000018000900002100003d
:1026440024030000b0080000360000000000000071
:102654003c0800000600000000000000d60b00004b
:102664000600000000000000e6080000260000004c
:1026740002000000160016000090010090012f00d7
:1026840000340000e803960000340800401f0400f2
:1026940000401f000807f8002a10270034000e002d
:1026a40000fa00000a0000002a09000012000000dd
:1026b400000000003c0900000200000000000000cf
:0426c4000000000012
:020000040000fa
:1026c8000400fa009ec8a8009ea8a80010002000d8
:1026d80090168800cc22ef00d022ef00d622ef001f
:1026e8000080eb00f0168800013a800000f2230019
:1026f80000806000003a88000000eb001007980096
:1027080019003700d1a2a9000000eb00000f7800e3
:102718000400370000dd2700610120001d010700cb
:102728001e0fe8001e007800e20f5000f9ff340089
:10273800d1a2a8000000eb00000f780004003700c9
:1027480000dd270061012000120107001e0fe800cc
:102758001e007800e20f5000f9ff34001e009000c0
:102768000000e800100798001e009000e40f5000d9
:10277800e4ff3400d1a2a900000128002008880045
:1027880000012000f00888001421ef0086a0a900ad
:102798008ea0a9001fe1a800000120000009880000
:1027a8001821ef0086c0a9008ec0a900e600070026
:1027b800d1000700b9000700e09320007900070066
:1027c800a09420007700070060952000750007009e
:1027d8005828ef000100370000000000f044800096
:1027e800680060000000e000fbff320014fc0700f6
:1027f800faff37000400fa00881f7800000028005c
:10280800601088000e22ef00c0712e00f11624001f
:10281800008fbe001e00be000efb070000007800ff
:10282800cf80de002cfb07000001be001e00be00aa
:1028380099fa070018c0b3000200200003f0230033
:1028480002fb07000000e000010035000044eb0037
:102858000804e000050032001e00be00fdfa070073
:1028680000007800a0108800050037001e00be0098
:10287800f8fa0700000078000000e800a0108800bf
:102888000f42a8004f0478000080fa0000000600fc
:102898000200fa00000f78000b003700000000006b
:1028a8007110800000202000008060000000e0001f
:1028b800fbff3a001e007800104078000000fb0083
:1028c800801088001e0fe8001e0078001040780075
:1028d8000004e000f1ff3a000080fa000000060062
:1028e800881f7800891f78008a1f78008b1f78005e
:1028f8004400f8003400f8002005900008f02f008c
:102908000a40e10003003200480f2000aa018800b5
:1029180001003700080f20002802880000029000fc
:10292800d00490008301e90003800800150000002e
:10293800100490003103780030059000c005900025
:10294800b80278009a00ca00048008000a00000053
:102958005210c4009b80ca008707cd005290c40063
:102968005290c500ba87cd005390c4008607cd00a9
:102978009a00ca005290c500bb87cd000600ca0065
:102988000900c8003200cd003400f9004400f90005
:10299800cf0578004f057800cf0478004f04780001
:1029a80000000600b0009000400190000000900078
:1029b80000800800010000008018eb000019eb00ff
:1029c800000006000200fa009e88a9007116800027
:1029d80000002400008060000000e0000a003a00c7
:1029e8001e007800610060000000e00006003a0068
:1029f8009e08a9001e0078000000a000000f7800c3
:102a080010002000c04288007116800000002200db
:102a1800008060000000e00006003a005828ef003f
:102a28009e08a9005a28ef001e0078000010a00098
:102a3800000f78001e007800610060000000e000d0
:102a48000800320071168000000024000080600039
:102a58000000e000030032001e0078000000a10022
:102a6800000f78001e007800620060000000e0009f
:102a7800080032007116800000002200008060000b
:102a88000000e000030032001e0078000010a100e2
:102a9800000f78000080fa00000006000000fa002d
:102aa80042e1a800100a80000050a1000060a100c7
:102ab800100a88008420a9008c20a800100a800031
:102ac8000000a0000010a1000020a100100a88004a
:102ad8000080eb00600888001021ef00800880006b
:102ae8000040a0000050a1008008880011e1a80063
:102af8000080fa00000006000000fa00a842a900c1
:102b0800a802a900a862a900a882a900a8a2a900f1
:102b1800400e200000158800004120001015880094
:102b280090c0200020158800b003200050158800b0
:102b3800a622ef008560a9008d60a800a1e2a80088
:102b48000080fa00000006000000fa00d421ef001f
:102b5800205c2000200e880070772000400e88003e
:102b6800a0032000600e8800d021ef00d621ef00de
:102b7800d821ef00da21ef00c621ef00000028007d
:102b8800000e880088e0a90090e0a8000080fa0004
:042b98000000060033
:020000040000fa
:102b9c00f03fb1000180b10006003500ee030900e2
:102bac0000000000403fb1000180b100fbff3d0080
:102bbc001000b000203fb00002003500008009007a
:082bcc000000000000000600fb
:020000040000fa
:0200000401f009
:04000000e7bf000056
:020000040000fa
:0200000401f009
:04000400ff7f00007a
:020000040000fa
:0200000401f009
:04000800ff7f000076
:020000040000fa
:0200000401f009
:04001400ffff0000ea
:020000040000fa
:0200000401f009
:04001800ffff0000e6
:00000001FF
