:020000040000fa
:080000000001040000000000f3
:020000040000fa
:100008003c090000bc080000cc080000dc08000027
:10001800ec0800003c0900003c0900003c09000015
:100028003c090000f20700003c09000058020000eb
:100038003c0900003c0900003c0900003c090000a4
:100048003c0900003c0900003c0900009a0100003e
:100058003c0900003c0900003c0900003c09000084
:100068003c0900003c0900003c0900003c09000074
:100078003c0900008a020000ce0200003c09000092
:100088003c0900003c0900003c0900003c09000054
:100098003c0900003c0900003c0900003c09000044
:1000a8003c0900003c0900003c0900003c09000034
:1000b8003c0900003c0900003c0900001403000052
:1000c8003c0900003c0900003c0900003c09000014
:1000d8003c0900003c0900003c0900003c09000004
:1000e8003c0900003c0900003c0900003c090000f4
:0800f8003c0900003c09000076
:020000040000fa
:100108003c090000fc0800000c0900001c09000064
:100118002c0900003c0900003c0900003c090000d3
:100128003c090000f20700003c09000058020000ea
:100138003c0900003c0900003c0900003c090000a3
:100148003c0900003c0900003c0900009a0100003d
:100158003c0900003c0900003c0900003c09000083
:100168003c0900003c0900003c0900003c09000073
:100178003c0900008a020000ce0200003c09000091
:100188003c0900003c0900003c0900003c09000053
:100198003c0900003c0900003c0900003c09000043
:1001a8003c0900003c0900003c0900003c09000033
:1001b8003c0900003c0900003c0900001403000051
:1001c8003c0900003c0900003c0900003c09000013
:1001d8003c0900003c0900003c0900003c09000003
:1001e8003c0900003c0900003c0900003c090000f3
:0801f8003c0900003c09000075
:020000040000fa
:100200000f9620006ebc20000e0188000000000048
:10021000000020000000e000020032000001200089
:10022000200288000c000700203621000100200079
:1002300011000700000020000000e0000200320072
:1002400000000200000000007e1502000000000017
:100250000040da000000fe004440a90040032000f6
:100260000000e0000300320000002000a001880030
:100270004440a8000000060091018800800078003a
:100280000000eb0015003700e280400032a0b4000f
:100290009101ba00e280400032a0b4009102ba009d
:1002a000e280400032a0b4000002eb00472bde00e9
:1002b000f507b200602ce10004003a000059eb00a1
:1002c0008301e900fdff3e00040037006128e100e2
:1002d000010032000082eb00040007001101ba00a7
:1002e0000200e000e8ff3a00000006003159ba00c1
:1002f0008301e9000c0032002159ba008301e900b2
:10030000080032000400e00003003a00e2804000f0
:1003100032a0b400f5ff370011d9ba008301e9001b
:10032000faff3a008100e800e180400032a0b4000a
:10033000000006003600f800809fbe00829fbe00cd
:10034000849fbe00869fbe003400f800000020009d
:10035000a00188000200fa008560a90034498000ed
:10036000e00f52000a003200344980000402e90024
:10037000344988005443800054428800644380001c
:10038000644288007443800074428800060037008d
:100390002414800054428800341480006442880091
:1003a00044148000744288008442800084027800f3
:1003b00014148000048242000402d10084428800a8
:1003c000c4428000050020004600200007002000f5
:1003d000860f5200878f5a0026003e0004600100fd
:1003e0000400370023003700200037001f003700cb
:1003f000030037000002eb00a40e88002400370041
:10040000a41680004822de006702620024428800b1
:100410002442800084024200a49020000482420012
:1004200014027800344288001e0fe8003442800035
:10043000e10f420003003a001e027800e30f520071
:10044000efff34003542800044428000848f520028
:10045000060032003442800004007800b102070038
:100460000002eb00a408880086a0a9009100070004
:1004700007003700c4428000e40f5200030036003a
:100480000002eb00c44288000100370000000000b9
:100490000080fa003400f9004f03be004f02be0096
:1004a0004f01be004f00be003600f90000400600bc
:1004b000849fbe00861f78003400f80004002000ee
:1004c000a40188000000fa008460a9009542800021
:1004d0004648800014c0b300868f520001003100ee
:1004e0000042eb008502e80095428800e04f520090
:1004f000030032008c60a9000002eb00c4428800b7
:100500000080fa003400f9004f0378004f02be006b
:10051000004006003600f800809fbe00829fbe00ab
:10052000849fbe00869fbe003400f80000002000bb
:10053000a00188000000fa000002eb00a408880077
:1005400086a0a900c4428000e30f52000b003a00cd
:10055000344280000402e8003442880034428000c3
:10056000e50f5200020034000002eb003442880024
:1005700034428000040078006a0207000080fa001c
:100580003400f9004f03be004f02be004f01be0011
:100590004f00be003600f900004006003600f800ab
:1005a000809fbe00829fbe00849fbe00869fbe00cb
:1005b0003400f80000002000a00188000000fa00cc
:1005c00021e1a9000002eb00c40888000002eb0052
:1005d000a408880086a0a90086c0a9008ec0a90032
:1005e0000002eb0094428800c4428000e30f5200f6
:1005f00005003a0084438000344288003442800081
:1006000004007800470207000080fa003400f90077
:100610004f03be004f02be004f01be004f00be00a0
:100620003600f90000400600849fbe003400f80048
:1006300004002000a40188000000fa0088e0a9005e
:10064000f44280000402e800f4428800f542800091
:10065000740c2000848f5200030036000002eb006f
:10066000f44288009e88a800e44280000402e8006a
:10067000e4428800e4428000f30f52000300360099
:100680000002eb00e44288009e68a800c44280009b
:10069000e20f520003003a00e44280006902420087
:1006a000e44288000080fa003400f9004f02be00e6
:1006b000004006000600fa0054458000e50f520095
:1006c0000d003e00e4812000f44988001300200062
:1006d000c2862000c1842000809420009608070074
:1006e00013002000e2862000e184200040952000d5
:1006f000910807000200370004802000f4498800b8
:1007000013002000a2862000a1842000c0932000b6
:10071000890807008542800024002000110009009c
:100720008402d800000278008402780064458000ca
:100730000482420024438800554380002443800003
:10074000048252006123b9000443800015438000f5
:100750000602420087824a0004438800154388004d
:100760000443800015438000432bdd004d22de0052
:1007700004027300cdaade000402780064458800fc
:1007800054458000e50f520004003e00a442800062
:10079000e417b0001407980003003700a44280005b
:1007a000c416b000140798005445800005002000ce
:1007b0009600200007002000860f5200878f5a0005
:1007c000bb013e000460010009003700340037001f
:1007d0005f0037008a003700c9003700f400370097
:1007e0001e013700240137005d0137006301370027
:1007f0005543800024438000848f5200b0013d00a7
:10080000544580000508800004034200248720002e
:1008100004024300050a78000002eb000408880087
:10082000ce01070000027800040f78001e0290003d
:100830009e027800848f5200020031001e0090005a
:10084000000f78001e0290001e021200e4088800cb
:10085000340020008443880021e1a8008ec0a80055
:10086000b44280006f0362001e0278006622b90065
:100870008402780006034300e4872000040243005a
:10088000050a7800b44280000402e800b4428800ff
:10089000544580000402e800544588009f01370059
:1008a0007543800024438000848f52008601340009
:1008b000544580000508800004034200248720007e
:1008c00004024300050a78000002eb0004088800d7
:1008d000a201070000027800040f78001e029000b9
:1008e0009e027800848f5200020031009e0090002a
:1008f000010f78001e0290001e021200e40888001a
:10090000440020008443880021e1a8008ec0a80094
:10091000b44280006f0362001e0278006622b900b4
:100920008402780006034300e487200004024300a9
:10093000050a7800b44280000402e800b44288004e
:10094000544580000402e8005445880073013700d4
:100950006543800024438000848f52005c013d0089
:1009600054458000050880000403420024872000cd
:1009700004024300050a78000002eb000408880026
:100980007601070000027800040f78001e02900034
:100990009e027800848f5200020031001e029000f7
:1009a000040f78001e0290001e021200e408880066
:1009b000540020008443880021e1a8008ec0a800d4
:1009c000b44280006f0362001e0278006622b90004
:1009d0008402780006034300e487200004024300f9
:1009e000050a7800b44280000402e800b44288009e
:1009f000544580000402e800544588004701370050
:100a00005543800024438000848f5200320134001b
:100a1000544580000508800004034200248720001c
:100a200004024300050a78000002eb000408880075
:100a30004a01070000027800040f78001e029000af
:100a40009e027800848f5200020031001e03900045
:100a5000060f78001e0290001e021200e4088800b3
:100a60000002eb008443880021e1a8008ec0a800aa
:100a7000b44280006f0362001e0278006622b90053
:100a80008402780006034300e48720000402430048
:100a9000050a7800b44280000402e800b4428800ed
:100aa000544580000402e80054458800f444800066
:100ab00062026200e00f520009013200640020006f
:100ac000544588000002eb00a40888001e0278004c
:100ad00004024200d408880086a0a9008ea0a800c5
:100ae0009e48a800a1e2a900d40020005415880067
:100af0008440200014158800a1e2a80007013700f7
:100b00007543800024438000848f5200f6003d002e
:100b1000544580000508800004034200248720001b
:100b200004024300050a78000002eb000408880074
:100b30000a01070000027800040f78001e029000ee
:100b40009e027800848f5200020031001e00900047
:100b5000000f78001e0290001e021200e4088800b8
:100b6000140020008443880021e1a8008ec0a80062
:100b7000b44280006f0362001e0278006622b90052
:100b80008402780006034300e48720000402430047
:100b9000050a7800b44280000402e800b4428800ec
:100ba000544580000402e80054458800db0037000b
:100bb0006543800024438000848f5200cc003400c1
:100bc000544580000508800004034200248720006b
:100bd00004024300050a78000002eb0004088800c4
:100be000de00070000027800040f78001e0290006b
:100bf0009e027800848f5200020031009e00900017
:100c0000010f78001e0290001e021200e408880006
:100c1000240020008443880021e1a8008ec0a800a1
:100c2000b44280006f0362001e0278006622b900a1
:100c30008402780006034300e48720000402430096
:100c4000050a7800b44280000402e800b44288003b
:100c50000002eb0054458800b000370034428000a9
:100c6000e20f5200a4003a00544580000402e8005c
:100c700054458800a9003700554380002443800074
:100c8000848f52009e003d00b44280006f026200db
:100c90000508800004034200e487200004024300aa
:100ca000050a78000002eb0004088800b4428000c6
:100cb0006f02620084024200e48720000482420046
:100cc00094027800b44280000402e9006f026200de
:100cd00004034200e4872000040243001402780069
:100ce0000482420024079800ae02900064002000b5
:100cf000110009008482d80000027800d40888001e
:100d00002e029000c222de001e029000848f52004c
:100d1000030031000002eb00d40888000500370012
:100d20002e029000c222de001e02900004825200b9
:100d3000d4088800b44280000402e800b44288006d
:100d4000440020008443880021e1a8008ec0a80050
:100d5000544580000402e800544588006f003700c5
:100d600034428000e50f520067003a00544580008d
:100d70000402e800544588006800370055438000ad
:100d800024438000848f520061003400b44280000c
:100d90006f0262000508800004034200e48720001f
:100da00004024300050a78000002eb0004088800f2
:100db000b44280006f02620084024200e487200097
:100dc0000482420094027800b44280000402e900e8
:100dd0006f02620004034200e48720000402430023
:100de000140278000482420024079800ae029000aa
:100df00064002000110009008482d80000027800fd
:100e0000d40888002e029000c222de001e0290004c
:100e1000848f5200030031000002eb00e4088800d8
:100e2000050037002e029000c222de001e02900054
:100e300004825200e4088800b44280000402e80002
:100e4000b4428800140020008443880021e1a800f7
:100e50008ec0a8006400200054458800f44480003f
:100e600062026200e00f52002b003a0044002000b2
:100e7000544588000002eb0084438800d4088000b9
:100e80008402d1001e02900004825200e40888000f
:100e90008ea0a900a1e2a900d40320005415880067
:100ea0000441200014158800a1e2a8001b003700af
:100eb0000002eb00544588000000000017003700d6
:100ec000000000001500370000000000130037008c
:100ed0000000000011003700000000000f00370084
:100ee000000000000d003700000000000b0037007c
:100ef0000000000009003700000000000700370074
:100f0000000000000500370000000000030037006b
:100f10000000000001003700000000000080fa001f
:100f2000000006000200fa00000f78001e027800a0
:100f300084024200a491200004824200140278003e
:100f4000a40e88001e0278004442880054468000a7
:100f5000344988000080fa00000006000600fa000c
:100f60006022b80014079800250798000002eb00e3
:100f7000040f78000d0037001e0278008402420042
:100f8000248720000482420014027800050020001b
:100f90001e039000ae0390000602420087824a00c2
:100fa00014079800250798001e0fe8001e0278001d
:100fb000e50f5200f0ff36001e029000ae029000d6
:100fc000c60020001100090046aad80000027800df
:100fd000040f78001e027800040078000080fa00f8
:100fe000000006003600f800809fbe00829fbe0011
:100ff000849fbe00869fbe003400f80000002000e1
:10100000a00188000000fa008420a9000002eb0083
:1010100034088800a416800061026200e00f5200cc
:101020004d003200040a80006123b800b4478000fc
:101030000500200004b8b9000000780006a9b90036
:101040008200780001004000060378000402780066
:101050000432b8000500400080027800c25f2d0015
:10106000030020000400be001f0107000002be00b4
:10107000040278002445880025458000f49a200069
:10108000848f520012003e00049b200024458800fb
:10109000344580000402e80034458800354580006e
:1010a00014032000848f52002b003600c4428000bd
:1010b000e30f520028003a000002eb00c44288000f
:1010c0009e08a9000002eb00d442880022003700ed
:1010d00025458000f49a2000848f520013003600ca
:1010e00025458000f49f2000848f52000f003e00b1
:1010f000444580000402e8004445880045458000de
:1011000014032000848f520005003600c442800082
:10111000e00f520002003a0014002000c442880090
:101120000002eb00344588000b00370025458000a5
:10113000b4478000848f520003003600b44780001b
:1011400024458800040037000002eb003445880085
:101150000002eb00444588000080fa003400f900ea
:101160004f03be004f02be004f01be004f00be0045
:101170003600f900004006003400f800881f7800af
:1011800008002000a80188004f0478000000fa0041
:101190008020a900ffff37003400f800881f780086
:1011a00008002000a80188004f0478000000fa0021
:1011b0008060a900ffff37003400f800881f780026
:1011c00008002000a80188004f0478000000fa0001
:1011d0008040a900ffff37003400f800881f780026
:1011e00008002000a80188004f0478000000fa00e1
:1011f0008080a900ffff37003400f800881f7800c6
:1012000008002000a80188004f0478000000fa00c0
:101210008020a900ffff37003400f800881f780005
:1012200008002000a80188004f0478000000fa00a0
:101230008060a900ffff37003400f800881f7800a5
:1012400008002000a80188004f0478000000fa0080
:101250008040a900ffff37003400f800881f7800a5
:1012600008002000a80188004f0478000000fa0060
:101270008080a900ffff37000040da000000fe0078
:101280001e00fc00881f78008a1f78004400f800c8
:10129000080f20002802880000049000100590002c
:1012a000a000900030019000c00190000300ca002f
:1012b0000280ca000030cb001a00cd004604c300f3
:1012c0000100ca004604c0001e04c0000605c0009c
:1012d0000100cd0021009800050d7800eaba9700c2
:1012e000052578004400f9004f0578004f04780088
:1012f000000006000e00fc00801f78002000900017
:101300000008eb004f007800801f7800100090006c
:101310000018eb000018eb000008eb004f0078000d
:10132000000006001500fc004400f800020f200039
:1013300022028800910078003000ca003080ca0084
:101340000000cb002080ca000000cb003100cd009f
:101350004000ca000000cb000000cb000010cb0012
:101360003100cd001180cc004400f90000000600df
:1013700003f0a200889fbe008a9fbe008c1f7800e9
:10138000c9000700d00033006450e1004f00320074
:101390006420e1005200320003826c0007003b0031
:1013a0000905d0000306d000820f54000c065d0032
:1013b000020039000200320089017800030678003b
:1013c0008582550004003d000003fd008103fd00ff
:1013d0008502ea008b854200840f720002003b0008
:1013e00060001000e08018006011b8000005eb00fc
:1013f0007a28e1000a00390006007800c75ddd00a8
:10140000f707b200878075002d00370082817100d8
:101410000a017800610560008180d1000080d3005e
:101420008502e900f9ff3b0006044000878448007c
:1014300002003b0060041400e0841c000988a30043
:10144000070032008a8171008281710061016400ad
:101450008904d1000884d3008b05e8001700370009
:101460000978a30013003a000b00e00013003400d9
:101470008b05e9000804440089844c000a44740088
:101480000978a3000d003a000b00e00007003400cb
:101490008b05e9000804440089844c0001003a00ef
:1014a0000b0020000978a300f7ff32000001eb00d9
:1014b00002003700828171000a0178003f000700b6
:1014c0000cf0a70001f0a000880037006420e100c4
:1014d00002003a00838f6c00880033000801be00d0
:1014e0000200be0081003700839f68000100e00019
:1014f00002003d0060001000e08018000300e000e2
:1015000002003d0060011100e08119007e0007002b
:101510004f00e00002003b0060001000e080180077
:101520000000060014002000870037000001be0004
:10153000480007000470a70003f0a1006509b1008e
:10154000160032000d0035006828e1000600350065
:10155000f0ff2f00f1ff27000300e00013003b0025
:1015600001002800000005000000400081804800c4
:101570008502e900fcff3a0008003700f88f4200be
:1015800002003c008000eb00000005008100d1005b
:101590000080d3008502e800fcff3a000300e00071
:1015a00002003b0060001000e08018000000060010
:1015b0004f89de00820178007e0037008100200024
:1015c000618055000b003d000b00200061fe2f00e4
:1015d0000100e1001d00340082817100610164009e
:1015e0008904d1000884d3000000e800faff3a0023
:1015f00071002000610064000300700002006000c0
:101600000900320061044400e0844c000988a50010
:10161000050032008b05e8006808e10002003a008e
:101620008904d1000884d300f20f20000258e100a1
:1016300005003d00c75ddd00f907b2008980750037
:1016400008007800000006000bf827008b007800e7
:1016500000000500c70ade00f107b200f50fb20076
:1016600008003200e1cf4200020032000170a00009
:1016700024000500810f70000100320004080500fd
:1016800044000500810f700002003a0014000500bc
:101690008502e9000000400081c04800fcff3b00db
:1016a0000170a000240005000004be00e9ff07004f
:1016b0000003be000405be000200be00e5ff0700f7
:1016c000844f7500000006000200be006450e10077
:1016d000050036006420e100020036000968a3001e
:1016e00001003a000800be000160a0004f0678002b
:1016f0004f05be004f04be0000000600f0ff2f00a3
:10170000f1ff2700f9ff37006022b8000602200031
:101710000000d0008180d2000482d2008582d200f5
:101720000000a0000202520083825a000300310030
:101730000202420083824a000000a1000603e90081
:10174000f3ff3a0000000600889fbe008a9fbe009b
:10175000841f7800d4ff07004f0078001100330089
:10176000f0ff2f00838f6c0006003b00040565002e
:101770000a00a7000800370009f0a60010002000aa
:1017800008003700820f5400838f5c00030039008b
:101790001000200001003e000000200009f0a7001a
:1017a0000000ea004f05be004f04be000000e0004c
:1017b00000000600881f7800030478000300e000a2
:1017c00007003d0060001000e08018006001190073
:1017d000e081190002003b0001f02d0003003700fa
:1017e0000400070008f0a70001f0a0004f047800f3
:1017f00000000600889fbe008a9fbe000082700025
:101800000402710004827100260032000004be0050
:101810000200be006011b8006b0920009502200094
:101820000182cf000a0039000541b1000082cf00db
:10183000070039000541b1000982cf0004003900da
:101840000541b1000882cf00010039000541b10017
:1018500005425200120032000a003b0082817100f2
:10186000610164008100d1000080d3008984d3002d
:101870000884d3008b05e8000442e800f7ff3a0033
:10188000070037000804440089844c000000480029
:10189000818048008b05e9000442e900f9ff3a0025
:1018a00046ff07004f05be004f04be0000000600c3
:020000040000fa
:1018b000000000006400000000000000e8030000d9
:1018c000f4010000641900000a000000f4010000a7
:1018d000f40100008813000000000000ffff00007a
:1018e000000000001400000000000000007d000067
:1018f00000000000ffff0000000000001e000000cc
:1019000002000000140000006400000084030000d6
:081910000000000014000000bb
:020000040000fa
:101918000200fa00d562840024478000848f5200b8
:1019280002003100d462840024478800d562840014
:1019380034478000848f520002003100d462840052
:1019480034478800d562840064478000848f520041
:1019580002003100d462840064478800d5628400a4
:1019680074478000848f520002003100d4628400e2
:1019780074478800d562840014488000848f520020
:1019880002003100d462840014488800f5628400a3
:1019980044478000848f520002003100f4628400c2
:1019a80044478800f562840054478000848f5200c1
:1019b80002003100f4628400544788000563840003
:1019c80084478000848f520002003600046384003c
:1019d800844788001563840084478000848f520000
:1019e8000200310014638400844788002563840062
:1019f80094478000848f52000200360024638400dc
:101a0800944788003563840094478000848f52008f
:101a180002003100346384009447880045638400e1
:101a2800a4478000848f520002003600446384007b
:101a3800a447880055638400a4478000848f52001f
:101a48000200310054638400a4478800b563840011
:101a5800d4478000848f520002003100b4638400b0
:101a6800d4478800b5638400e4478000848f52001f
:101a780002003100b4638400e4478800b563840041
:101a8800f4478000848f520002003100b463840060
:101a9800f447880075638400b4478000848f52003f
:101aa8000200310074638400b447880095638400a1
:101ab800c4478000848f5200020031009463840080
:101ac800c4478800d563840004488000848f52008e
:101ad80002003100d463840004488800f563840060
:101ae80014478000848f520002003100f4638400a0
:101af800144788000564840024488000848f5200bd
:101b080002003600046484002448880015648400b8
:101b180024488000848f520002003100146484003d
:101b2800244888002564840034488000848f52004b
:101b38000200360024648400344888003564840038
:101b480034488000848f52000200310034648400dd
:101b5800344888004564840044488000848f5200db
:101b680002003600446484004448880055648400b8
:101b780044488000848f520002003100546484007d
:101b880044488800244780000500200046b820000b
:101b980006abb900060378006020b900800378001e
:101ba800070343008402780044b82000042ab800e0
:101bb8000503430086027800420620000300200047
:101bc8000400be00cefe07000002be00040278003a
:101bd80074458800344780000500200046b820007e
:101be80006abb900060378006020b90080037800ce
:101bf800070343008402780044b82000042ab80090
:101c080005034300860278004206200003002000f6
:101c18000400be00bafe07000002be0004027800fd
:101c280084458800444780006a22b900040278008d
:101c380094458800544780006a22b900040278005d
:101c4800a4458800644780000500200046b82000ad
:101c580006abb900060378006020b900800378005d
:101c6800070343008402780044b82000042ab8001f
:101c78000503430086027800420620000300200086
:101c88000400be009efe07000002be0004027800a9
:101c9800b4458800744780000500200046b820003d
:101ca80006abb900060378006020b900800378000d
:101cb800070343008402780044b82000042ab800cf
:101cc8000503430086027800420620000300200036
:101cd8000400be008afe07000002be00040278006d
:101ce800c4458800844780006a22b900040278004d
:101cf800d4458800244880006123b80094478000b8
:101d08000500200004b8b9000000780006a9b90051
:101d18008200780001004000060378000402780081
:101d28000432b80005004000800278000401be00bb
:101d380000d420003100200071fe07000002be0020
:101d480004027800e4458800244880006123b80034
:101d5800a44780000500200004b8b90000007800fe
:101d680006a9b90082007800010040000603780047
:101d7800040278000432b8000500400080027800b0
:101d88000401be0000d42000310020005cfe0700e2
:101d98000002be0004027800f4458800e545800092
:101da800f4458000848f520003003100f445800020
:101db8000482e800e4458800d5458000e6458000b7
:101dc800f445800004025300110009008482d80001
:101dd800000278000402e80014468800c545800027
:101de800b4458000848f520003003100b445800060
:101df8000482e800c4458800d5458000c6458000b7
:101e0800b445800004025300110009008482d80000
:101e1800000278000402e800044688002448800094
:101e28006123b800433add00cd32de00850272003e
:101e38004332dd000401be0000f02b00d1962600dd
:101e48002ffe07000002be002446880035468800a1
:101e5800b44780004a22de000402e80044468800b5
:101e6800c4478000544688000448800064468800bf
:101e78001447800074468800b44780008446880070
:101e8800d447800094468800e4478000a446880030
:101e9800f4478000b4468800c4832000c446880004
:101ea80064bd2000d4468800818d2000208d20004c
:101eb8001afd07000002eb00040f78000700370046
:101ec8001e0278008402420064bd200004824200a1
:101ed8008002eb00050a78001e0fe8001e02780059
:101ee800e20f5200f6ff3e00c4428000e10f5200ac
:101ef80015003a00144880000500200076eb270002
:101f080006abb900060378006020b90080037800aa
:101f1800070343008402780074eb2700042ab80002
:101f280005034300860278004206200003002000d3
:101f38000400be00f2fd07000002be0004027800a3
:101f4800e4468800020037000002eb00e4468800ff
:101f58000002eb00040f78001e00370024488000c0
:101f68006123b800944780000500200004b8b90038
:101f78000000780006a9b90082007800010040003e
:101f880006037800040278000432b8000500400017
:101f980080027800432bdd00cd23de008703730029
:101fa8004323dd000601be0000f02b00d196260079
:101fb800d3fd07000002be00840278001e027800ec
:101fc80004034200e487200004024300050a780065
:101fd8001e0fe8001e027800ef0f5200dfff3600e8
:101fe8000080fa00000006000200fa009e68a900be
:101ff800ca01a800c4428000050020004600200055
:1020080007002000860f5200878f5a009f013e006c
:102018000460010004003700f900370002013700ae
:102028000c0037006a003700d1e2a9000002eb007b
:10203800b40e88000002eb00c40e88000002eb001a
:10204800d40e88006022b8003443880045438800d5
:10205800970137003643800047438000644680007c
:10206800050020000403530085835b00744680004c
:102078000500200004b8b9000000780006a9b900de
:10208800820078000100400006037800040278000e
:102098000432b8000500400080027800863e200027
:1020a8001100090046aad8000002780044498800b7
:1020b80044498000fe0f520002003600e40120006f
:1020c8004449880044498000e00f520003003a0068
:1020d8000002eb00a44288001f003700644680001d
:1020e8006123b8003443800045438000840f5300c7
:1020f800858f5b0015003100d1e2a80044498000bb
:102108006123b800644980007549800004b8b900ab
:102118000000780006a9b90082007800010040009c
:1021280006037800040278000432b8000500400075
:1021380080027800861620001100090046aad800ff
:1021480000027800a442880003003700d1e2a90009
:102158000002eb00a44288003448800025032000d8
:102168008482420054498000848f52000300310069
:10217800844980000402e8008449880034488000cb
:10218800e5fc2f008482420054498000848f52006d
:1021980003003600844980000402e900844988006d
:1021a80084498000f40f5200030034009e28a800e0
:1021b8000002eb008449880084498000f40f420043
:1021c80003003d009e28a9000002eb008449880016
:1021d8006022b80064498800754988000002eb0055
:1021e800040f78000d0037001e02780084024200b8
:1021f800e487200004824200140278006123b800ba
:1022080064498000754980000602420087824a00be
:1022180064498800754988001e0fe8001e0278008e
:10222800ef0f5200f0ff36006449800075498000c6
:102238004d2bdd004322de0004027300c32ade00ba
:1022480064498800754988006449800075498000a0
:102258000403780004442d00151c20001100090017
:1022680046aad800000278004322de0054498800bc
:10227800224880005449800005002000860720007d
:1022880006abb900060378006020b9008003780027
:10229800070343008402780084072000042ab8005a
:1022a80005034300860278001100090042aad800fd
:1022b8000002780005002000344388004543880068
:1022c800f54480000402200004826200e00f5200fe
:1022d8002d003200244580000447880034438000e4
:1022e8004543800004027800f4468800808d200071
:1022f800e1fb0700e4468000e00f520002003d00c9
:102308000002eb00e4468800e546800074eb2700f5
:10231800848f52000500340044b82000b40e8800b1
:1023280074eb2700e446880012003700e44680007a
:10233800cfa2de0046b8200006abb900060378003d
:102348006020b90080037800070343008402780006
:1023580044b82000042ab800050343008602780028
:1023680076eb27001100090046aad8000002780081
:10237800b40e8800b40e8000c40e8800b40e80002d
:10238800d40e8800ca003700f544800004042000f9
:1023980004826200e00f5200c20032001442800042
:1023a8000500200046b8200006abb90006037800f7
:1023b8006020b90080037800070343008402780096
:1023c80044b82000042ab8000503430086027800b8
:1023d800f23f2000030020000400be00c8fc0700f4
:1023e8000002be0004027800b40e8800b40e80001b
:1023f800c40e8800b40e8000d40e8800ac003700ec
:1024080043fd0700844280000482d10024438800f1
:1024180024002000c44288000002eb0084498800a0
:102428009e28a900a2003700d442800005002000a1
:102438003600200007002000860f5200878f5a00c0
:102448008e003e0004600100030037001d003700c5
:10245800370037004200370074458000b40e88000a
:10246800b40e8000c40e8800b40e8000d40e88001c
:10247800944580000402e900944588009445800052
:10248800e00f52000e003a00344280000402e800d7
:102498003442880034428000e50f520002003400c4
:1024a8000002eb00344288003442800004007800c7
:1024b8009afa0700d44280000402e800d442880057
:1024c8007100370084458000b40e8800b40e800087
:1024d800c40e8800b40e8000d40e8800a445800085
:1024e8000402e900a4458800a4458000e00f5200da
:1024f8000e003a00344280000402e80034428800aa
:1025080034428000e50f5200020034000002eb0064
:102518003442880034428000040078007ffa0700c3
:10252800d44280000402e800d442880056003700f4
:102538000002eb0094498800b4458000a449880053
:10254800e4458000b4498800e4458000c449880017
:10255800d44280000402e800d44288004a003700d0
:1025680095498000d645800014c0b300868f52007c
:10257800010031000042eb008502e800954988001f
:10258800e04f5200090032000002eb00d4428800fc
:1025980034002000c442880021e1a9008ec0a900af
:1025a8008460a9008c60a80033003700954980003a
:1025b80004468000110009008482d80001027800d6
:1025c800e00f520003003a00a44980000402e8002a
:1025d800a4498800a4498000b40e8800b40e800085
:1025e800c40e8800b40e8000d40e8800954980007f
:1025f80014468000110009008482d8000102780086
:10260800e00f520006003a00b44980000402e900d5
:10261800b4498800c44980000402e900c44988001c
:10262800b549800014c0b300e08f520001003400a7
:102638000042eb008502e900b5498800e04f5200ee
:102648000d003200c4498000b4498800344280003b
:102658000402e8003442880034428000e50f52004a
:10266800020034000002eb0034428800344280004b
:102678000400780029fa0700030037000002eb0085
:10268800d44288000000000009003700c4428000de
:10269800e40f5200050036000002eb00c442880037
:1026a80003003700000000000100370000000000b0
:0c26b800ca01a9000080fa000000060022
:020000040000fa
:1026c4003c090000240000000200000002001e007b
:1026d4000800ff00dc0be2000b00000002001e00fb
:1026e4000800ff00e80bee000b00000002001e00d3
:1026f4000800ff00f40bfa000b00000000080000c3
:102704003c000000020000004b02960004de55006d
:102714004b02f600e03d02007a041e00663d020012
:10272400f9ce54000e540e007a2800000000000078
:10273400440589000a253e004405c800ec840500d0
:10274400080b4a004f840500d3d58100158115007c
:10275400b41c000000000000dc0b0000240000009a
:1027640000000000420800006c00000000000000af
:102774000a0900001e00000002000000ffff020022
:102784000004000003000000000100000500ff0039
:10279400ff000600001200001800090000210000dc
:1027a40024030000ae080000360000000000000012
:1027b4003c0800000600000000000000d60b0000ea
:1027c4000600000000000000e408000026000000ed
:1027d40002000000140014000026020026022f004c
:1027e40000360000ac0dc80000b80b00401f040008
:1027f40000401f000807f8002a88130032000e006a
:1028040000fa00000a00000028090000120000007d
:10281400000000003a09000002000000000000006f
:0428240000000000b0
:020000040000fa
:102828000400fa00881f780004002800641088005b
:102838000002eb0074108800c4712e00f516240005
:10284800048fbe001e00be0036fb07000002be005b
:1028580004027800cfa2de000400be0052fb07008d
:102868000002be000401be001e00be00befa070042
:102878000002be0018c0b3000200200003f02300cd
:102888000400be0025fb070000027800e00f52009c
:10289800010035000044eb00e04f54000600320010
:1028a8001e00be001ffb07000002be0004027800e5
:1028b800a4108800060037001e00be0019fb0700a0
:1028c8000002be00040278000402e800a410880098
:1028d8000f42a8004f0478000080fa0000000600ac
:1028e8000200fa00000f78000b003700000000001b
:1028f800751080000420200004826200e00f52005e
:10290800fbff3a001e027800144278000402fb0024
:10291800841088001e0fe8001e0278001442780018
:10292800e04f5200f1ff3a000080fa000000060074
:10293800881f7800891f78008a1f78008b1f78000d
:102948004400f8003400f8002005900008f02f003b
:102958000a40e10003003200480f2000aa01880065
:1029680001003700080f20002802880000029000ac
:10297800d00490008301e9000380080015000000de
:10298800100490003103780030059000c0059000d5
:10299800b80278009a00ca00048008000a00000003
:1029a8005210c4009b80ca008707cd005290c40013
:1029b8005290c500ba87cd005390c4008607cd0059
:1029c8009a00ca005290c500bb87cd000600ca0015
:1029d8000900c8003200cd003400f9004400f900b5
:1029e800cf0578004f057800cf0478004f047800b1
:1029f80000000600b0009000400190000000900028
:102a080000800800010000008018eb000019eb00ae
:102a1800000006003e00fa009e88a9007516800096
:102a28000400240004826200e00f52000a003a0009
:102a38006e1a900061026200e00f520006003a0030
:102a48009e08a9006e1a90000400a000641f980058
:102a580014002000c442880075168000040022007b
:102a680004826200e00f520008003a000002eb0006
:102a7800c44288009e08a9000002eb00d4428800e6
:102a88006e1a90000410a000641f98006e1a90003f
:102a980061026200e00f52000800320075168000e3
:102aa8000400240004826200e00f52000300320098
:102ab8006e1a90000400a100641f98006e1a90001e
:102ac80062026200e00f52000800320075168000b2
:102ad8000400220004826200e00f5200030032006a
:102ae8006e1a90000410a100641f98000080fa007c
:102af800000006000000fa009ec8a8009ea8a800d2
:102b0800140020009416880004002600641688002b
:102b18000002eb00841688000002eb00b41688005f
:102b28000082eb00f41688000401280024088800bd
:102b380004012000f40888000002eb00a4088800c3
:102b480086a0a9008ea0a9001fe1a800040120000a
:102b5800040988000002eb00c408880086c0a900a8
:102b68008ec0a90018000700480007002f000700c2
:102b78002bff0700c09320009eff070080942000d1
:102b88009cff0700409520009aff07000002eb0019
:102b9800c44288000100370000000000f4448000af
:102ba80068026200e00f5200010032000efd0700cb
:102bb800f444800070026200e00f5200f6ff320019
:102bc80094ff0700f5ff37000000fa000002eb0051
:102bd800a40e8800245c2000240e8800747720004e
:102be800440e8800a4032000640e88000002eb0055
:102bf800840e88000002eb00b40e88000002eb008f
:102c0800c40e88000002eb00d40e88000002eb001e
:102c1800340e880004002800040e880088e0a9000b
:102c280090e0a8000080fa00000006000000fa000a
:102c380042e1a800140a80000450a1000460a10029
:102c4800140a88008420a9008c20a800140a800097
:102c58000400a0000410a1000420a100140a8800a8
:102c68000082eb00640888000002eb0084088800fa
:102c7800840880000440a0000450a1008408880053
:102c880011e1a8000080fa00000006000000fa0028
:102c9800a842a900a802a900a862a900a882a900c0
:102ca800a8a2a900440e20000415880004412000b1
:102cb8001415880094c0200024158800d40320002f
:102cc800541588000002eb00341588008560a900bf
:102cd8008d60a800a1e2a8000080fa0000000600ac
:020000040000fa
:0200000401f009
:04000000e3bf00005a
:020000040000fa
:0200000401f009
:04000400ff7f00007a
:020000040000fa
:0200000401f009
:04000800cfff000026
:020000040000fa
:0200000401f009
:04001400ffff0000ea
:020000040000fa
:0200000401f009
:04001800ffff0000e6
:00000001FF
