:020000040000fa
:080000000001040000000000f3
:020000040000fa
:10000800e60800009a010000a2010000aa01000011
:10001800b2010000e6080000e6080000e60800005b
:10002800e6080000b2070000e608000084020000ad
:10003800e6080000e6080000e6080000e608000000
:10004800e6080000e6080000e6080000da01000003
:10005800e6080000e6080000e6080000e6080000e0
:10006800e6080000e6080000e6080000e6080000d0
:10007800e6080000ac020000e2020000e60800000a
:10008800e6080000e6080000e6080000e6080000b0
:10009800e6080000e6080000e6080000e6080000a0
:1000a800e6080000e6080000e6080000e608000090
:1000b800e6080000e6080000e60800001803000053
:1000c800e6080000e6080000e6080000e608000070
:1000d800e6080000e6080000e6080000e608000060
:1000e800e6080000e6080000e6080000e608000050
:0800f800e6080000e608000024
:020000040000fa
:10010800e6080000ba010000c2010000ca010000b0
:10011800d2010000e6080000e6080000e60800003a
:10012800e6080000b2070000e608000084020000ac
:10013800e6080000e6080000e6080000e6080000ff
:10014800e6080000e6080000e6080000da01000002
:10015800e6080000e6080000e6080000e6080000df
:10016800e6080000e6080000e6080000e6080000cf
:10017800e6080000ac020000e2020000e608000009
:10018800e6080000e6080000e6080000e6080000af
:10019800e6080000e6080000e6080000e60800009f
:1001a800e6080000e6080000e6080000e60800008f
:1001b800e6080000e6080000e60800001803000052
:1001c800e6080000e6080000e6080000e60800006f
:1001d800e6080000e6080000e6080000e60800005f
:1001e800e6080000e6080000e6080000e60800004f
:0801f800e6080000e608000023
:020000040000fa
:10020000af9620006ebc20000e01880000000000a8
:10021000000020000000e000020032000001200089
:10022000200288000c000700a02721000100200008
:1002300011000700000020000000e0000200320072
:100240000000020000000000261302000000000071
:100250000040da000000fe004440a90040032000f6
:100260000000e0000300320000002000a001880030
:100270004440a8000000060091018800800078003a
:100280000000eb0015003700e280400032a0b4000f
:100290009101ba00e280400032a0b4009102ba009d
:1002a000e280400032a0b4000002eb00472bde00e9
:1002b000f507b200602ce10004003a000059eb00a1
:1002c0008301e900fdff3e00040037006128e100e2
:1002d000010032000082eb00040007001101ba00a7
:1002e0000200e000e8ff3a00000006003159ba00c1
:1002f0008301e9000c0032002159ba008301e900b2
:10030000080032000400e00003003a00e2804000f0
:1003100032a0b400f5ff370011d9ba008301e9001b
:10032000faff3a008100e800e180400032a0b4000a
:10033000000006000000fa008020a9000080fa00fa
:10034000004006000000fa00d421ef008060a90000
:10035000ffff37000000fa00d421ef008040a90021
:10036000ffff37000000fa00d421ef008080a900d1
:10037000ffff37000000fa00d421ef008020a90021
:10038000ffff37000000fa00d421ef008060a900d1
:10039000ffff37000000fa00d421ef008040a900e1
:1003a000ffff37000000fa00d421ef008080a90091
:1003b000ffff37003600f800809fbe00829fbe001e
:1003c000849fbe00869fbe000200fa008560a900df
:1003d000904980000000e0000a003200904980004f
:1003e0000000e90090498800504380005042880096
:1003f0006043800060428800704380007042880043
:10040000060037002014800050428800301480001d
:100410006042880040148000704288008042800062
:100420008000780000148000008040000000d100af
:1004300080428800c0428000e30f500005003e006b
:10044000e20f5000210031000000e0000400320003
:1004500020003700e40f5000030032001d00370079
:10046000d421ef0021003700a01680004800de00f4
:100470006700600020428800204280008000400029
:100480006091200000804000100078003042880019
:100490001e0fe80030428000e10f400003003a00e8
:1004a0001e007800e30f5000efff3400314280005f
:1004b00040428000808f50000400320030428000b3
:1004c000760207001421ef0086a0a9006c00070047
:1004d00006003700c0428000e40f500002003600e2
:1004e0005828ef0001003700000000000080fa00eb
:1004f0004f03be004f02be004f01be004f00be00c2
:100500003600f90000400600809fbe00821f780080
:100510000000fa008460a90091428000a248800097
:1005200010c0b300828f5000010031000040eb008a
:100530008100e800914288000004e00002003200df
:100540008c60a9005828ef000080fa004f01780065
:100550004f00be00004006003600f800809fbe003d
:10056000829fbe00849fbe00869fbe000000fa00ee
:100570001421ef0086a0a900c0428000e30f5000c4
:1005800009003a00304280000000e8003042880054
:1005900030428000e50f5000010034004628ef0093
:1005a000304280003d0207000080fa004f03be0089
:1005b0004f02be004f01be004f00be003600f900e2
:1005c000004006003600f800809fbe00829fbe00fb
:1005d000849fbe00869fbe000000fa0021e1a900b2
:1005e0001821ef001421ef0086a0a90086c0a90001
:1005f0008ec0a9005228ef00c0428000e30f5000d7
:1006000004003a008043800030428800304280007d
:10061000220207000080fa004f03be004f02be0016
:100620004f01be004f00be003600f900004006003a
:10063000801f78000000fa0088e0a900e0428000f6
:100640000000e800e0428800e0428000f30f500024
:10065000020036005c28ef009e68a800c0428000bf
:10066000e20f500003003a00e042800069004000c1
:10067000e04288000080fa004f0078000040060049
:100680000600fa00b0458000e50f50000d003e0066
:10069000e0812000404a880013002000c28620002c
:1006a000c184200020952000350807001300200099
:1006b000e2862000e1842000e09520003008070059
:1006c0000200370000802000404a8800130020000c
:1006d000a2862000a1842000609420002808070042
:1006e00081428000200020000001780011000900f4
:1006f0008200d80080007800c04580000080400063
:100700002043880051438000204380000080500037
:100710006101b900004380001143800002004000e5
:100720008380480000438800114388000043800014
:10073000114380004309dd004d00de000000710020
:10074000cd88de0000007800c0458800b0458000fc
:10075000e50f500004003e00a0428000e017b0000a
:100760001007980003003700a0428000c016b000b8
:1007700010079800b04580008000eb009200200038
:1007800003002000820f5000838f5800a7013e0015
:100790000060010009003700320037005b003700bd
:1007a00084003700bf003700e80037000f01370032
:1007b000150137004c0137005201370051438000ca
:1007c00020438000808f50009b013d00b045800099
:1007d0000108800000014000208720000000410047
:1007e000010878000021ef00ba010700000f78002f
:1007f0001e0090009e007800808f500002003100a3
:100800009e009000010f78001e0090001e00100056
:10081000e0088800300020008043880021e1a80023
:100820008ec0a800b04280006f0160001e007800fa
:100830006600b9008000780002014100e0872000d6
:100840000000410001087800b04280000000e8008c
:10085000b0428800b04580000000e800b045880044
:100860008c0137007143800020438000808f50004e
:1008700073013400b0458000010880000001400091
:100880002087200000004100010878000021ef00cf
:1008900090010700000f78001e0090009e00780075
:1008a000808f5000020031001e019000020f78007e
:1008b0001e0090001e001000e0088800400020008c
:1008c0008043880021e1a8008ec0a800b0428000cb
:1008d0006f0160001e0078006600b900800078009b
:1008e00002014100e087200000004100010878007b
:1008f000b04280000000e800b0428800b0458000af
:100900000000e800b04588006201370061438000c4
:1009100020438000808f50004b013d00b045800097
:1009200001088000000140002087200000004100f5
:10093000010878000021ef0066010700000f780031
:100940001e0090009e007800808f50000200310051
:100950009e009000010f78001e0090001e00100005
:10096000e0088800500020008043880021e1a800b2
:100970008ec0a800b04280006f0160001e007800a9
:100980006600b9008000780002014100e087200085
:100990000000410001087800b04280000000e8003b
:1009a000b0428800b04580000000e800b0458800f3
:1009b000380137005143800020438000808f500071
:1009c00023013400b0458000010880000001400090
:1009d0002087200000004100010878000021ef007e
:1009e0003c010700000f78001e0090009e00780078
:1009f000808f5000020031001e019000020f78002d
:100a00001e0090001e001000e00888007028ef0013
:100a100021e1a8008ec0a800b04280006f016000f4
:100a20001e0078006600b9008000780002014100d5
:100a3000e08720000000410001087800b0428000fb
:100a40000000e800b0428800b04580000000e800e7
:100a5000b0458800f0448000620060000000e000c3
:100a6000fd00320060002000b04588001421ef0036
:100a70001e00780000004000d008880086a0a90071
:100a80008ea0a8009e48a800a1e2a900b000200006
:100a9000501588008040200010158800a1e2a800b1
:100aa000fc0037007143800020438000808f50009d
:100ab000eb003d00b04580000108800000014000cf
:100ac0002087200000004100010878000021ef008d
:100ad00000010700000f78001e0090009e007800c3
:100ae000808f5000020031009e009000010f7800be
:100af0001e0090001e001000e0088800100020007a
:100b00008043880021e1a8008ec0a800b042800088
:100b10006f0160001e0078006600b9008000780058
:100b200002014100e0872000000041000108780038
:100b3000b04280000000e800b0428800b04580006c
:100b40000000e800b0458800d20037006143800013
:100b500020438000808f5000c3003400b0458000e7
:100b600001088000000140002087200000004100b3
:100b7000010878000021ef00d6000700000f780080
:100b80001e0090009e007800808f5000020031000f
:100b90001e019000020f78001e0090001e00100041
:100ba000e0088800200020008043880021e1a800a0
:100bb0008ec0a800b04280006f0160001e00780067
:100bc0006600b9008000780002014100e087200043
:100bd0000000410001087800b04280000000e800f9
:100be000b0428800b628ef00aa00370030428000eb
:100bf000e20f50009e003a00b04580000000e8007f
:100c0000b0458800a3003700514380002043800096
:100c1000808f500098003d00b04280006f0060005f
:100c20000108800000014000e08720000000410032
:100c3000010878000021ef00b04280006f006000e2
:100c400080004000e0872000008040009000780095
:100c5000b04280000000e9006f0060000001400029
:100c6000e087200000004100100078000080400074
:100c700020079800ae00900060002000000178007e
:100c8000110009008280d800d00888002e00900052
:100c9000c200de001e009000808f50000200310074
:100ca0001a21ef00050037002e009000c200de0080
:100cb0001e00900000805000d0088800b0428000e4
:100cc0000000e800b0428800400020008043880017
:100cd00021e1a8008ec0a800b04580000000e80017
:100ce000b04588006b00370030428000e50f5000af
:100cf00063003a00b04580000000e800b04588007d
:100d0000640037005143800020438000808f5000f2
:100d10005d003400b04280006f0060000108800078
:100d200000014000e0872000000041000108780039
:100d30000021ef00b04280006f00600080004000a2
:100d4000e08720000080400090007800b0428000e2
:100d50000000e9006f00600000014000e087200013
:100d6000000041001000780000804000200798003b
:100d7000ae00900060002000000178001100090022
:100d80008280d800d00888002e009000c200de00cb
:100d90001e009000808f5000020031001c21ef00e7
:100da000050037002e009000c200de001e009000fb
:100db00000805000e0088800b04280000000e80099
:100dc000b0428800100020008043880021e1a80084
:100dd0008ec0a80060002000b0458800f04480006c
:100de000620060000000e00029003a00400020009e
:100df000b04588007028ef00d00880008000d10046
:100e00001e00900000805000e00888008ea0a9001d
:100e1000a1e2a900b0032000501588000041200085
:100e200010158800a1e2a8001a003700b628ef00cc
:100e30000000000017003700000000001500370018
:100e40000000000013003700000000001100370010
:100e5000000000000f003700000000000d00370008
:100e6000000000000b003700000000000900370000
:100e700000000000070037000000000005003700f8
:100e800000000000030037000000000001003700f0
:100e9000000000000080fa00000006000200fa00d6
:100ea000000f78001e007800800040006092200053
:100eb0000080400010007800a00e88001e0078001e
:100ec00040428800b0468000904988000080fa00c7
:100ed000000006000a00fa006000b8001007980041
:100ee000210798000000eb00000f78000d0037008c
:100ef0001e00780080004000208720000080400015
:100f0000100078008000eb001e019000ae01900000
:100f100002004000838048001007980021079800d5
:100f20001e0fe8001e007800e50f5000f0ff3600ad
:100f30001e019000ae019000320798004307980010
:100f4000c20020003e029000ce0290001100090075
:100f500042aad800000f78001e0078000080fa0036
:100f6000000006003600f800809fbe00829fbe0091
:100f7000849fbe00869fbe00881f78000000fa0094
:100f80008420a9000621ef00a01680006100600007
:100f90000000e0008500320058458000000a800013
:100fa0008000eb002a01070002002000a35f24005c
:100fb0007c0107000200200083752400c1000700a7
:100fc000020107000000780080007800080144005a
:100fd000408a200000004100010878005045800050
:100fe0000000e8005045880050458000e20f5000a6
:100ff00001003600aa28ef0021458000304580001e
:10100000808f50000e00390021458000404580004f
:10101000808f50000a003900314580004045800033
:10102000808f500003003600304580001045880056
:101030002600370040458000104588002300370017
:101040003145800020458000808f50000e0039001f
:101050003145800040458000808f50000a003900f3
:101060002145800040458000808f500003003600fd
:10107000204580001045880014003700404580005e
:101080001045880011003700414580002045800050
:10109000808f50000d0039004145800030458000b0
:1010a000808f5000090039002145800030458000c4
:1010b000808f5000030036002045800010458800d6
:1010c000020037003045800010458800114580003f
:1010d00030882000808f500015003e007045800051
:1010e0000000e8007045880070458000e90f50005e
:1010f0000d003600c0428000e30f500006003200b1
:10110000c0428000e20f500003003200c042800065
:10111000e10f500004003a005828ef009e08a90093
:101120005a28ef00d1a2a900b028ef001f00370015
:101130001145800030882000808f5000120036005a
:1011400011458000b08a2000808f50000e003e00c4
:10115000804580000000e8008045880080458000d0
:10116000e90f500006003600c04280000000e00099
:1011700003003a00d1a2a80010002000c04288005d
:10118000ae28ef00090037001145800010488000ac
:10119000808f500003003600104880001045880002
:1011a00002003700ae28ef00b028ef000080fa0000
:1011b0004f0478004f03be004f02be004f01be0037
:1011c0004f00be003600f900004006000040da0083
:1011d0000000fe001e00fc00881f78008a1f7800b7
:1011e0004400f800080f2000280288000004900046
:1011f00010059000a000900030019000c001900008
:101200000300ca000280ca000030cb001a00cd00e3
:101210004604c3000100ca004604c0001e04c0000a
:101220000605c0000100cd0021009800050d7800e2
:10123000eaba9700052578004400f9004f057800c8
:101240004f047800000006000e00fc00801f7800ac
:10125000200090000008eb004f007800801f78000d
:10126000100090000018eb000018eb000008eb00e5
:101270004f007800000006001500fc004400f80054
:10128000020f200022028800910078003000ca007e
:101290003080ca000000cb002080ca000000cb00d4
:1012a0003100cd004000ca000000cb000000cb00a0
:1012b0000010cb003100cd001180cc004400f900bb
:1012c00000000600889fbe008a9fbe008c1f780029
:1012d0009c000700a300330003866c006450e1000b
:1012e0002e0032006420e100330032006150e10042
:1012f0002f0032006120e100310032008585550069
:10130000eb07b000090020000804200005003700aa
:101310000804440089844c000a003100060343009d
:1013200087834b000001530081815b00f8ff33008d
:101330000203be000800a0000804440089844c0099
:10134000f6ff3900c639dd00830173000100320069
:10135000130020008904d1000884d3000998a30059
:10136000050032000800a7000300a0008904d10096
:101370000884d3008b05e8008904d1000884d300d9
:101380000001eb000281d2003300070001f0a10050
:101390000cf0a70001f0a0007b0037006420e10002
:1013a0007d0032000801be000200be00f7ff3700da
:1013b0006120e100780032006000b800f3ff3700e0
:1013c0000000200001f82700f0ff37000001be00f8
:1013d000470007000470a70003f0a1006509b100f1
:1013e000160032000d0035006828e10006003500c7
:1013f000f0ff2f00f1ff27000300e00013003b0087
:101400000100280000000500000040008180480025
:101410008502e900fcff3a0008003700f88f42001f
:1014200002003c008000eb00000005008100d100bc
:101430000080d3008502e800fcff3a000300e000d2
:1014400002003b0060001000e08018000000060071
:101450006011b800970037008100200061805500be
:101460000b003d000b00200061fe2f000100e10099
:101470001d00340082817100610164008904d10083
:101480000884d3000000e800faff3a007100200051
:101490006100640003007000020060000900320077
:1014a00061044400e0844c000988a5000500320076
:1014b0008b05e8006808e10002003a008904d100c9
:1014c0000884d300f20f20000258e10005003d001f
:1014d000c75ddd00f907b20089807500080078005b
:1014e000000006000bf827008b00780000000500c4
:1014f000c70ade00f107b200f50fb20008003200a3
:10150000e1cf4200020032000170a000240005007b
:10151000810f70000100320004080500440005003e
:10152000810f700002003a00140005008502e900f6
:101530000000400081c04800fcff3b000170a0009b
:10154000240005000004be00e9ff07000003be0000
:101550000405be000200be00e5ff0700844f7500d1
:10156000000006000200be006450e10005003600e5
:101570006420e100020036000968a30001003a007f
:101580000800be000160a0004f0678004f05be00b5
:101590004f04be0000000600f0ff2f00f1ff2700ff
:1015a000f9ff3700889fbe008a9fbe008c1f78001d
:1015b000e4ff0700ebff330003866c006450e1009a
:1015c000240032006420e100270032006150e10075
:1015d000220032006120e100210032008b854200b0
:1015e000eb07b1000134b800003ab800080442002b
:1015f00089844a00013ab8000030b8008880400071
:1016000009014a00040033000000400081804800c6
:10161000020149008b05e900c909dd008301700062
:101620000100320013002000c814de004814dd0061
:101630004709de001200b200c808de00088470000e
:1016400085ff070001f0a1000cf0a70001f0a00049
:10165000cdff37006120e100cfff32000801be005e
:101660000200be00f7ff37006150e100fcff3a00c6
:10167000c9ff37006022b800060220000000d00039
:101680008180d2000482d2008582d2000000a000b6
:101690000202520083825a0003003100020242001b
:1016a00083824a000000a1000603e900f3ff3a002c
:1016b00000000600889fbe008a9fbe000082700066
:1016c0000402710004827100260032000004be0092
:1016d0000200be006011b8006b09200095022000d6
:1016e0000182cf000a0039000541b1000082cf001d
:1016f000070039000541b1000982cf00040039001c
:101700000541b1000882cf00010039000541b10058
:1017100005425200120032000a003b008281710033
:10172000610164008100d1000080d3008984d3006e
:101730000884d3008b05e8000442e800f7ff3a0074
:10174000070037000804440089844c00000048006a
:10175000818048008b05e9000442e900f9ff3a0066
:101760003dff07004f05be004f04be00000006000d
:020000040000fa
:10177000000000006400000000000000e80300001a
:10178000f4010000641900000a000000f4010000e8
:10179000f40100008813000000000000ffff0000bb
:1017a000000000001400000000000000007d0000a8
:1017b00000000000ffff0000000000001e0000000d
:1017c0000200000014000000640000008403000018
:0817d0000000000014000000fd
:020000040000fa
:1017d8000600fa009e68a900ca01a800c04280005d
:1017e800e20f50000b013200e20f500005003e00ee
:1017f8000000e00008003200e10f5000fc00320059
:1018080094013700e30f50000a003200e40f500043
:10181800670032008f013700d1a2a900d621ef005e
:10182800d821ef00da21ef006628ef006828ef00e2
:10183800900137003243800043438000c046800057
:101848008000eb000001510081815900d0468000e2
:101858008000eb00009ab90004027800028bb900fe
:1018680086027800050242000013b80016079800a7
:1018780027079800ae03900007024200240798004b
:10188800823e20001e029000ae0290001100090066
:1018980042aad800a0498800a0498000fe0f500045
:1018a80002003600e0012000a0498800a04980001d
:1018b8000000e00002003a005428ef002000370042
:1018c800c04680006101b800304380004143800079
:1018d800800f5100818f590017003100d1a2a80054
:1018e800a04980006101b800c0498000d14980004a
:1018f800009ab90004027800028bb90086027800c9
:10190800050242000013b800160798002707980040
:10191800ae039000070242002407980082162000b8
:101928001e029000ae0290001100090042aad800e1
:10193800a042880002003700d1a2a9005428ef0075
:10194800904880002103200080804000b04980003a
:10195800808f500003003100e04980000000e8005b
:10196800e049880090488000e1fc2f00808040001a
:10197800b0498000808f500003003600e0498000a5
:101988000000e900e0498800e0498000f40f5000b9
:10199800020034009e28a8003c29ef00e04980009e
:1019a800f40f400002003d009e28a9003c29ef00ea
:1019b8003829ef003a29ef000000eb00000f78000b
:1019c8000d0037001e00780080004000e0872000ee
:1019d80000804000100078006101b800c049800014
:1019e800d14980000200400083804800c049880037
:1019f800d14988001e0fe8001e007800ef0f500044
:101a0800f0ff3600c0498000d1498000cd0add00d2
:101a18004300de0000807200c308de00c049880071
:101a2800d1498800c0498000d14980000001780070
:101a380006002000271c200016079800270798009a
:101a48001e029000ae0290001100090042aad800c0
:101a58004300de00b049880086488000b049800015
:101a68008000eb00820720000289b900020178009b
:101a78006002b90084017800030141008307200057
:101a88000302b8001407980025079800ae029000da
:101a980005014100220798001e019000ae01900048
:101aa800110009004699d8008000eb0030438800f7
:101ab80041438800f144800000022000008060005b
:101ac8000000e0002f0032001045800060478800c9
:101ad8003043800041438000000078005047880070
:101ae800408e2000b9fd0700404780000000e0005c
:101af80001003d00e828ef004147800070eb270017
:101b0800808f50000500340050b82000b00e8800c7
:101b180070eb2700404788001500370040478000d9
:101b2800cf80de0052b820000289b9000201780097
:101b38006002b900840178000301410053b8200015
:101b48000302b8001407980025079800ae02900019
:101b5800050141002207980072eb27001e02900041
:101b6800ae0290001100090042aad800b00e880009
:101b7800b00e8000c00e8800b00e8000d00e880025
:101b8800bc003700f14480000004200000806000a1
:101b98000000e000b4003200104280008000eb003a
:101ba80052b820000289b900020178006002b90029
:101bb800840178000301410053b820000300b800f5
:101bc8000101410082007800f23f2000030020005c
:101bd800a6fe070000007800b00e8800b00e800056
:101be800c00e8800b00e8000d00e8800a10037001b
:101bf800a3000700804280000080d10020438800b5
:101c080020002000c04288003c29ef009e28a9003f
:101c180098003700d0428000e10f500020003200c9
:101c2800e10f500005003900e20f50003500320086
:101c3800e30f50003e00320083003700d04580009b
:101c4800b00e8800b00e8000c00e8800b00e800074
:101c5800d00e8800f04580000000e900f0458800bb
:101c6800f04580000000e0000c003a00304280009f
:101c78000000e8003042880030428000e50f500044
:101c8800010034004628ef003042800081fc070044
:101c9800d04280000000e800d04288006c00370085
:101ca800e0458000b00e8800b00e8000c00e8800ad
:101cb800b00e8000d00e8800004680000000e900c9
:101cc80000468800004680000000e0000c003a0052
:101cd800304280000000e800304288003042800036
:101ce800e50f5000010034004628ef003042800024
:101cf80068fc0700d04280000000e800d04288005d
:101d0800530037003e29ef0010468000004a880043
:101d180040468000104a880040468000204a8800db
:101d2800d04280000000e800d04288004800370018
:101d3800f14980003246800010c0b300828f500005
:101d4800010031000040eb008100e800f149880003
:101d58000004e000080032005a28ef00300020009c
:101d6800c042880021e1a9008ec0a9008460a900b2
:101d78008c60a80033003700f1498000604680007d
:101d880080027800110009008580d8008000fd00dd
:101d98000000e00003003a00004a80000000e8006c
:101da800004a8800004a8000b00e8800b00e80000b
:101db800c00e8800b00e8000d00e8800f149800067
:101dc8007046800000037800110009008680d80062
:101dd8008000fd000000e00006003a00104a800084
:101de8000000e900104a8800204a80000000e9004d
:101df800204a8800114a800010c0b3000100e000aa
:101e0800010034000040eb008100e900114a88001d
:101e18000004e0000b003200204a8000104a8800cd
:101e2800304280000000e8003042880030428000e4
:101e3800e50f5000010034004628ef0030428000d2
:101e480014fc0700020037005a28ef0000000000c9
:101e580008003700c0428000e40f5000040036003c
:101e68005828ef0003003700000000000100370089
:101e780000000000ca01a9000080fa000000060066
:101e88000200fa00d15d840080478000808f5000f6
:101e980002003100d05d840080478800d15d840055
:101ea80090478000808f500002003100d05d840090
:101eb80090478800d15d8400c0478000808f500023
:101ec80002003100d05d8400c0478800d15d8400e5
:101ed800d0478000808f500002003100d05d840020
:101ee800d0478800d15d840070488000808f500002
:101ef80002003100d05d840070488800f15d8400e4
:101f0800a0478000808f500002003100f05d8400ff
:101f1800a0478800f15d8400b0478000808f5000a2
:101f280002003100f05d8400b0478800015e840043
:101f3800e0478000808f500002003600005e840079
:101f4800e0478800115e8400e0478000808f5000e1
:101f580002003100105e8400e0478800215e8400a2
:101f6800f0478000808f500002003600205e840019
:101f7800f0478800315e8400f0478000808f500071
:101f880002003100305e8400f0478800415e840022
:101f980000488000808f500002003600405e8400b8
:101fa80000488800515e840000488000808f5000ff
:101fb80002003100505e840000488800b15e840051
:101fc80030488000808f500002003100b05e8400ed
:101fd80030488800b15e840040488000808f5000ff
:101fe80002003100b05e840040488800b15e840081
:101ff80050488000808f500002003100b05e84009d
:1020080050488800715e840010488000808f50001e
:1020180002003100705e840010488800915e8400e0
:1020280020488000808f500002003100905e8400bc
:1020380020488800d15e840060488000808f50006e
:1020480002003100d05e840060488800f15e8400a0
:1020580070478000808f500002003100f05e8400dd
:1020680070478800015f840080488000808f50009e
:1020780002003600005f840080488800115f8400f9
:1020880080488000808f500002003100105f84007b
:1020980080488800215f840090488000808f50002d
:1020a80002003600205f840090488800315f840079
:1020b80090488000808f500002003100305f84001b
:1020c80090488800415f8400a0488000808f5000bd
:1020d80002003600405f8400a0488800515f8400f9
:1020e800a0488000808f500002003100505f8400bb
:1020f800a0488800804780008000eb0052b820008c
:102108000289b900020178006002b90084017800f0
:102118000301410053b820000300b8000101410049
:102128008200780042062000030020004ffd0700cf
:1021380000007800d0458800904780008000eb00c0
:1021480052b820000289b900020178006002b90083
:10215800840178000301410053b820000300b8004f
:10216800010141008200780042062000030020009f
:102178003efd070000007800e0458800a047800089
:102188006a00b90000007800f0458800b047800078
:102198006a00b9000000780000468800c047800047
:1021a8008000eb0052b820000289b90002017800d3
:1021b8006002b900840178000301410053b820008f
:1021c8000300b800010141008200780042062000a7
:1021d8000300200025fd0700000078001046880055
:1021e800d04780008000eb0052b820000289b90077
:1021f800020178006002b9008401780003014100ff
:1022080053b820000300b8000101410082007800a3
:10221800420620000300200014fd0700000078009b
:1022280020468800e04780006a00b9000000780076
:1022380030468800804880006101b800f04780007f
:102248008000eb00009ab90004027800028bb90004
:1022580086027800050242000010b8000102420020
:10226800840078000001be0000d420003100200066
:10227800fefc070000007800404688008048800087
:102288006101b800004880008000eb00009ab900a6
:1022980004027800028bb900860278000502420029
:1022a8000010b80001024200840078000001be005e
:1022b80000d4200031002000ecfc0700000078006a
:1022c800504688004146800050468000808f50006c
:1022d80003003100504680000080e8004046880036
:1022e8003146800042468000504680000000510080
:1022f80000017800110009008280d8000000e80081
:10230800704688002146800010468000808f50006b
:1023180003003100104680000080e8002046880055
:10232800314680002246800010468000000051009f
:1023380000017800110009008280d8000000e80040
:1023480060468800804880006101b8004318dd00bd
:10235800cd10de00810070004310dd000001be00da
:102368000000200081972600c0fc070080468800f6
:1023780091468800104880004a00de000000e8000e
:10238800a046880020488000b04688006048800049
:10239800c046880070478000d046880010488000fa
:1023a800e046880030488000f046880040488000b9
:1023b800004788005048800010478800c0832000ec
:1023c8002047880060bd200030478800418e2000eb
:1023d800e08d2000a6fb07000000eb00000f78004e
:1023e800070037001e0078008000400060bd200014
:1023f800008040008000eb00010878001e0fe80014
:102408001e007800e20f5000f6ff3e00c042800038
:10241800e10f500012003a00704880008000eb0085
:1024280072eb27000289b900020178006002b90046
:10243800840178000301410073eb27000300b80012
:1024480001014100820078004206200003002000bc
:1024580086fc07000000780040478800010037002c
:10246800e828ef000000eb00000f78001a003700a2
:10247800804880006101b800f04780008000eb00d0
:10248800009ab90004027800028bb900860278002d
:10249800050242000010b8000102420084007800e2
:1024a8004309dd00cd01de00830171004301dd0039
:1024b80000002000819726006cfc0700800078004f
:1024c8001e00780000014000e08720000000410065
:1024d800010878001e0fe8001e007800ef0f50007a
:0c24e800e3ff36000080fa000000060050
:020000040000fa
:1024f40046090000240000000200000002001e0043
:102504000800ff00dc0be2000b00000002001e00cc
:102514000800ff00e80bee000b00000002001e00a4
:102524000800ff00f40bfa000b0000000008000094
:102534003c000000020000004b02960004de55003f
:102544004b02f600e03d02007a041e00663d0200e4
:10255400f9ce54000e540e007a280000000000004a
:10256400440589000a253e004405c800ec840500a2
:10257400080b4a004f840500d3d58100158115004e
:10258400b41c000000000000dc0b0000240000006c
:1025940000000000340900001200000000000000e8
:1025a400ba08000036000000000000003c080000eb
:1025b4000600000000000000d60b0000060000002a
:1025c40000000000f00800002600000002000000e7
:1025d4001e00190000c8000096003600003c0000f0
:1025e400f401c80000980800401f040000401f00c8
:1025f4000807f8002a10270028000e0000fa00003f
:102604000a000000420800007800000000000000fa
:10261400160900001e00000002000000ffff020077
:102624000004000003000000000100000500ff009a
:10263400ff0006000012000018000900002100003d
:08264400240300000000000067
:020000040000fa
:10264c000400fa009ec8a8009ea8a8001000200054
:10265c0090168800cc22ef00d022ef00d622ef009b
:10266c000080eb00f0168800013a800000f2230095
:10267c0000806000003a88000000eb001007980012
:10268c0019003700d1a2a9000000eb00000f780060
:10269c00040037000000280061012000ac00070096
:1026ac001e0fe8001e007800e20f5000f9ff340006
:1026bc00d1a2a8000000eb00000f78000400370046
:1026cc000000280061012000a10007001e0fe80097
:1026dc001e007800e20f5000f9ff34001e0090003d
:1026ec000000e800100798001e009000e40f500056
:1026fc00e4ff3400d1a2a9000001280020088800c2
:10270c0000012000f00888001421ef0086a0a90029
:10271c008ea0a9001fe1a80000012000000988007c
:10272c001821ef0086c0a9008ec0a9007500070013
:10273c006000070048000700609420003e0007007e
:10274c00209520003c000700e09520003a0007008f
:10275c005828ef000100370000000000f044800012
:10276c00680060000000e000fbff320017fc07006f
:10277c00faff3700881f7800891f78008a1f7800bd
:10278c008b1f78004400f8003400f80020059000fe
:10279c0008f02f000a40e10003003200480f20002f
:1027ac00aa01880001003700080f200028028800c9
:1027bc0000029000d00490008301e900038008001f
:1027cc0015000000100490003103780030059000d3
:1027dc00c0059000b80278009a00ca000480080076
:1027ec000a0000005210c4009b80ca008707cd006d
:1027fc005290c4005290c500ba87cd005390c400cb
:10280c008607cd009a00ca005290c500bb87cd0048
:10281c000600ca000900c8003200cd003400f900df
:10282c004400f900cf0578004f057800cf047800fc
:10283c004f04780000000600b000900040019000aa
:10284c000000900000800800010000008018eb00e0
:10285c000019eb00000006000000fa0042e1a8009d
:10286c00100a80000050a1000060a100100a88002e
:10287c008420a9008c20a800100a80000000a00071
:10288c000010a1000020a100100a88000080eb00bd
:10289c00600888001021ef00800880000040a00034
:1028ac000050a1008008880011e1a8000080fa0007
:1028bc00000006000000fa00a842a900a802a90026
:1028cc00a862a900a882a900a8a2a900400e200015
:1028dc0000158800004120001015880090c02000d1
:1028ec0020158800b003200050158800a622ef00a8
:1028fc008560a9008d60a800a1e2a8000080fa0004
:10290c00000006000000fa00d421ef00205c20003b
:10291c00200e880070772000400e8800a003200055
:10292c00600e8800d021ef00d621ef00d821ef00f7
:10293c00da21ef00c621ef0000002800000e88000d
:10294c0088e0a90090e0a8000080fa0000000600d2
:020000040000fa
:10295c00f03fb1000180b10006003500ee03090024
:10296c0000000000403fb1000180b100fbff3d00c2
:10297c001000b000203fb0000200350000800900bc
:08298c0000000000000006003d
:020000040000fa
:0200000401f009
:04000000e7bf000056
:020000040000fa
:0200000401f009
:04000400ff7f00007a
:020000040000fa
:0200000401f009
:04000800ff7f000076
:020000040000fa
:0200000401f009
:04001400ffff0000ea
:020000040000fa
:0200000401f009
:04001800ffff0000e6
:00000001FF
