:020000040000fa
:080000000001040000000000f3
:020000040000fa
:1000080064080000e4070000f4070000040800008a
:100018001408000064080000640800006408000078
:1000280064080000b00700006408000050020000e7
:100038006408000064080000640800006408000008
:100048006408000064080000640800009e010000c5
:1000580064080000640800006408000064080000e8
:1000680064080000640800006408000064080000d8
:100078006408000080020000be020000640800005e
:1000880064080000640800006408000064080000b8
:1000980064080000640800006408000064080000a8
:1000a8006408000064080000640800006408000098
:1000b800640800006408000064080000fc020000f6
:1000c8006408000064080000640800006408000078
:1000d8006408000064080000640800006408000068
:1000e8006408000064080000640800006408000058
:0800f800640800006408000028
:020000040000fa
:1001080064080000240800003408000044080000c7
:100118005408000064080000640800006408000037
:1001280064080000b00700006408000050020000e6
:100138006408000064080000640800006408000007
:100148006408000064080000640800009e010000c4
:1001580064080000640800006408000064080000e7
:1001680064080000640800006408000064080000d7
:100178006408000080020000be020000640800005d
:1001880064080000640800006408000064080000b7
:1001980064080000640800006408000064080000a7
:1001a8006408000064080000640800006408000097
:1001b800640800006408000064080000fc020000f5
:1001c8006408000064080000640800006408000077
:1001d8006408000064080000640800006408000067
:1001e8006408000064080000640800006408000057
:0801f800640800006408000027
:020000040000fa
:100200008f9920006ebc20000e01880000000000c5
:10021000000020000000e000020032000001200089
:10022000200288000c000700a0c12100010020006e
:1002300011000700000020000000e0000200320072
:1002400000000200000000008c1e02000000000000
:100250000040da000000fe004440a9000006200033
:100260000000e0000300320000002000a001880030
:100270004440a8000000060091018800800078003a
:100280000000eb0015003700e280400032a0b4000f
:100290009101ba00e280400032a0b4009102ba009d
:1002a000e280400032a0b4000002eb00472bde00e9
:1002b000f507b200602ce10004003a000059eb00a1
:1002c0008301e900fdff3e00040037006128e100e2
:1002d000010032000082eb00040007001101ba00a7
:1002e0000200e000e8ff3a00000006003159ba00c1
:1002f0008301e9000c0032002159ba008301e900b2
:10030000080032000400e00003003a00e2804000f0
:1003100032a0b400f5ff370011d9ba008301e9001b
:10032000faff3a008100e800e180400032a0b4000a
:100330000000060000000000000000003600f80089
:10034000809fbe00829fbe00849fbe00869fbe002d
:100350003400f80000002000a00188000200fa002c
:100360008560a900004980000000e0000a0032001a
:10037000004980000000e9000049880050438000e7
:1003800050428800604380006042880070438000d3
:100390007042880006003700201480005042880018
:1003a0003014800060428800401480007042880051
:1003b000804280008000780010148000008040009f
:1003c0000000d10080428800c0428000e30f50004e
:1003d00005003e00e20f5000210031000000e00067
:1003e0000400320020003700e40f50000300320008
:1003f0001d003700d421ef0021003700a016800037
:100400004800de0067006000204288002042800033
:1004100080004000409020000080400010007800e4
:10042000304288001e0fe80030428000e10f40009b
:1004300003003a001e007800e30f5000efff340085
:100440003142800040428000808f50000400320022
:1004500030428000900207001421ef0086a0a9001e
:100460008600070006003700c0428000e40f5000fd
:10047000020036005828ef0001003700000000009d
:100480000080fa003400f9004f03be004f02be00a6
:100490004f01be004f00be003600f90000400600cc
:1004a000809fbe00821f78003400f800000020000a
:1004b000a00188000000fa008460a9009142800039
:1004c0001248800010c0b300828f5000010031003c
:1004d0000040eb008100e800914288000004e00049
:1004e000020032008c60a9005828ef000080fa005a
:1004f0003400f9004f0178004f00be0000400600b4
:100500003600f800809fbe00829fbe00849fbe0020
:10051000869fbe003400f80000002000a001880083
:100520000000fa001421ef0086a0a900c04280005c
:10053000e30f500009003a00304280000000e8005c
:100540003042880030428000e50f50000100340046
:100550004628ef00304280004f0207000080fa007a
:100560003400f9004f03be004f02be004f01be0031
:100570004f00be003600f900004006003600f800cb
:10058000809fbe00829fbe00849fbe00869fbe00eb
:100590003400f80000002000a00188000000fa00ec
:1005a00021e1a9001821ef001421ef0086a0a90085
:1005b00086c0a9008ec0a9005228ef00c04280006a
:1005c000e30f500004003a0080438000304288006e
:1005d00030428000300207000080fa003400f90049
:1005e0004f03be004f02be004f01be004f00be00d1
:1005f0003600f90000400600809fbe003400f8007d
:1006000000002000a00188000000fa0088e0a90096
:10061000f04280000000e800f0428800f1428000d3
:10062000700c2000808f5000020036005e28ef0022
:100630009e88a800e04280000000e800e0428800b8
:10064000e0428000f30f5000020036005c28ef000b
:100650009e68a800c0428000e20f500003003a00ec
:10066000e042800069004000e04288000080fa001b
:100670003400f9004f00be00004006000600fa00fa
:1006800020458000e50f50000d003e00e081200075
:10069000d049880013002000c2862000c1842000b9
:1006a00040942000630d070013002000e286200024
:1006b000e1842000009520005e0d07000200370055
:1006c00000802000d049880013002000a28620006e
:1006d000a184200080932000560d070081428000f5
:1006e0002000200000017800110009008200d800dd
:1006f0008000780030458000008040002043880062
:100700005143800020438000008050006101b90007
:1007100000438000114380000200400083804800b5
:10072000004388001143880000438000114380008b
:100730004309dd004d00de0000007100cd88de00c1
:10074000000078003045880020458000e50f50000b
:1007500004003e00a0428000e017b000100798009f
:1007600003003700a0428000c016b00010079800b8
:10077000204580008000eb00920020000300200054
:10078000820f5000838f5800a7013e0000600100d7
:1007900009003700320037005b0037008400370063
:1007a000bf003700e80037000f01370015013700a0
:1007b0004c01370052013700514380002043800034
:1007c000808f50009b013d00204580000108800083
:1007d000000140002087200000004100010878004f
:1007e0000021ef00ba010700000f78001e00900002
:1007f0009e007800808f5000020031009e00900023
:10080000010f78001e0090001e001000e008880014
:10081000300020008043880021e1a8008ec0a8009d
:10082000b04280006f0160001e0078006600b900d1
:100830008000780002014100e087200000004100b4
:1008400001087800b04280000000e800b042880053
:10085000204580000000e800204588008c0137001a
:100860007143800020438000808f5000730134006a
:100870002045800001088000000140002087200002
:1008800000004100010878000021ef0090010700fe
:10089000000f78001e0090009e007800808f5000ae
:1008a000020031001e019000020f78001e0090002f
:1008b0001e001000e00888004000200080438800ef
:1008c00021e1a8008ec0a800b04280006f01600046
:1008d0001e0078006600b900800078000201410027
:1008e000e08720000000410001087800b04280004d
:1008f0000000e800b0428800204580000000e800c9
:100900002045880062013700614380002043800059
:10091000808f50004b013d00204580000108800081
:1009200000014000208720000000410001087800fd
:100930000021ef0066010700000f78001e00900004
:100940009e007800808f5000020031009e009000d1
:10095000010f78001e0090001e001000e0088800c3
:10096000500020008043880021e1a8008ec0a8002c
:10097000b04280006f0160001e0078006600b90080
:100980008000780002014100e08720000000410063
:1009900001087800b04280000000e800b042880002
:1009a000204580000000e80020458800380137001d
:1009b0005143800020438000808f50002301340089
:1009c00020458000010880000001400020872000b1
:1009d00000004100010878000021ef003c01070001
:1009e000000f78001e0090009e007800808f50005d
:1009f000020031001e019000020f78001e009000de
:100a00001e001000e00888007028ef0021e1a80017
:100a10008ec0a800b04280006f0160001e00780008
:100a20006600b9008000780002014100e0872000e4
:100a30000000410001087800b04280000000e8009a
:100a4000b0428800204580000000e8002045880072
:100a5000f0448000620060000000e000fd00320011
:100a600060002000204588001421ef001e0078005f
:100a700000004000d008880086a0a9008ea0a80031
:100a80009e48a800a1e2a900d000200050158800cf
:100a90008040200010158800a1e2a800fc0037006b
:100aa0007143800020438000808f5000eb003d00a8
:100ab00020458000010880000001400020872000c0
:100ac00000004100010878000021ef00000107004c
:100ad000000f78001e0090009e007800808f50006c
:100ae000020031009e009000010f78001e0090006f
:100af0001e001000e00888001000200080438800dd
:100b000021e1a8008ec0a800b04280006f01600003
:100b10001e0078006600b9008000780002014100e4
:100b2000e08720000000410001087800b04280000a
:100b30000000e800b0428800204580000000e80086
:100b400020458800d20037006143800020438000a8
:100b5000808f5000c30034002045800001088000d1
:100b600000014000208720000000410001087800bb
:100b70000021ef00d6000700000f78001e00900053
:100b80009e007800808f5000020031001e0190000e
:100b9000020f78001e0090001e001000e008880080
:100ba000200020008043880021e1a8008ec0a8001a
:100bb000b04280006f0160001e0078006600b9003e
:100bc0008000780002014100e08720000000410021
:100bd00001087800b04280000000e800b0428800c0
:100be000a428ef00aa00370030428000e20f500036
:100bf0009e003a00204580000000e8002045880063
:100c0000a30037005143800020438000808f5000b4
:100c100098003d00b04280006f0060000108800035
:100c200000014000e087200000004100010878003a
:100c30000021ef00b04280006f00600080004000a3
:100c4000e08720000080400090007800b0428000e3
:100c50000000e9006f00600000014000e087200014
:100c6000000041001000780000804000200798003c
:100c7000ae00900060002000000178001100090023
:100c80008280d800d00888002e009000c200de00cc
:100c90001e009000808f5000020031001a21ef00ea
:100ca000050037002e009000c200de001e009000fc
:100cb00000805000d0088800b04280000000e800aa
:100cc000b0428800400020008043880021e1a80055
:100cd0008ec0a800204580000000e8002045880064
:100ce0006b00370030428000e50f500063003a008f
:100cf000204580000000e80020458800640037009f
:100d00005143800020438000808f50005d003400fc
:100d1000b04280006f0060000108800000014000c8
:100d2000e087200000004100010878000021ef006a
:100d3000b04280006f00600080004000e08720002b
:100d40000080400090007800b04280000000e90080
:100d50006f00600000014000e087200000004100bb
:100d6000100078000080400020079800ae0090003e
:100d70006000200000017800110009008280d80086
:100d8000d00888002e009000c200de001e009000f7
:100d9000808f5000020031001c21ef000500370059
:100da0002e009000c200de001e0090000080500067
:100db000e0088800b04280000000e800b0428800ef
:100dc000100020008043880021e1a8008ec0a80008
:100dd0006000200020458800f04480006200600030
:100de0000000e00029003a00400020002045880073
:100df0007028ef00d00880008000d1001e00900015
:100e000000805000e00888008ea0a900a1e2a9009f
:100e1000d0032000501588000041200010158800e4
:100e2000a1e2a8001a003700a428ef00000000008b
:100e30001700370000000000150037000000000018
:100e40001300370000000000110037000000000010
:100e50000f003700000000000d0037000000000008
:100e60000b00370000000000090037000000000000
:100e700007003700000000000500370000000000f8
:100e800003003700000000000100370000000000f0
:100e90000080fa00000006000200fa00000f78004f
:100ea0001e0078008000400040912000008040003b
:100eb00010007800a00e88001e00780040428800d4
:100ec00020468000004988000080fa0000000600eb
:100ed0000a00fa006000b800100798002107980087
:100ee0000000eb00000f78000d0037001e007800b6
:100ef0008000400020872000008040001000780023
:100f00008000eb001e019000ae0190000200400046
:100f10008380480010079800210798001e0fe80002
:100f20001e007800e50f5000f0ff36001e01900013
:100f3000ae0190003207980043079800c2002000dd
:100f40003e029000ce0290001100090042aad80093
:100f5000000f78001e0078000080fa0000000600f4
:100f6000809fbe003400f80000002000a00188002f
:100f70000000fa008420a900000a80004600de007c
:100f80001049880011498000900f2000808f500088
:100f900002003e00a00f2000104988001149800087
:100fa000803e2000808f500002003600803e2000ee
:100fb000104988000621ef000080fa003400f90093
:100fc0004f00be00004006003400f800881f780083
:100fd00008002000a80188004f0478000000fa00f3
:100fe0008020a900ffff37003400f800881f780038
:100ff00008002000a80188004f0478000000fa00d3
:101000008060a900ffff37003400f800881f7800d7
:1010100008002000a80188004f0478000000fa00b2
:101020008040a900ffff37003400f800881f7800d7
:1010300008002000a80188004f0478000000fa0092
:101040008080a900ffff37003400f800881f780077
:1010500008002000a80188004f0478000000fa0072
:101060008020a900ffff37003400f800881f7800b7
:1010700008002000a80188004f0478000000fa0052
:101080008060a900ffff37003400f800881f780057
:1010900008002000a80188004f0478000000fa0032
:1010a0008040a900ffff37003400f800881f780057
:1010b00008002000a80188004f0478000000fa0012
:1010c0008080a900ffff37000040da000000fe002a
:1010d0001e00fc00881f78008a1f78004400f8007a
:1010e000080f2000280288000004900010059000de
:1010f000a000900030019000c00190000300ca00e1
:101100000280ca000030cb001a00cd004604c300a4
:101110000100ca004604c0001e04c0000605c0004d
:101120000100cd0021009800050d7800eaba970073
:10113000052578004400f9004f0578004f04780039
:10114000000006000e00fc00801f780020009000c8
:101150000008eb004f007800801f7800100090001e
:101160000018eb000018eb000008eb004f007800bf
:10117000000006001500fc004400f800020f2000eb
:1011800022028800910078003000ca003080ca0036
:101190000000cb002080ca000000cb003100cd0051
:1011a0004000ca000000cb000000cb000010cb00c4
:1011b0003100cd001180cc004400f9000000060091
:1011c00003f0a200889fbe008a9fbe008c1f78009b
:1011d000ba000700c10033006450e1004f00320044
:1011e0006420e1005200320003826c0007003b00e3
:1011f0000905d0000306d000820f54000c065d00e4
:1012000002003900020032008901780003067800ec
:101210008582550004003d000003fd008103fd00b0
:101220008502ea008b854200840f720002003b00b9
:1012300060001000e08018006011b8000005eb00ad
:101240007a28e1000a00390006007800c75ddd0059
:10125000f707b200878075002d003700828171008a
:101260000a017800610560008180d1000080d30010
:101270008502e900f9ff3b0006044000878448002e
:1012800002003b0060041400e0841c000988a300f5
:10129000070032008a81710082817100610164005f
:1012a0008904d1000884d3008b05e80017003700bb
:1012b0000978a30013003a000b00e000130034008b
:1012c0008b05e9000804440089844c000a4474003a
:1012d0000978a3000d003a000b00e000070034007d
:1012e0008b05e9000804440089844c0001003a00a1
:1012f0000b0020000978a300f7ff32000001eb008b
:1013000002003700828171000a0178003000070076
:101310000cf0a70001f0a000790037006420e10084
:1013200002003a00838f6c00790033000801be0090
:101330000200be0072003700140020008700370052
:101340000001be00480007000470a70003f0a100e0
:101350006509b100160032000d0035006828e10073
:1013600006003500f0ff2f00f1ff27000300e0002a
:1013700013003b00010028000000050000004000b1
:10138000818048008502e900fcff3a000800370030
:10139000f88f420002003c008000eb0000000500d6
:1013a0008100d1000080d3008502e800fcff3a00f4
:1013b0000300e00002003b0060001000e080180025
:1013c000000006004f89de00820178007e003700b1
:1013d00081002000618055000b003d000b002000c3
:1013e00061fe2f000100e1001d00340082817100c8
:1013f000610164008904d1000884d3000000e80082
:10140000faff3a00710020006100640003007000e0
:10141000020060000900320061044400e0844c00d6
:101420000988a500050032008b05e8006808e10086
:1014300002003a008904d1000884d300f20f200092
:101440000258e10005003d00c75ddd00f907b2006c
:101450008980750008007800000006000bf827005e
:101460008b00780000000500c70ade00f107b2001b
:10147000f50fb20008003200e1cf42000200320056
:101480000170a00024000500810f700001003200ef
:101490000408050044000500810f700002003a00b6
:1014a000140005008502e9000000400081c04800ea
:1014b000fcff3b000170a000240005000004be00fa
:1014c000e9ff07000003be000405be000200be00e5
:1014d000e5ff0700844f7500000006000200be0013
:1014e0006450e100050036006420e100020036008f
:1014f0000968a30001003a000800be000160a000d6
:101500004f0678004f05be004f04be0000000600e5
:10151000f0ff2f00f1ff2700f9ff37006022b8002d
:10152000060220000000d0008180d2000482d20098
:101530008582d2000000a0000202520083825a007d
:10154000030031000202420083824a000000a10031
:101550000603e900f3ff3a0000000600889fbe0082
:101560008a9fbe00841f7800d4ff07004f007800d8
:1015700011003300f0ff2f00838f6c0006003b004a
:10158000040565000a00a7000800370009f0a6005e
:101590001000200008003700820f5400838f5c0089
:1015a000030039001000200001003e000000200070
:1015b00009f0a7000000ea004f05be004f04be007e
:1015c0000000e00000000600881f78000304780097
:1015d0000300e00007003d0060001000e0801800fc
:1015e00060011900e081190002003b0001f02d00ac
:1015f000030037000400070008f0a70001f0a00076
:101600004f04780000000600889fbe008a9fbe003d
:101610000082700004027100048271002600320012
:101620000004be000200be006011b8006b0920007b
:10163000950220000182cf000a0039000541b10067
:101640000082cf00070039000541b1000982cf00b8
:10165000040039000541b1000882cf0001003900c3
:101660000541b10005425200120032000a003b0061
:1016700082817100610164008100d1000080d3008b
:101680008984d3000884d3008b05e8000442e80075
:10169000f7ff3a00070037000804440089844c0033
:1016a00000004800818048008b05e9000442e90001
:1016b000f9ff3a0046ff07004f05be004f04be0089
:1016c000000006008001780002003700b159780060
:1016d0000201e9000200e000fcff3a000000060001
:1016e000881f78000204780008017800f5ff0700e1
:1016f000080040004f047800000006000000fa00d7
:10170000881f780000047800ea8157003fb99700ed
:101710008800780000b72000070007000000e00004
:10172000020035008040eb00017478004f0478001f
:101730000080fa00000006006200fa00889fbe00e8
:101740008a1f780000057800810478000204780080
:101750008300780080f92f000f004000a7030700e6
:101760009a979f00a9979f000000eb00b09f9f00f1
:101770001885fb008a04fb000a05ea004f55de00cd
:1017800050022000808f54000d003200e10f550000
:101790000b003a000a017800880078002f9097002b
:1017a0009f91970003000100a0979f000000e000b8
:1017b0008e0032003f9897000000e800b09f9f0025
:1017c0000a04440050022000808f540004003200bc
:1017d0000900e000e6ff3a003f98970084003700d8
:1017e0000000eb00909f9f00809f9f00f0979f005c
:1017f000e0979f00d0979f00c0979f000700370099
:101800002199200001005000000040006198200054
:1018100061007800df98970001007000d09f9f0062
:101820008804780009047800384578008a00fb00b5
:10183000209920007a0107000000e000f0ff3a0044
:10184000a1c2b300814f55000e003a00cf88970027
:101850000180e900c08f9f0010007800c09f9f00aa
:101860000000e00005003d000000ea00c09f9f006e
:101870005f9897000020a000d09f9f000904e80017
:101880000f003700c09f9f000000eb0005003700ed
:10189000f2ff2700820f5000020032006a01b900f7
:1018a000028040000904780088047800b900fb0039
:1018b0000103b100e98f5000f5ff3600c09f9f0083
:1018c000e0c2b300984f1000020032000080eb002d
:1018d00019003700a0c2b300d84f100007003a002b
:1018e000cf8897000180e900c08f9f00100078002a
:1018f000a09f9f000804e800100037000000eb00e4
:10190000a09f9f008800780005003700f3ff2700a4
:10191000830f5000020032006a02b9000400410047
:1019200001047800880078003101fb000203b10057
:10193000e90f5100f5ff3600a09f9f009844780002
:101940008900fb00e0972000350107000000e0005f
:10195000020032000804e800010037008044eb0078
:10196000c97f9f0080c6b30080cf540004003a00b6
:1019700098cf14000a003a00664050000600370075
:10198000c0c6b30080cf540005003a0098cf1400c1
:1019900003003a0065404000c07f9f000804e80053
:1019a0001801fb00e3fb2f008f81410081f92f001c
:1019b0008f804000a0f92f000f00400010000700aa
:1019c0000000e00009003a00e1fb2f008f8040009a
:1019d000a0f92f000f0040004c0207000000e000bb
:1019e000020035000804e80061ff37000080eb00ca
:1019f0004f0578004f04be000080fa00000006008a
:101a0000881f7800e4c6b300844f5100b60032004e
:101a100010003c006b425200844f5100180032000d
:101a200005003c0054c2b300844f5100ee00320068
:101a300084c5b3000f00370044c6b300844f510083
:101a40001400320065424200844f5100e9003a0020
:101a50001000370004c7b300844f5100d500320096
:101a60005300350065424200844f5100500032005f
:101a700063424200844f5100de003a004c003700c0
:101a80001181e90082087800f0009000124178008e
:101a9000d600370020629000c5c6b300854f5200c3
:101aa00007003a00910278006482520084087800ae
:101ab0001402be004fabde00860378001100370031
:101ac00015c7b300854f520003003200a5c6b3000e
:101ad000854f520006003a00910278006882520059
:101ae000840878005403be004402be00050037009d
:101af0001182e9008408780014027800cfa2de0089
:101b0000612bb9000498be000690be00a060900052
:101b100088c6b30088cf50000d00320028c6b3003d
:101b200088cf500004003a000402fb00cfa2de0080
:101b3000612bb9000800370048c7b30088cf5000b8
:101b4000030032006644440088cf500004003a008d
:101b5000cfa2de00612bb9000498be000690be0043
:101b60003002be002003be00f0009000e00f5200e3
:101b7000e08f5a00e00f5b00e08f5b0002003d0049
:101b8000d4c2b30008003700001290000418a3006c
:101b900002003200b4c2b300030037000408a300ff
:101ba0004c00320004c2b30084f1780047003700d3
:101bb00020629000c5c6b300854f520006003a006f
:101bc0009102780064825200840878001402be00fa
:101bd0006033b8001100370015c7b300854f5200bd
:101be00003003200a5c6b300854f520006003a003c
:101bf0009102780068825200840878005403be0085
:101c00004402be00050037001182e9008408780014
:101c1000140278008002eb006033b8000498be0024
:101c20000690be00a060900088c6b30088cf500028
:101c30000d00320028c6b30088cf500004003a00df
:101c40000482fb008002eb006033b800080037001c
:101c500048c7b30088cf50000300320066444400f8
:101c600088cf500004003a008002eb006033b800d7
:101c70000498be000690be00801090000138a300ba
:101c8000140032003002be002003be00e00f5200fc
:101c9000e08f5a00e00f5b00e08f5b000d00320028
:101ca00081c7b300814f51000300320081c5b300ea
:101cb000814f510007003a00f000900004c3b300c8
:101cc00084f178008100e80082f178008100e8006a
:101cd00071009800f000900081814100630098003d
:101ce000824078003e003700a0619000c4c6b30077
:101cf0001181e90084cf5100220032000a003c002b
:101d00006442520084cf51002500320004c2e80032
:101d100084cf5100130032006842520084cf51003a
:101d20001e003a000a00370044c7b30084cf5100b8
:101d30001b0032006642420084cf5100180032007e
:101d40006942520084cf510014003a000500370068
:101d5000820878009200780040589000804878000f
:101d60002c0037008208780092007800600a90000a
:101d7000cfa2de00612bb9008498be008690be0021
:101d800024003700820878009200780060099000f3
:101d9000cf91de008288be001e0037001181e9006d
:101da000820878009200780060089000800878002f
:101db000180037001181e9008208780012027800cb
:101dc000cfa2de00612bb9000498be000690be00d1
:101dd000f0009000818141006300980081c7b3004a
:101de0001b0007000b003700f000900082f1780024
:101df00006003700f0009000818141000204e000fd
:101e000001003a0052c2b300824978008100e80024
:101e1000710098000000eb004f04780000000600fd
:101e2000020037000304e0000600320000017800e1
:101e300002007800b041780081cf5100f9ff3a00ec
:101e4000010037000001eb000200780000000600ee
:101e5000fc874700889fbe008a9fbe008c9fbe0003
:101e60008e1f78000006780080c5b30080cf500038
:101e70000a0032007740400080cf50000a00320054
:101e80006940400080cf50000b003200d096200007
:101e900080bf9f00ae0020000a003700c2952000de
:101ea00082bf9f0006003700d396200083bf9f00ab
:101eb0008e00200003003700d496200084bf9f00ce
:101ec0000e0120003c02be002c03be000605be0031
:101ed0000404be0040c6b30080cf500003003200af
:101ee0006540400080cf50000b003a00e00f5200e8
:101ef000e08f5a00e00f5b00e08f5b0006003d00c2
:101f00006000b8006011b8000404500085845800d7
:101f10000605590087855900e80f57000400320074
:101f200040002000f00f570038003a000100370051
:101f300030002000e00f5400e08f5c00e00f5d00f7
:101f4000e08f5d0004003a00dc0890008d01200065
:101f50000100e000060032008e00e9008880600089
:101f60008fba9700e5c07800f1ef9f007d01200057
:101f7000800078008100e900050033008b05d10066
:101f80000a85d3008984d3000884d300f9ff370081
:101f9000089ebe000a96be00120037008d06e900ba
:101fa0008e00e900848060000fb99700e2c17800dc
:101fb00082fd2f000f01410003f17e0080007800b8
:101fc0008100e900050033008783d1000683d30038
:101fd0008582d3000482d300f9ff3700049ebe003f
:101fe0000696be003c02be002c03be00e00f52006d
:101ff000e08f5a00e00f5b00e08f5b008b00340045
:102000000d00e000e5ff3c00880037002c609000e8
:1020100081c6b300814f50000b00320006003c0027
:102020000004e00008003200e6c05000814f50007c
:102030004e003a0004003700c1c6b300814f500083
:102040004a003a00210037000800e00004003a008e
:102050005c0890008d0120000000e00006003200c6
:10206000110009000e84d8000fb99700e2c0780073
:10207000f1ef9f007d012000110009000e84d800bf
:102080000a003700110009000e04d8008d06e9008f
:102090000e81b900020454008fb8970061417c00a2
:1020a00081fd2f008f80400082f07e0000047800c8
:1020b0000800e000020032000d00e000f1ff3c00eb
:1020c000cfc4de00614db90025003700e00f540099
:1020d000e08f5c0004003a005c0890008d01200055
:1020e0000000e000070032006171b9000800be0086
:1020f000530107008fb99700e3417800f3ef9f0089
:102100007d0120006171b9000800be0003fd0700d9
:102110000b0037006171b9000800be0039010700eb
:102120008d06e90000f1b900020454000fba9700cf
:10213000e4427c0084fd2f000f02420005f27e0085
:102140000004be00e00f5000e08f58000200320093
:102150000d00e000efff3c004fcdde008a05780067
:10216000089ebe000a96be0030003700e00f540003
:10217000e08f5c00e00f5d00e08f5d0004003a003e
:102180005c0890008d0120000000e0000900320092
:102190006172b900612bb9000800be000a01be00df
:1021a000ca0107000fba970064427800f4ef9f005d
:1021b0007d0120006172b900612bb9000800be00ea
:1021c0000a01be00ba0107000d0037006172b900b4
:1021d000612bb9000800be000a01be00bf01070064
:1021e0008d06e90000f2b900040454008fba97008c
:1021f00065427c0085fd2f008f82420084f27e00c4
:10220000009ebe000296be003c04be002c05be002f
:10221000e00f5400e08f5c00e00f5d00e08f5d0098
:10222000020034000d00e000e8ff3c00e80f57001a
:1022300010003a000c1090000038a3000d0032008e
:10224000f78f560006003e0085fd2f008f8242006a
:10225000e5c07e0000c3b30080cf5000050032000f
:102260008d06e90002c3b30081fd2f008f8040007e
:1022700082f07e0078811600120e98006c009000ab
:1022800083fd2f008f8141008d8041000dfd0700ef
:102290001c089000dc089000810f500006003d00f3
:1022a00000805000000e98000c1090000040a1002b
:1022b000001698000f0037000100e0000d003d00ff
:1022c0008c109000f4806000f08f500009003a00fc
:1022d0007c099000fc009000810051000c099000e6
:1022e00082805000008050004240a900010034006c
:1022f000000e98004f0778004f06be004f05be0045
:102300004f04be00cf01b100000006000400fa0037
:10231000889fbe008a9fbe008c1f78000004780052
:1023200001067800f80d9000780090008085550037
:102330000808900080855500180890008085550099
:102340002808900080855500380890008085550049
:1023500048089000808555000002220090bf9f0031
:1023600000032300a0bf9f00081090000028a300d6
:1023700015003a000b00e000130034000b05780054
:102380008a047800e20f5500010036002900200081
:10239000c801900009017800ee80570058009000b5
:1023a00003000100500498000000e0008c0032009f
:1023b0006808900009004000600c9800090555006d
:1023c0004240a900eeff3c00780190000200e000ce
:1023d0000c003400c80190008c0078005800900078
:1023e00003000100500498008080eb000000e00032
:1023f0007c003200e80890007800900000804000e7
:10240000600c9800880c90000900e0001100340076
:1024100009057800e28f5400010036002a002000f0
:10242000c80190000a017800ec8057005800900025
:1024300003000100500498000000e0006800320032
:10244000680890000a004000600c98008a845400dc
:10245000edff3700180990000200e0000c00340086
:10246000c8019000e80090005800900003000100af
:10247000500498008080eb000000e000590032001a
:10248000e80890001808900000804000600c980058
:10249000a80c90000900e000110034000905780044
:1024a000e28f5400010036002a002000c80190008d
:1024b0000a017800ec8057005800900003000100ea
:1024c000500498000000e0004500320068089000c9
:1024d0000a004000600c98008a845400edff370029
:1024e000380990000200e0000e003400e80090007f
:1024f0001808900080804000c801900058009000ab
:1025000003000100500498008080eb000000e00010
:1025100034003200e8089000380890000080400045
:10252000600c9800c80c90000900e0001100340015
:1025300009057800e28f5400010036002a002000cf
:10254000c80190000a017800ec8057005800900004
:1025500003000100500498000000e0002000320059
:10256000680890000a004000600c98008a845400bb
:10257000edff3700081090008000eb000028a3005a
:10258000180032000b00e000160034008b047800c5
:1025900009057800e28f5400010036002a0020006f
:1025a000c80190000a017800ee80570058009000a2
:1025b00003000100500498000000e0000800320011
:1025c000680890000a004000600c98008a8454005b
:1025d0004240a900eeff3c008000eb000100370004
:1025e0008080eb00010078004f0678004f05be00a8
:1025f0004f04be000080fa000000060001087800c9
:1026000000000600839f68000100e00002003d001a
:1026100060001000e08018000300e00002003d00b0
:1026200060011100e0811900bcfb07004f00e000d1
:1026300002003b0060001000e0801800000006006f
:10264000b6fb07000400be0000000600889fbe0025
:102650008a9fbe0030044200b0844a0030054b001f
:1026600090854b006000b1000898be000a90be0043
:102670000440e10005c8e10006d0e10007d8e10010
:1026800002003100680040001008e8004f05be005d
:102690004f04be0000000600889fbe008a9fbe0057
:1026a0003004be002005be000418540005985c00ec
:1026b00006185d0007985d00110020000440e1004d
:1026c00005c8e10006d0e10007d8e10001003900ab
:1026d0008000eb00108810004f05be004f04be00c4
:1026e000000006001200fa00889fbe008a9fbe000c
:1026f0008c9fbe00e0b79f00f1b79f0082bf9f0094
:1027000093bf9f000605be000404be000000eb005e
:10271000d0b79f00c0b79f00b0b79f00a0b79f0081
:1027200090b79f000006eb005fb19700cfb0970015
:10273000820141003fb097000200e00004003d002c
:10274000370007007e805700c0ff070003003700f6
:10275000330007007e805700cfff0700dfb69700e9
:102760000d00e0000c0035006fb29700ffb297003b
:102770000fbb97009fbb97001000200001002000b6
:102780006011b800000272008182720002037300bf
:10279000838373001b0007000c06e800010420007f
:1027a000810f5600e0ff3a000d00e00004003d00fc
:1027b0000802be000a03be007e805700a3ff070088
:1027c0005fa897000000e00005003a001fb29700e4
:1027d000afb297003fb39700cfb39700090007004f
:1027e0006fb09700ffb097000fb997009fb997009f
:1027f0004f06be004f05be004f04be000080fa0029
:10280000000006000100070000000600a4b79f00ba
:10281000b5b79f00c6b79f00d7b79f00000006005e
:102820004f09de0082817100b3b79f004f01de00c7
:102830008180400082807000a1b79f008fb0970018
:102840004f09de00000040000200700090b79f00ba
:102850007fa897004f01de008180400082807000d9
:1028600081b79f000d0007004f3ade0000004000d6
:1028700004007000f0af9f0008000700040242004f
:1028800085824a0006034b0087834b00dfff070069
:102890000802be000a03be00000006002fb2970027
:1028a000bfb297004fb39700dfb397000000060058
:1028b000881f780018002000881f780089ff070013
:1028c0008f87e9004f04780000000600801feb00ae
:1028d00084ff07008f87e90000000600889fbe0084
:1028e0008a9fbe00e00f5000e08f5800e00f5900b3
:1028f000e08f59000c003d006044b8006055b800fe
:102900000000540081805c0002015d0083815d0055
:10291000180020001500070008003d0018000700ff
:102920000004eb00050037000004eb000f00070077
:1029300002003d001200070018002000dcff070025
:102940000800e000060032006022b8006033b800e2
:102950000000520081805a0002015b0083815b000d
:102960004f05be004f04be0000000600e00f5200fd
:10297000e08f5a00e00f5b00e08f5b000000060074
:102980006044b8006055b8000402540085825c00c1
:1029900006035d0087835d0000000600889fbe007f
:1029a0008a9fbe008c1f7800e00f5000e08f580017
:1029b000e00f5900e08f59000d003d006044b80061
:1029c0006055b8000000540081805c0002015d0089
:1029d00083815d001c0020000820e10009a8e100bf
:1029e0000ab0e1000bb8e1000d003d00080037001f
:1029f0000006eb00e00f5200e08f5a00e00f5b0092
:102a0000e08f5b0006003d006044b8006055b800f0
:102a10000402540085825c0006035d0087835d002c
:102a2000aaff07000c00e000060032006022b80098
:102a30006033b8000000520081805a0002015b0040
:102a400083815b004f0678004f05be004f04be0037
:042a5000000006007c
:020000040000fa
:102a5400000000006400000000000000e803000023
:102a6400f4010000641900000a000000f4010000f1
:102a7400f40100008813000000000000ffff0000c4
:102a8400000000001400000000000000007d0000b1
:102a940000000000ffff0000000000001e00000016
:102aa4000200000014000000640000008403000021
:102ab40000000000140000004943000031420000ff
:102ac40055460000203a000020250000750d000046
:102ad4000a000000707500006c730000655f000060
:102ae400746900006d650000203a00002025000094
:102af400640d00000a00000073740000617200009d
:102b0400746900006e6700002e2e00002e00000085
:020000040000fa
:102b14000600fa009e68a900ca01a800c04280000d
:102b2400e20f50000c013200e20f500005003e009d
:102b34000000e00008003200e10f5000fd00320008
:102b440095013700e30f500008003200e40f5000f5
:102b54006500320090013700d1e2a900d621ef00d0
:102b6400d821ef00da21ef009301370032438000cf
:102b740043438000304680008000eb000001510098
:102b840081815900404680008000eb00009ab90022
:102b940004027800028bb900860278000502420024
:102ba4000013b8001607980027079800ae0390009a
:102bb4000702420024079800823e20001e02900073
:102bc400ae0290001100090042aad80020498800f2
:102bd40020498000fe0f500002003600e001200072
:102be40020498800204980000000e00002003a00eb
:102bf4005428ef0020003700304680006101b800ff
:102c04003043800041438000800f5100818f590080
:102c140017003100d1e2a800204980006101b8000a
:102c24004049800051498000009ab90004027800ac
:102c3400028bb90086027800050242000013b80036
:102c44001607980027079800ae0390000702420079
:102c540024079800821620001e029000ae02900005
:102c64001100090042aad800a042880002003700df
:102c7400d1e2a9005428ef0000488000210320007d
:102c84008080400030498000808f50000300310074
:102c9400604980000000e800604988000048800026
:102ca400e1fc2f008080400030498000808f50007c
:102cb40003003600604980000000e9006049880094
:102cc40060498000f40f5000020034009e28a800e0
:102cd4002c29ef0060498000f40f400002003d0001
:102ce4009e28a9002c29ef002829ef002a29ef00ab
:102cf4000000eb00000f78000d0037001e00780084
:102d040080004000e0872000008040001000780030
:102d14006101b80040498000514980000200400030
:102d24008380480040498800514988001e0fe8000c
:102d34001e007800ef0f5000f0ff3600404980007d
:102d440051498000cd0add004300de00008072009e
:102d5400c308de004049880051498800404980008a
:102d6400514980000001780006b52f00171c20008f
:102d740016079800270798001e029000ae029000e4
:102d84001100090042aad8004300de00304988003f
:102d9400f6478000304980008000eb008207200065
:102da4000289b900020178006002b9008401780048
:102db40003014100830720000302b80014079800b0
:102dc40025079800ae0290000501410022079800f3
:102dd4001e019000ae019000110009004699d80030
:102de4008000eb003043880041438800f1448000b8
:102df40000022000008060000000e0003200320089
:102e040011468000001420000088b90000007800fa
:102e1400d0468800304380004143800000007800a1
:102e2400c0468800208d2000a8f80700b046800026
:102e34000000e00001003d00d628ef00b14680000c
:102e440070eb2700808f50000500340050b820003c
:102e5400b00e880070eb2700b046880015003700dc
:102e6400b0468000cf80de0052b820000289b9004d
:102e7400020178006002b900840178000301410076
:102e840053b820000302b8001407980025079800df
:102e9400ae029000050141002207980072eb270062
:102ea4001e029000ae0290001100090042aad80050
:102eb400b00e8800b00e8000c00e8800b00e8000f6
:102ec400d00e8800bc003700f144800000042000cc
:102ed400008060000000e000b40032001042800076
:102ee4008000eb0052b820000289b900020178008a
:102ef4006002b900840178000301410053b8200046
:102f04000300b8000101410082007800f23f200074
:102f14000300200080f9070000007800b00e88004c
:102f2400b00e8000c00e8800b00e8000d00e880065
:102f3400a1003700a3000700804280000080d10078
:102f44002043880020002000c04288002c29ef0084
:102f54009e28a90098003700d0428000e10f50005d
:102f640020003200e10f500005003900e20f50004c
:102f740035003200e30f50003e003200830037007a
:102f840040458000b00e8800b00e8000c00e88005e
:102f9400b00e8000d00e8800604580000000e9007b
:102fa40060458800604580000000e0000c003a00a5
:102fb400304280000000e800304288003042800047
:102fc400e50f5000010034004628ef003042800035
:102fd400b0f70700d04280000000e800d04288002b
:102fe4006c00370050458000b00e8800b00e8000a1
:102ff400c00e8800b00e8000d00e8800704580009e
:103004000000e90070458800704580000000e00081
:103014000c003a00304280000000e8003042880092
:1030240030428000e50f5000010034004628ef00d4
:103034003042800097f70700d04280000000e8008b
:10304400d0428800530037002e29ef0080458000cd
:1030540080498800b045800090498800b0458000d0
:10306400a0498800d04280000000e800d0428800d7
:103074004800370071498000a245800010c0b300a9
:10308400828f5000010031000040eb008100e80015
:10309400714988000004e000080032005a28ef005b
:1030a40030002000c042880021e1a9008ec0a900a0
:1030b4008460a9008c60a800330037007149800047
:1030c400d045800080027800110009008580d80076
:1030d4008000fd000000e00003003a008049800009
:1030e4000000e8008049880080498000b00e880014
:1030f400b00e8000c00e8800b00e8000d00e880094
:1031040071498000e0458000000378001100090047
:103114008680d8008000fd000000e00006003a0030
:10312400904980000000e90090498800a04980008f
:103134000000e900a04988009149800010c0b30054
:103144000100e000010034000040eb008100e900d0
:10315400914988000004e0000b003200a04980007f
:1031640090498800304280000000e8003042880026
:1031740030428000e50f5000010034004628ef0083
:103184003042800043f70700020037005a28ef005e
:103194000000000008003700c0428000e40f500027
:1031a400040036005828ef00030037000000000038
:1031b4000100370000000000ca01a9000080fa00e5
:1031c400000006000200fa0061a98400f0468000b5
:1031d400808f50000200310060a98400f04688000e
:1031e40061a9840000478000808f500002003100f4
:1031f40060a984000047880061a9840030478000ea
:10320400808f50000200310060a98400304788009c
:1032140061a9840040478000808f50000200310083
:1032240060a984004047880061a98400e0478000c9
:10323400808f50000200310060a98400e0478800bc
:1032440081a9840010478000808f50000200310063
:1032540080a984001047880081a984002047800049
:10326400808f50000200310080a98400204788002c
:1032740091a9840050478000808f500002003600de
:1032840090a9840050478800a1a984005047800079
:10329400808f500002003100a0a9840050478800ac
:1032a400b1a9840060478000808f5000020036007e
:1032b400b0a9840060478800c1a9840060478000e9
:1032c400808f500002003100c0a98400604788004c
:1032d400d1a9840070478000808f5000020036001e
:1032e400d0a9840070478800e1a984007047800059
:1032f400808f500002003100e0a9840070478800ec
:1033040041aa8400a0478000808f50000200310051
:1033140040aa8400a047880041aa8400b0478000e6
:10332400808f50000200310040aa8400b04788001a
:1033340041aa8400c0478000808f50000200310001
:1033440040aa8400c047880001aa84008047800006
:10335400808f50000200310000aa8400804788005a
:1033640021aa840090478000808f50000200310021
:1033740020aa84009047880061aa8400d047800076
:10338400808f50000200310060aa8400d04788007a
:1033940081aa8400e0468000808f50000200310042
:1033a40080aa8400e046880091aa8400f047800047
:1033b400808f50000200360090aa8400f0478800f5
:1033c400a1aa8400f0478000808f500002003100e1
:1033d400a0aa8400f0478800b1aa840000488000b5
:1033e400808f500002003600b0aa84000048880094
:1033f400c1aa840000488000808f50000200310080
:10340400c0aa840000488800d1aa84001048800023
:10341400808f500002003600d0aa84001048880033
:10342400e1aa840010488000808f5000020031001f
:10343400e0aa840010488800f04680008000eb0079
:1034440052b820000289b900020178006002b90074
:10345400840178000301410053b820000300b80040
:103464000101410082007800420620000300200090
:1034740029f80700000078004045880000478000d4
:103484008000eb0052b820000289b90002017800e4
:103494006002b900840178000301410053b82000a0
:1034a4000300b800010141008200780042062000b8
:1034b4000300200018f80700000078005045880039
:1034c400104780006a00b900000078006045880059
:1034d400204780006a00b900000078007045880029
:1034e400304780008000eb0052b820000289b90008
:1034f400020178006002b9008401780003014100f0
:1035040053b820000300b800010141008200780094
:103514004206200003002000fff7070000007800a7
:1035240080458800404780008000eb0052b82000ae
:103534000289b900020178006002b90084017800b0
:103544000301410053b820000300b8000101410009
:10355400820078004206200003002000eef70700f6
:103564000000780090458800504780006a00b90048
:1035740000007800a0458800f04780006101b80091
:10358400604780008000eb00009ab90004027800d4
:10359400028bb90086027800050242000010b800d0
:1035a40001024200840078000001be0000d4200023
:1035b40031002000d8f7070000007800b0458800eb
:1035c400f04780006101b800704780008000eb0084
:1035d400009ab90004027800028bb90086027800d0
:1035e400050242000010b800010242008400780085
:1035f4000001be0000d4200031002000c6f70700ff
:1036040000007800c0458800b1458000c0458000b6
:10361400808f500003003100c04580000080e80026
:10362400b0458800a1458000b2458000c0458000b7
:103634000000510000017800110009008280d800c8
:103644000000e800e0458800914580008045800046
:10365400808f500003003100804580000080e80026
:1036640090458800a14580009245800080458000f7
:103674000000510000017800110009008280d80088
:103684000000e800d0458800f04780006101b800e0
:103694004318dd00cd10de00810070004310dd0012
:1036a4000001be00006c2e00619726009af7070007
:1036b400f045880001468800804780004a00de000b
:1036c4000000e800104688009047800020468800eb
:1036d400d047800030468800e0468000404688009d
:1036e4008047800050468800a047800060468800dc
:1036f400b047800070468800c0478000804688003c
:10370400c08320009046880060bd2000a046880049
:10371400218d2000c08c200095f607000000eb00ee
:10372400000f7800070037001e007800800040007a
:1037340060bd2000008040008000eb00010878009c
:103744001e0fe8001e007800e20f5000f6ff3e0056
:10375400c0428000e10f500012003a00e0478000b0
:103764008000eb0072eb27000289b90002017800a7
:103774006002b900840178000301410073eb270063
:103784000300b800010141008200780042062000d5
:103794000300200060f7070000007800b0468800ae
:1037a40001003700d628ef000000eb00000f78007e
:1037b4001a003700f04780006101b80060478000bc
:1037c4008000eb00009ab90004027800028bb90073
:1037d40086027800050242000010b800010242008f
:1037e400840078004309dd00cd01de00830171000f
:1037f4004301dd00006c2e006197260046f70700a8
:10380400800078001e00780000014000e08720005e
:1038140000004100010878001e0fe8001e00780037
:10382400ef0f5000e3ff36000080fa0000000600ae
:020000040000fa
:1038340038090000240000000200000002001e00fd
:103844000800ff00dc0be2000b00000002001e0079
:103854000800ff00e80bee000b00000002001e0051
:103864000800ff00f40bfa000b0000000008000041
:103874003c000000020000004b02960004de5500ec
:103884004b02f600e03d02007a041e00663d020091
:10389400f9ce54000e540e007a28000000000000f7
:1038a400440589000a253e004405c800ec8405004f
:1038b400080b4a004f840500d3d5810015811500fb
:1038c400b41c000000000000dc0b00002400000019
:1038d4000000000042080000660000000000000034
:1038e400040900002000000002000000ffff0200a5
:1038f4000004000003000000000100000500ff00b8
:10390400ff0006000012000018000900002100005a
:103914002403000040010000a80800003600000055
:10392400000000003c080000060000000000000049
:10393400d60b00000600000000000000de080000b6
:1039440026000000020000001900190000f4010024
:10395400f4012d0000320000b80bc800001c0c005c
:10396400401f030000581b002c01e80003881300cb
:1039740032000e0000fa00000a00000024090000d2
:1039840012000000000000003609000002000000e0
:10399400000000007e0900001a0000000200000080
:1039a400686a6c00747a4c00000001000002000098
:1039b4000400080000100000000020002b2d23004c
:1039c400300000005c09000022000000020000003a
:1039d4003031320033343500363738003941420053
:1039e400434445004600300031323300343536005c
:1039f40037383900616263006465660000000000c6
:043a040000000000be
:020000040000fa
:103a08003e00fa009e88a90071168000000024007c
:103a1800008060000000e0000a003a006e18900084
:103a2800610060000000e00006003a009e08a9005e
:103a38006e1890000000a000601f98001000200081
:103a4800c0428800711680000000220000806000db
:103a58000000e00006003a005828ef009e08a90080
:103a68005a28ef006e1890000010a000601f980000
:103a78006e189000610060000000e000080032004d
:103a88007116800000002400008060000000e00043
:103a9800030032006e1890000000a100601f98001b
:103aa8006e189000620060000000e000080032001c
:103ab8007116800000002200008060000000e00015
:103ac800030032006e1890000010a100601f9800db
:103ad800b04980000000e800b0498800b149800082
:103ae80010032000808f5000130036003629ef00a5
:103af800000a8000801f7800e0552900801f7800a8
:103b08000e007800fbf60700e48757000e007800e7
:103b18003200070010498000801f7800c056290035
:103b2800801f78000e007800f2f60700e48757003f
:103b38000e007800290007000080fa000000060047
:103b48000400fa00881f7800000028006010880030
:103b58000e22ef0050d52f00f1162400008fbe0072
:103b68001e00be00f4f5070000007800cf80de00dc
:103b780012f607000001be001e00be008ef5070009
:103b880018c0b3000200200003f02300e8f5070086
:103b98000000e000010035000044eb000804e000ec
:103ba800050032001e00be00e3f5070000007800a3
:103bb800a0108800050037001e00be00def50700d3
:103bc800000078000000e800a01088000f42a8005c
:103bd8004f0478000080fa00000006000200fa0096
:103be800000f78000b003700000000007110800003
:103bf80000202000008060000000e000fbff3a0089
:103c08001e007800104078000000fb00801088003b
:103c18001e0fe8001e007800104078000004e00045
:103c2800f1ff3a000080fa0000000600881f7800c3
:103c3800891f78008a1f78008b1f78004400f800dd
:103c48003400f8002005900008f02f000a40e10039
:103c580003003200480f2000aa0188000100370045
:103c6800080f20002802880000029000d00490006d
:103c78008301e9000380080015000000100490008b
:103c88003103780030059000c0059000b802780034
:103c98009a00ca00048008000a0000005210c400fc
:103ca8009b80ca008707cd005290c4005290c5007f
:103cb800ba87cd005390c4008607cd009a00ca0089
:103cc8005290c500bb87cd000600ca000900c80095
:103cd8003200cd003400f9004400f900cf05780027
:103ce8004f057800cf0478004f04780000000600e4
:103cf800b000900040019000000090000080080093
:103d0800010000008018eb000019eb00000006001d
:103d18001400fa009ec8a8009ea8a8001000200061
:103d2800901688000000260060168800d022ef0058
:103d3800d622ef000080eb00f01688000001280072
:103d48002008880000012000f00888001421ef00f6
:103d580086a0a9008ea0a9001fe1a80000012000ec
:103d6800000988001821ef0086c0a9008ec0a900ac
:103d7800310007001c0007004200070070ff070021
:103d880080932000daff070040942000d8ff070046
:103d980000952000d6ff07005828ef00c200200039
:103da800e15729000e00780044f607000e0078005d
:103db8008aff07000100370000000000f04480007f
:103dc800680060000000e000010032004ffb0700bf
:103dd800f0448000700060000000e000f6ff320050
:103de80007ff0700f5ff37000000fa00a842a90006
:103df800a802a900a862a900a882a900a8a2a900ef
:103e0800400e200000158800004120001015880091
:103e180090c0200020158800d0032000501588008d
:103e2800a622ef008560a9008d60a800a1e2a80085
:103e38000080fa00000006000000fa00d421ef001c
:103e4800205c2000200e880070772000400e88003b
:103e5800a0032000600e8800d021ef00d621ef00db
:103e6800d821ef00da21ef00c621ef00000028007a
:103e7800000e880088e0a90090e0a8000080fa0001
:103e8800000006000000fa0042e1a800100a8000c5
:103e98000050a1000060a100100a88008420a90039
:103ea8008c20a800100a80000000a0000010a000cc
:103eb8000020a100100a88000080eb00600888003c
:103ec80000002800800888000080fa000000060032
:020000040000fa
:0200000401f009
:04000000e3bf00005a
:020000040000fa
:0200000401f009
:04000400ff7f00007a
:020000040000fa
:0200000401f009
:04000800cfff000026
:020000040000fa
:0200000401f009
:04001400ffff0000ea
:020000040000fa
:0200000401f009
:04001800ffff0000e6
:00000001FF
