:020000040000fa
:080000000001040000000000f3
:020000040000fa
:1000080036080000b6070000c6070000d607000043
:10001800e607000036080000360800003608000031
:1000280036080000360800003608000056020000b6
:10003800360800003608000086020000c4020000ee
:100048003608000036080000360800009a01000053
:1000580036080000360800003608000036080000a0
:100068003608000036080000360800003608000090
:100078003608000036080000360800003608000080
:100088003608000036080000360800003608000070
:100098003608000036080000360800003608000060
:1000a8003608000036080000360800003608000050
:1000b8003608000036080000360800000203000079
:1000c8003608000036080000360800003608000030
:1000d8003608000036080000360800003608000020
:1000e8003608000036080000360800003608000010
:0800f800360800003608000084
:020000040000fa
:1001080036080000f6070000060800001608000080
:1001180026080000360800003608000036080000ef
:1001280036080000360800003608000056020000b5
:10013800360800003608000086020000c4020000ed
:100148003608000036080000360800009a01000052
:10015800360800003608000036080000360800009f
:10016800360800003608000036080000360800008f
:10017800360800003608000036080000360800007f
:10018800360800003608000036080000360800006f
:10019800360800003608000036080000360800005f
:1001a800360800003608000036080000360800004f
:1001b8003608000036080000360800000203000078
:1001c800360800003608000036080000360800002f
:1001d800360800003608000036080000360800001f
:1001e800360800003608000036080000360800000f
:0801f800360800003608000083
:020000040000fa
:100200008f9520006ebc20000e01880000000000c9
:10021000000020000000e000020032000001200089
:10022000200288000c00070060f920000100200077
:1002300011000700000020000000e0000200320072
:100240000000020000000000201102000000000079
:100250000040da000000fe004440a90040032000f6
:100260000000e0000300320000002000a001880030
:100270004440a8000000060091018800800078003a
:100280000000eb0015003700e280400032a0b4000f
:100290009101ba00e280400032a0b4009102ba009d
:1002a000e280400032a0b4000002eb00472bde00e9
:1002b000f507b200602ce10004003a000059eb00a1
:1002c0008301e900fdff3e00040037006128e100e2
:1002d000010032000082eb00040007001101ba00a7
:1002e0000200e000e8ff3a00000006003159ba00c1
:1002f0008301e9000c0032002159ba008301e900b2
:10030000080032000400e00003003a00e2804000f0
:1003100032a0b400f5ff370011d9ba008301e9001b
:10032000faff3a008100e800e180400032a0b4000a
:10033000000006003600f800809fbe00829fbe00cd
:10034000849fbe00869fbe003400f800000020009d
:10035000a00188000200fa008560a9001142800017
:1003600000148000008040000000d100104288008e
:10037000004980000000e0000a00320000498000cf
:100380000000e90000498800504380005042880086
:1003900060438000604288007043800070428800a3
:1003a000060037002014800050428800301480007e
:1003b00060428800401480007042880080428000c3
:1003c0008000780010148000008040000000d10000
:1003d00080428800c0428000e30f500005003e00cc
:1003e000e20f5000210031000000e0000400320064
:1003f00020003700e40f5000030032001d003700da
:10040000d421ef0021003700a01680004800de0054
:100410006700600020428800204280008000400089
:10042000409020000080400010007800304288009a
:100430001e0fe80030428000e10f400003003a0048
:100440001e007800e30f5000efff340031428000bf
:1004500040428000808f5000040032003042800013
:10046000900207000621ef0084c0a9008600070063
:1004700006003700c0428000e40f50000200360042
:100480005828ef0001003700000000000080fa004b
:100490003400f9004f03be004f02be004f01be0002
:1004a0004f00be003600f90000400600809fbe00ed
:1004b000821f78003400f80000002000a0018800ae
:1004c0000000fa008460a900914280001248800078
:1004d00010c0b300828f5000010031000040eb00db
:1004e0008100e800914288000004e0000200320030
:1004f0008c60a9005828ef000080fa003400f90051
:100500004f0178004f00be00004006003600f800a2
:10051000809fbe00829fbe00849fbe00869fbe005b
:100520003400f80000002000a00188000000fa005c
:100530000621ef0084c0a900c0428000e30f5000f4
:1005400009003a00304280000000e8003042880094
:1005500030428000e50f5000010034004628ef00d3
:10056000304280004f0207000080fa003400f9009a
:100570004f03be004f02be004f01be004f00be0041
:100580003600f900004006003600f800809fbe00eb
:10059000829fbe00849fbe00869fbe003400f8008c
:1005a00000002000a00188000000fa0013e1a9006b
:1005b0000a21ef000621ef0084c0a90084e0a90011
:1005c0008ce0a9005228ef00c0428000e30f5000e9
:1005d00004003a00804380003042880030428000ae
:1005e000300207000080fa003400f9004f03be001b
:1005f0004f02be004f01be004f00be003600f900a2
:1006000000400600809fbe003400f800000020007b
:10061000a00188000000fa0088e0a900f0428000f4
:100620000000e800f0428800f1428000700c2000d9
:10063000808f5000020036005e28ef009e88a800e0
:10064000e04280000000e800e0428800e0428000d4
:10065000f30f5000020036005c28ef009e68a800ef
:10066000c0428000e20f500003003a00e0428000e8
:1006700069004000e04288000080fa003400f90080
:100680004f00be00004006000600fa002045800032
:10069000e50f50000d003e00e0812000b0498800c9
:1006a00013002000c2862000c18420000094200096
:1006b0007406070013002000e2862000e184200079
:1006c000c09420006f060700020037000080200061
:1006d000b049880013002000a2862000a1842000d9
:1006e0004093200067060700814280002000200020
:1006f00000017800110009008200d8008000780015
:100700003045800000804000204388005143800035
:1007100020438000008050006101b9000043800048
:10072000114380000200400083804800004388009d
:100730001143880000438000114380004309dd001d
:100740004d00de0000007100cd88de000000780062
:100750003045880020458000e50f500004003e0031
:10076000a0428000e017b000100798000300370097
:10077000a0428000c016b0001007980020458000fd
:100780008000eb009200200003002000820f500048
:10079000838f5800a7013e00006001000900370068
:1007a000320037005b00370084003700bf0037009d
:1007b000e80037000f013700150137004c01370002
:1007c000520137005143800020438000808f500049
:1007d0009b013d0020458000010880000001400091
:1007e0002087200000004100010878000021ef0070
:1007f000ba010700000f78001e0090009e007800ec
:10080000808f5000020031009e009000010f7800a0
:100810001e0090001e0010007008880030002000ac
:100820008043880013e1a8008ce0a800b04280005b
:100830006f0160001e0078006600b900800078003b
:1008400002014100e087200000004100010878001b
:10085000b04280000000e800b042880020458000df
:100860000000e800204588008c01370071438000bb
:1008700020438000808f50007301340020458000a9
:100880000108800000014000208720000000410096
:10089000010878000021ef0090010700000f7800a8
:1008a0001e0090009e007800808f500002003100f2
:1008b0001e019000020f78001e0090001e00100024
:1008c00070088800400020008043880013e1a800e1
:1008d0008ce0a800b04280006f0160001e0078002c
:1008e0006600b9008000780002014100e087200026
:1008f0000000410001087800b04280000000e800dc
:10090000b0428800204580000000e80020458800b3
:10091000620137006143800020438000808f5000d7
:100920004b013d002045800001088000000140008f
:100930002087200000004100010878000021ef001e
:1009400066010700000f78001e0090009e007800ee
:10095000808f5000020031009e009000010f78004f
:100960001e0090001e00100070088800500020003b
:100970008043880013e1a8008ce0a800b04280000a
:100980006f0160001e0078006600b90080007800ea
:1009900002014100e08720000000410001087800ca
:1009a000b04280000000e800b0428800204580008e
:1009b0000000e800204588003801370051438000de
:1009c00020438000808f50002301340020458000a8
:1009d0000108800000014000208720000000410045
:1009e000010878000021ef003c010700000f7800ab
:1009f0001e0090009e007800808f500002003100a1
:100a00001e019000020f78001e0090001e001000d2
:100a1000700888007028ef0013e1a8008ce0a8009f
:100a2000b04280006f0160001e0078006600b900cf
:100a30008000780002014100e087200000004100b2
:100a400001087800b04280000000e800b042880051
:100a5000204580000000e80020458800f044800028
:100a6000620060000000e000fd0032006000200035
:100a7000204588000621ef001e007800000040009d
:100a80006008880084c0a9008cc0a8009e48a80007
:100a9000a1e2a900d000200050158800804020006d
:100aa00010158800a1e2a800fc0037007143800007
:100ab00020438000808f5000eb003d0020458000e7
:100ac0000108800000014000208720000000410054
:100ad000010878000021ef0000010700000f7800f6
:100ae0001e0090009e007800808f500002003100b0
:100af0009e009000010f78001e0090001e00100064
:100b000070088800100020008043880013e1a800ce
:100b10008ce0a800b04280006f0160001e007800e9
:100b20006600b9008000780002014100e0872000e3
:100b30000000410001087800b04280000000e80099
:100b4000b0428800204580000000e8002045880071
:100b5000d20037006143800020438000808f500026
:100b6000c3003400204580000108800000014000df
:100b70002087200000004100010878000021ef00dc
:100b8000d6000700000f78001e0090009e0078003d
:100b9000808f5000020031001e019000020f78008b
:100ba0001e0090001e001000700888002000200029
:100bb0008043880013e1a8008ce0a800b0428000c8
:100bc0006f0160001e0078006600b90080007800a8
:100bd00002014100e0872000000041000108780088
:100be000b04280000000e800b0428800a428ef0076
:100bf000aa00370030428000e20f50009e003a0009
:100c0000204580000000e80020458800a300370050
:100c10005143800020438000808f500098003d00a9
:100c2000b04280006f0060000108800000014000b9
:100c3000e087200000004100010878000021ef005b
:100c4000b04280006f00600080004000e08720001c
:100c50000080400090007800b04280000000e90071
:100c60006f00600000014000e087200000004100ac
:100c7000100078000080400020079800ae0090002f
:100c80006000200000017800110009008280d80077
:100c9000600888002e009000c200de001e00900058
:100ca000808f5000020031000e21ef000500370058
:100cb0002e009000c200de001e0090000080500058
:100cc00070088800b04280000000e800b042880050
:100cd000400020008043880013e1a8008ce0a800b9
:100ce000204580000000e800204588006b003700a8
:100cf00030428000e50f500063003a00204580003c
:100d00000000e8002045880064003700514380005f
:100d100020438000808f50005d003400b04280008e
:100d20006f0060000108800000014000e0872000a3
:100d300000004100010878000021ef00b04280006f
:100d40006f00600080004000e087200000804000cd
:100d500090007800b04280000000e9006f00600061
:100d600000014000e08720000000410010007800f2
:100d70000080400020079800ae0090006000200036
:100d800000017800110009008280d8006008880006
:100d90002e009000c200de001e009000808f5000e8
:100da000020031000e21ef00050037002e009000f8
:100db000c200de001e009000008050007008880015
:100dc000b04280000000e800b0428800100020001f
:100dd0008043880013e1a8008ce0a8006000200098
:100de00020458800f0448000620060000000e000c0
:100df00029003a0040002000204588007028ef00bc
:100e0000600880008000d1001e009000008050002b
:100e1000700888008cc0a900a1e2a900d0032000be
:100e2000501588000041200010158800a1e2a8009c
:100e30001a003700a428ef00000000001700370058
:100e4000000000001500370000000000130037000c
:100e50000000000011003700000000000f00370004
:100e6000000000000d003700000000000b003700fc
:100e700000000000090037000000000007003700f4
:100e800000000000050037000000000003003700ec
:100e90000000000001003700000000000080fa00a0
:100ea000000006000200fa00000f78001e00780023
:100eb0008000400040912000008040001000780039
:100ec000a00e88001e007800404288002046800066
:100ed000004988000080fa00000006000a00fa00bd
:100ee0006000b80010079800210798000000eb0090
:100ef000000f78000d0037001e00780080004000d1
:100f00002087200000804000100078008000eb0067
:100f10001e019000ae019000020040008380480056
:100f200010079800210798001e0fe8001e007800a7
:100f3000e50f5000f0ff36001e019000ae0190005a
:100f40003207980043079800c20020003e0290003c
:100f5000ce0290001100090042aad800000f7800cc
:100f60001e0078000080fa00000006003400f8003f
:100f7000881f780008002000a80188004f0478002e
:100f80000000fa008020a900ffff37003400f800bd
:100f9000881f780008002000a80188004f0478000e
:100fa0000000fa008060a900ffff37003400f8005d
:100fb000881f780008002000a80188004f047800ee
:100fc0000000fa008040a900ffff37003400f8005d
:100fd000881f780008002000a80188004f047800ce
:100fe0000000fa008080a900ffff37003400f800fd
:100ff000881f780008002000a80188004f047800ae
:101000000000fa008020a900ffff37003400f8003c
:10101000881f780008002000a80188004f0478008d
:101020000000fa008060a900ffff37003400f800dc
:10103000881f780008002000a80188004f0478006d
:101040000000fa008040a900ffff37003400f800dc
:10105000881f780008002000a80188004f0478004d
:101060000000fa008080a900ffff37000040da008e
:101070000000fe001e00fc00881f78008a1f780018
:101080004400f800080f20002802880000049000a7
:1010900010059000a000900030019000c001900069
:1010a0000300ca000280ca000030cb001a00cd0045
:1010b0004604c3000100ca004604c0001e04c0006c
:1010c0000605c0000100cd0021009800050d780044
:1010d000eaba9700052578004400f9004f0578002a
:1010e0004f047800000006000e00fc00801f78000e
:1010f000200090000008eb004f007800801f78006f
:10110000100090000018eb000018eb000008eb0046
:101110004f007800000006001500fc004400f800b5
:10112000020f200022028800910078003000ca00df
:101130003080ca000000cb002080ca000000cb0035
:101140003100cd004000ca000000cb000000cb0001
:101150000010cb003100cd001180cc004400f9001c
:10116000000006006022b800060220000000d00047
:101170008180d2000482d2008582d2000000a000cb
:101180000202520083825a00030031000202420030
:1011900083824a000000a1000603e900f3ff3a0041
:0411a0000000060045
:020000040000fa
:1011a400000000006400000000000000e8030000ec
:1011b400f4010000641900000a000000f4010000ba
:1011c400f40100008813000000000000ffff00008d
:1011d400000000001400000000000000007d00007a
:1011e40000000000ffff0000000000001e000000df
:1011f40002000000140000006400000084030000ea
:081204000000000014000000ce
:020000040000fa
:10120c000600fa009e68a900ca01a800c04280002e
:10121c00e20f50000c013200e20f500005003e00be
:10122c000000e00008003200e10f5000fd00320029
:10123c0095013700e30f500008003200e40f500016
:10124c006500320090013700d1e2a900d621ef00f1
:10125c00d821ef00da21ef009301370032438000f0
:10126c0043438000304680008000eb0000015100b9
:10127c0081815900404680008000eb00009ab90043
:10128c0004027800028bb900860278000502420045
:10129c000013b8001607980027079800ae039000bb
:1012ac000702420024079800823e20001e02900094
:1012bc00ae0290001100090042aad8001049880023
:1012cc0010498000fe0f500002003600e0012000a3
:1012dc0010498800104980000000e00002003a002c
:1012ec005428ef0020003700304680006101b80020
:1012fc003043800041438000800f5100818f5900a2
:10130c0017003100d1e2a800104980006101b8003b
:10131c003049800041498000009ab90004027800ed
:10132c00028bb90086027800050242000013b80057
:10133c001607980027079800ae039000070242009a
:10134c0024079800821620001e029000ae02900026
:10135c001100090042aad800a04288000200370000
:10136c00d1e2a9005428ef0000488000210320009e
:10137c008080400020498000808f500003003100a5
:10138c00504980000000e800504988000048800067
:10139c00e1fc2f008080400020498000808f5000ad
:1013ac0003003600504980000000e90050498800d5
:1013bc0050498000f40f5000020034009e28a80011
:1013cc002a29ef0050498000f40f400002003d0034
:1013dc009e28a9002a29ef002629ef002829ef00d2
:1013ec000000eb00000f78000d0037001e007800a5
:1013fc0080004000e0872000008040001000780052
:10140c006101b80030498000414980000200400071
:10141c008380480030498800414988001e0fe8004d
:10142c001e007800ef0f5000f0ff360030498000ae
:10143c0041498000cd0add004300de0000807200cf
:10144c00c308de00304988004149880030498000db
:10145c00414980000001780006b52f00171c2000c0
:10146c0016079800270798001e029000ae02900005
:10147c001100090042aad8004300de002049880070
:10148c00f6478000204980008000eb008207200096
:10149c000289b900020178006002b9008401780069
:1014ac0003014100830720000302b80014079800d1
:1014bc0025079800ae029000050141002207980014
:1014cc001e019000ae019000110009004699d80051
:1014dc008000eb003043880041438800f1448000d9
:1014ec0000022000008060000000e00032003200aa
:1014fc0011468000104280000088b900000078007e
:10150c00d0468800304380004143800000007800c2
:10151c00c0468800208d2000d3fe0700b046800016
:10152c000000e00001003d00d628ef00b14680002d
:10153c0070eb2700808f50000500340050b820005d
:10154c00b00e880070eb2700b046880015003700fd
:10155c00b0468000cf80de0052b820000289b9006e
:10156c00020178006002b900840178000301410097
:10157c0053b820000302b800140798002507980000
:10158c00ae029000050141002207980072eb270083
:10159c001e029000ae0290001100090042aad80071
:1015ac00b00e8800b00e8000c00e8800b00e800017
:1015bc00d00e8800bc003700f144800000042000ed
:1015cc00008060000000e000b40032001042800097
:1015dc008000eb0052b820000289b90002017800ab
:1015ec006002b900840178000301410053b8200067
:1015fc000300b8000101410082007800f23f200096
:10160c0003002000d4fe070000007800b00e880014
:10161c00b00e8000c00e8800b00e8000d00e880086
:10162c00a1003700a3000700804280000080d10099
:10163c002043880020002000c04288002a29ef00a7
:10164c009e28a90098003700d0428000e10f50007e
:10165c0020003200e10f500005003900e20f50006d
:10166c0035003200e30f50003e003200830037009b
:10167c0040458000b00e8800b00e8000c00e88007f
:10168c00b00e8000d00e8800604580000000e9009c
:10169c0060458800604580000000e0000c003a00c6
:1016ac00304280000000e800304288003042800068
:1016bc00e50f5000010034004628ef003042800056
:1016cc00f5fd0700d04280000000e800d042880001
:1016dc006c00370050458000b00e8800b00e8000c2
:1016ec00c00e8800b00e8000d00e880070458000bf
:1016fc000000e90070458800704580000000e000a3
:10170c000c003a00304280000000e80030428800b3
:10171c0030428000e50f5000010034004628ef00f5
:10172c0030428000dcfd0700d04280000000e80061
:10173c00d0428800530037002c29ef0080458000f0
:10174c0070498800b045800080498800b045800011
:10175c0090498800d04280000000e800d042880008
:10176c004800370061498000a245800010c0b300da
:10177c00828f5000010031000040eb008100e80036
:10178c00614988000004e000080032005a28ef008c
:10179c0030002000c042880013e1a9008ce0a900b1
:1017ac008460a9008c60a800330037006149800078
:1017bc00d045800080027800110009008580d80097
:1017cc008000fd000000e00003003a00704980003a
:1017dc000000e8007049880070498000b00e880055
:1017ec00b00e8000c00e8800b00e8000d00e8800b5
:1017fc0061498000e0458000000378001100090079
:10180c008680d8008000fd000000e00006003a0051
:10181c00804980000000e9008049880090498000e0
:10182c000000e900904988008149800010c0b30095
:10183c000100e000010034000040eb008100e900f1
:10184c00814988000004e0000b00320090498000c0
:10185c0080498800304280000000e8003042880057
:10186c0030428000e50f5000010034004628ef00a4
:10187c003042800088fd0700020037005a28ef0034
:10188c000000000008003700c0428000e40f500048
:10189c00040036005828ef00030037000000000059
:1018ac000100370000000000ca01a9000080fa0006
:1018bc00000006000200fa00a1468400f0468000f9
:1018cc00808f500002003100a0468400f046880052
:1018dc00a146840000478000808f50000200310038
:1018ec00a046840000478800a14684003047800051
:1018fc00808f500002003100a046840030478800e1
:10190c00a146840040478000808f500002003100c7
:10191c00a046840040478800a1468400e047800030
:10192c00808f500002003100a0468400e047880000
:10193c00c146840010478000808f500002003100a7
:10194c00c046840010478800c146840020478000b0
:10195c00808f500002003100c04684002047880070
:10196c00d146840050478000808f50000200360022
:10197c00d046840050478800e146840050478000e0
:10198c00808f500002003100e046840050478800f0
:10199c00f146840060478000808f500002003600c2
:1019ac00f04684006047880001478400604780004f
:1019bc00808f50000200310000478400604788008f
:1019cc001147840070478000808f50000200360061
:1019dc0010478400704788002147840070478000be
:1019ec00808f50000200310020478400704788002f
:1019fc0081478400a0478000808f50000200310096
:101a0c0080478400a047880081478400b04780004d
:101a1c00808f50000200310080478400b04788005e
:101a2c0081478400c0478000808f50000200310045
:101a3c0080478400c047880041478400804780006d
:101a4c00808f50000200310040478400804788009e
:101a5c006147840090478000808f50000200310065
:101a6c006047840090478800a1478400d0478000dd
:101a7c00808f500002003100a0478400d0478800be
:101a8c00c1478400e0468000808f50000200310086
:101a9c00c0478400e0468800d1478400f0478000ae
:101aac00808f500002003600d0478400f047880039
:101abc00e1478400f0478000808f50000200310025
:101acc00e0478400f0478800f1478400004880001c
:101adc00808f500002003600f047840000488800d8
:101aec000148840000488000808f500002003100c3
:101afc000048840000488800114884001048800089
:101b0c00808f500002003600104884001048880076
:101b1c002148840010488000808f50000200310062
:101b2c002048840010488800f04680008000eb00bc
:101b3c0052b820000289b900020178006002b90095
:101b4c00840178000301410053b820000300b80061
:101b5c0001014100820078004206200003002000b1
:101b6c007dfd07000000780040458800004780009c
:101b7c008000eb0052b820000289b9000201780005
:101b8c006002b900840178000301410053b82000c1
:101b9c000300b800010141008200780042062000d9
:101bac00030020006cfd0700000078005045880001
:101bbc00104780006a00b90000007800604588007a
:101bcc00204780006a00b90000007800704588004a
:101bdc00304780008000eb0052b820000289b90029
:101bec00020178006002b900840178000301410011
:101bfc0053b820000300b8000101410082007800b6
:101c0c00420620000300200053fd0700000078006e
:101c1c0080458800404780008000eb0052b82000cf
:101c2c000289b900020178006002b90084017800d1
:101c3c000301410053b820000300b800010141002a
:101c4c0082007800420620000300200042fd0700bd
:101c5c000000780090458800504780006a00b90069
:101c6c0000007800a0458800f04780006101b800b2
:101c7c00604780008000eb00009ab90004027800f5
:101c8c00028bb90086027800050242000010b800f1
:101c9c0001024200840078000001be0000d4200044
:101cac00310020002cfd070000007800b0458800b2
:101cbc00f04780006101b800704780008000eb00a5
:101ccc00009ab90004027800028bb90086027800f1
:101cdc00050242000010b8000102420084007800a6
:101cec000001be0000d42000310020001afd0700c6
:101cfc0000007800c0458800b1458000c0458000d8
:101d0c00808f500003003100c04580000080e80047
:101d1c00b0458800a1458000b2458000c0458000d8
:101d2c000000510000017800110009008280d800e9
:101d3c000000e800e0458800914580008045800067
:101d4c00808f500003003100804580000080e80047
:101d5c0090458800a1458000924580008045800018
:101d6c000000510000017800110009008280d800a9
:101d7c000000e800d0458800f04780006101b80001
:101d8c004318dd00cd10de00810070004310dd0033
:101d9c000001be00006c2e0061972600eefc0700cf
:101dac00f045880001468800804780004a00de002c
:101dbc000000e8001046880090478000204688000c
:101dcc00d047800030468800e046800040468800be
:101ddc008047800050468800a047800060468800fd
:101dec00b047800070468800c0478000804688005d
:101dfc00c08320009046880060bd2000a04688006b
:101e0c00218d2000c08c2000c0fc07000000eb00de
:101e1c00000f7800070037001e007800800040009b
:101e2c0060bd2000008040008000eb0001087800bd
:101e3c001e0fe8001e007800e20f5000f6ff3e0077
:101e4c00c0428000e10f500012003a00e0478000d1
:101e5c008000eb0072eb27000289b90002017800c8
:101e6c006002b900840178000301410073eb270084
:101e7c000300b800010141008200780042062000f6
:101e8c0003002000b4fc070000007800b046880076
:101e9c0001003700d628ef000000eb00000f78009f
:101eac001a003700f04780006101b80060478000dd
:101ebc008000eb00009ab90004027800028bb90094
:101ecc0086027800050242000010b80001024200b0
:101edc00840078004309dd00cd01de008301710030
:101eec004301dd00006c2e00619726009afc070070
:101efc00800078001e00780000014000e087200080
:101f0c0000004100010878001e0fe8001e00780058
:101f1c00ef0f5000e3ff36000080fa0000000600cf
:020000040000fa
:101f2c0034090000240000000200000002001e0022
:101f3c000800ff00dc0be2000b00000002001e009a
:101f4c000800ff00e80bee000b00000002001e0072
:101f5c000800ff00f40bfa000b0000000008000062
:101f6c003c000000020000004b02960004de55000d
:101f7c004b02f600e03d02007a041e00663d0200b2
:101f8c00f9ce54000e540e007a2800000000000018
:101f9c00440589000a253e004405c800ec84050070
:101fac00080b4a004f840500d3d58100158115001c
:101fbc00b41c000000000000dc0b0000240000003a
:101fcc000000000042080000660000000000000055
:101fdc00040900001e00000002000000ffff0200c8
:101fec000004000003000000000100000500ff00d9
:101ffc00ff0006000012000018000900002100007c
:10200c0024030000a80800003600000000000000b7
:10201c003c0800000600000000000000d60b000089
:10202c000600000000000000de0800002600000092
:10203c0002000000140014000058020058022d0089
:10204c0000320000b80bc800001c0c00401f03003d
:10205c0000581b002c01e8000388130023000e001d
:10206c0000fa00000a000000220900001200000023
:08207c0000000000000000005c
:020000040000fa
:10208400881f7800891f78008a1f78008b1f7800ca
:102094004400f8003400f8002005900008f02f00f8
:1020a4000a40e10003003200480f2000aa01880022
:1020b40001003700080f2000280288000002900069
:1020c400d00490008301e90003800800150000009b
:1020d400100490003103780030059000c005900092
:1020e400b80278009a00ca00048008000a000000c0
:1020f4005210c4009b80ca008707cd005290c400d0
:102104005290c500ba87cd005390c4008607cd0015
:102114009a00ca005290c500bb87cd000600ca00d1
:102124000900c8003200cd003400f9004400f90071
:10213400cf0578004f057800cf0478004f0478006d
:1021440000000600b00090004001900000009000e4
:1021540000800800010000008018eb000019eb006b
:10216400000006000200fa009e88a9007116800093
:1021740000002400008060000000e0000a003a0033
:102184001e007800610060000000e00006003a00d4
:102194009e08a9001e0078000000a000000f78002f
:1021a40010002000c0428800711680000000220048
:1021b400008060000000e00006003a005828ef00ac
:1021c4009e08a9005a28ef001e0078000010a00005
:1021d400000f78001e007800610060000000e0003d
:1021e40008003200711680000000240000806000a6
:1021f4000000e000030032001e0078000000a1008f
:10220400000f78001e007800620060000000e0000b
:102214000800320071168000000022000080600077
:102224000000e000030032001e0078000010a1004e
:10223400000f78000080fa00000006000000fa0099
:102244009ec8a8009ea8a80000002600601688006a
:10225400d022ef00d622ef000080eb00f0168800b9
:102264000001280020088800000120008008880060
:102274000621ef0084c0a9008cc0a90011e1a800c8
:1022840000012000900888000a21ef0084e0a900e2
:102294008ce0a90000002800f0088800290007004d
:1022a4001400070040932000a6ff070000942000bc
:1022b400a4ff0700c0942000a2ff07005828ef00e5
:1022c4000100370000000000f04480006800600056
:1022d4000000e00001003200cbfb0700f044800066
:1022e400700060000000e000f6ff32009dff070070
:1022f400f5ff37000000fa00a842a900a802a900cf
:10230400a862a900a882a900a8a2a900400e2000e2
:1023140000158800004120001015880090c020009e
:1023240020158800d003200050158800a622ef0055
:102334008560a9008d60a800a1e2a8000080fa00d1
:10234400000006000000fa00d421ef00205c200009
:10235400200e880070772000400e8800a003200023
:10236400600e8800d021ef00d621ef00d821ef00c5
:10237400da21ef00c621ef0000002800000e8800db
:1023840088e0a90090e0a8000080fa0000000600a0
:020000040000fa
:0200000401f009
:04000000e3bf00005a
:020000040000fa
:0200000401f009
:04000400ff7f00007a
:020000040000fa
:0200000401f009
:04000800cfff000026
:020000040000fa
:0200000401f009
:04001400ffff0000ea
:020000040000fa
:0200000401f009
:04001800ffff0000e6
:00000001FF
